:04000000A1EF08F074
:08000800046ED8CF05F0E0CF33
:1000100006F00001E9CF0CF0EACF07F0E1CF08F0DD
:10002000E2CF09F0D9CF0AF0DACF0BF0F3CF12F01C
:10003000F4CF13F0FACF14F0F5CF15F0F6CF16F099
:10004000F7CF17F000C00EF001C00FF002C010F0A3
:1000500003C011F09DAA30EF00F09EBAEAEF00F065
:100060009DA836EF00F09EB801EF01F00EC000F041
:100070000FC001F010C002F011C003F00CC0E9FF86
:1000800007C0EAFF078E08C0E1FF09C0E2FF0AC00F
:10009000D9FF0BC0DAFF12C0F3FF13C0F4FF14C086
:1000A000FAFF15C0F5FF16C0F6FF17C0F7FF0450A2
:1000B00006C0E0FF05C0D8FF1000F76ACA0FF66E51
:1000C000000EF7220900F5501200002F5E71BC935C
:1000D000E2CD57780926EBC4B59AAE81F0DF123D28
:1000E0004C63F9D6A788456A1B34735C2D02CFE0B8
:1000F00091BE240B7A5598B7C6E9DDF283AC614E08
:100100003F108AA5D4FB36196847E6C9B8975A75D7
:10011000042BB19EEFC00D22537C48671639F4DBE7
:10012000AA851F30416EA38CFDD295BACBE4290677
:100130007758C2ED9CB37E51200F3B14654A87A8C7
:10014000D9F66C43321DD0FF8EA1E3CCBD925F7017
:10015000012EB49BEAC5082756794D62133CF1DEA7
:10016000AF801A35446BA689F8D790BFCEE12C0337
:10017000725DC7E899B67B54250A3E11604F82AD87
:10018000DCF369463718D5FA8BA4052A5B74B99657
:10019000E7C8527D0C23EEC1B09FAB84F5DA173867
:1001A0004966FCD3A28D406F1E3176592807CAE5F7
:1001B00094BB210E7F509DB2C3ECD8F786A9644B47
:1001C0003A158FA0D1FE331C6D42ABA202D0AB9882
:1001D000AB88120001017751772B036AC30FE96ED8
:1001E000000E0320EA6EAECFEFFF7751B40801E1B5
:1001F000776B0001EADF9EBAEDD79D8A9E9A36EFB3
:1002000000F002012D512E5D0FE02E512E2B036ABE
:10021000790FE96E010E0320EA6EEFCFADFF2E518C
:10022000B40801E12E6B01D09D989E98000136EF35
:1002300000F0ECCFFAFFED52EFCFE8FFF96E1200BD
:100240008A82FF0E936E69EF0BF0D8B204D0030ED2
:10025000EA6E930EE96E006A016A026A036A03019C
:10026000936B946B956B966B9251911190118F11CA
:100270002CE0200E976FD8908B378C378D378E37C8
:1002800093379437953796379251965D08E191519F
:10029000955D05E19051945D02E18F51935D0FE30F
:1002A0008F51935F9051D8A0903D945F9151D8A009
:1002B000913D955F9251D8A0923D965FD8800036CF
:1002C000013602360336972FD6D793C3EFFF94C378
:1002D000ECFF95C3ECFF96C3ECFF00017CEF0BF045
:1002E000DFC301F0DEC300F00066012A0900F5CF8C
:1002F000EEFF002EFBD7012EF9D7F86A1200F86A3C
:10030000100EF76EF66A020EEA6E310EE96E030108
:10031000DF6B010EDE6F0001E3DF310E016E020EB6
:10032000026E1200010E03018B5F0CE3030EEA6EF6
:100330008B0EE96EEF5006E0040E006E002EFED725
:10034000EF2EFAD700019EEF0BF0D9C3DFF3D8C32D
:10035000DEF3DBC3E1F3DAC3E0F30301DD5303E1D2
:10036000DC51000830E2DEC3E9FFDFC3EAFFEFCF74
:10037000E2F3E1C303F0E0C3E9FFE1C3EAFFEF50BA
:10038000E25D16E0DFC303F0DEC3E9FFDFC3EAFF8F
:10039000EFCFE2F3E1C303F0E0C3E9FFE1C3EAFF1B
:1003A000EF50E25D02E2FF0E01D0010E016E0DD0B2
:1003B000DE2BD8B4DF2BE02BD8B4E12BDC51D8B442
:1003C000DD07DC07CBD7000E016E00011200F250F2
:1003D000036EF29EA68EA6840F01550EA76EAA0E7E
:1003E000A76EA68200000350F21200011200D08C0A
:1003F000A69CF6503F0B006EC00EF6160A00E4C332
:1004000001F0006607D0EECFF5FF015204E00F00C7
:10041000010603D000060B000C003F0EF6143F0A45
:10042000F0E1A688D4DFD3DF0166EBD7F86A1200CB
:10043000030EEA6EE40EE96EEF500EE0140E016E4C
:10044000006A002EFED7012EFBD7BF0E006E002ED5
:10045000FED700D0EF2EF2D71200A10E03018B6F52
:10046000EF0E8C6F080E8D6FF00E8E6F040E8F6F77
:100470006E0E906FD80E916FCF0E926FD391F86A77
:10048000F76AF66A030EEA6E930EE96EDF6B400EB2
:10049000DE6F000125DF030E0301D96F930ED86FC5
:1004A000030EDB6F8B0EDA6FDD6B040EDC6F000169
:1004B0004CDF015210E00301D381030EEA6E930E6C
:1004C000E96E030EE26E8B0EE16E040E016EE6CF56
:1004D000EEFF012EFCD7030E0301D96F9B0ED86FE0
:1004E000030EDB6F8F0EDA6FDD6B040EDC6F000125
:1004F0002CDF015210E00301D381030EEA6E9B0E44
:10050000E96E030EE26E8F0EE16E040E016EE6CF11
:10051000EEFF012EFCD70301D3A117D0F29CF29E6F
:10052000F2BEFDD7F86AF76AF66A030EEA6E930E1A
:10053000E96E400EE46F00015ADFC00EF212010EA8
:100540000301E46F000174DF03010001A6EF0BF06B
:100550000101776B786B02012D6B2E6B9D8A000178
:10056000B3EF02F0F5D7A8EF0BF0016603D00266F7
:1005700002D007D0022A00C0EEFF012EFCD7022EC7
:10058000FAD7C0EF03F001017851782B036AC30F4B
:10059000E96E000E0320EA6EEFCF9AF3030101012A
:1005A0007851B30801E2786B03019AC301F00001AE
:1005B000E9EF02F001017851775D03E1000E016E71
:1005C00011D097C303F096C398F397C399F3000132
:1005D000DAD799C3EAFF98C3E9FF01C0EFFF010E24
:1005E000016E01010001C7EF03F0ECEF03F003011E
:1005F000A36BA46BA36BA251A35D4FE2036AA3514B
:100600009E25E96E9F510320EA6EEF507D082BE195
:10061000A32B036AA3519E25E96E9F510320EA6E26
:10062000EF505E080BE1A451A42B036AA025E96EEC
:10063000A1510320EA6E7E0EEF6E14D0036AA3511F
:100640009E25E96E9F510320EA6EEF505D080AE196
:10065000A451A42B036AA025E96EA1510320EA6EE0
:100660007D0EEF6E18D0A451A42B036AA025016E55
:10067000A151032203C0A6F3036AA3519E25E96E8C
:100680009F510320EA6EEFCFA7F3A6C3EAFF01C094
:10069000E9FFA7C3EFFFA32BAED7A4C301F000016E
:1006A00087EF03F00301F06BEFC303F0EE51D8B412
:1006B000EF07EE07F26F03C0F3F3F25302E1F353D7
:1006C00014E0EDC303F0EC51EC2BD8B4ED2BE96E44
:1006D00003C0EAFFEF50F019F16F036AF151000116
:1006E000ECDCE8CFF0F30301DFD7F0C301F0000149
:1006F000120003019B6B97C39FF396C39EF39AC3AB
:10070000A1F399C3A0F398C3A2F3000170D701C06D
:100710009BF303019B5303E1FF0E016E21D0010EF9
:100720009B5D9E6F9AC3EDF399C3ECF3EF6BEE6F95
:100730000001B8DF01C09CF3010E03019B5D036A59
:100740009925E96E9A510320EA6EEFCF9DF39D51F2
:100750009C5D04E1010E9B5D016E02D0FF0E016EF7
:100760000001FEEF03F003019291936B00012DDD78
:10077000EA6A210EE96E006A026AA20E016EF5D6DF
:10078000030E0301976F940E966F000113D7015269
:1007900003E11BDD2AD720D0036A03019351210F07
:1007A000E96E000E0320EA6E94C3EFFF036A9351D3
:1007B000210FE96E000E0320EA6EEF507E0806E07E
:1007C000932B9351A20801E1936B06D0935101083A
:1007D00002E2928101D0936B030192B102D0000139
:1007E000CFD792A11FD0976B210E966F93C398F32A
:1007F0008FC39AF38EC399F300017BD701C095F3A1
:1008000003019551FF0803E1000E016E0DD090C366
:10081000E9FF91C3EAFFEC6AED5295C3EFFF010EC9
:10082000016E02D0000E016E00019DEF07F0030E75
:10083000EA6EA40EE96EA3C3E2FFA2C3E1FFE6CF16
:10084000EEFFF29CF29EF2BEFDD7F86A100EF76E34
:10085000F66A030EEA6EA40EE96E400E0301E46F21
:100860000001C5DDC00EF212010E0301E46F0001AC
:10087000DFDD120044DD02C0A1F301C0A0F30301DB
:10088000A1C303F0A0C3A2F3A1C3A3F39F51FF0A26
:10089000016EE8B006D0A3C3EAFFA2C3E9FFEF9060
:1008A00005D0A3C3EAFFA2C3E9FFEF80A1C3A3F36E
:1008B000A0C3A2F30001BBDF12000301F36BF46BD2
:1008C000F36BF251F35D58E2036AF351EE25E96EE2
:1008D000EF510320EA6EEF507E0815E1F451F42B3E
:1008E000036AF025E96EF1510320EA6E7D0EEF6E8A
:1008F000F451F42B036AF025E96EF1510320EA6EFE
:100900005E0EEF6E37D0036AF351EE25E96EEF51BC
:100910000320EA6EEF507D0815E1F451F42B036AD1
:10092000F025E96EF1510320EA6E7D0EEF6EF45171
:10093000F42B036AF025E96EF1510320EA6E5D0E97
:10094000EF6E18D0F451F42B036AF025016EF151CB
:10095000032203C0F6F3036AF351EE25E96EEF516B
:100960000320EA6EEFCFF7F3F6C3EAFF01C0E9FF19
:10097000F7C3EFFFF32BA5D7F4C301F0000112007A
:100980000301E96BEA6BE5C3EDF3E4C3ECF3EF6B52
:10099000E6C3EEF3000186DE01C0EBF3010E0301B6
:1009A000E725016E000EE821036E01C0ECF3ED6F48
:1009B000E5C3EFF3E4C3EEF3F16F01C0F0F3E6C378
:1009C000F2F300017ADF01C0E9F3010E0301E9252A
:1009D000036AE725016EE851032201C0ECF303C06E
:1009E000EDF3030EEF6FEB0EEE6F03C0F1F301C0FA
:1009F000F0F3010EF26F000160DF01C0EAF30301C2
:100A0000E7C3E9FFE8C3EAFF7E0EEF6EEA51E9258E
:100A1000010F036AE725E96EE8510320EA6E7E0EB6
:100A2000EF6EEA51E925020F016E0001A5EF05F016
:100A3000B40ED88002012D550301EB6FEA5303E198
:100A4000E951EB5D3DE2790E02012D250301EC6FCA
:100A5000010EED6FD8B0ED2BEDC3EAFFECC3E9FF5B
:100A6000E8C3E2FFE7C3E1FFEB51016E04E0E6CF2C
:100A7000EEFF012EFCD7EB51E95F000EEA5BEB5174
:100A8000E725EC6F000EE821ED6F010EEA6E790E9E
:100A9000E96EEDC3E2FFECC3E1FFEAC302F0E9C394
:100AA00001F0015202E0022A02D0025206E0E6CF33
:100AB000EEFF012EFCD7022EFAD7E9C32DF224D087
:100AC000790E02012D250301EC6F010EED6FD8B0F8
:100AD000ED2BEDC3EAFFECC3E9FFE8C3E2FFE7C398
:100AE000E1FFEAC302F0E9C301F0015202E0022A89
:100AF00002D0025206E0E6CFEEFF012EFCD7022E16
:100B0000FAD7E95102012D2702012D51B40801E164
:100B10002D6B000196EF05F0E5C3E8F3E4C3E7F3BE
:100B20000301EA6BE6C3E9F3000182D79D88B0EFC9
:100B300005F0DFC3E5F3DEC3E4F3E0C3E6F303014E
:100B4000E86B210EE76F00011BD70301E36B01C0C7
:100B5000E2F3E56B210EE46FE2C3E6F30001DCD7BC
:100B6000120096C398F395C397F30301996B9A6BA0
:100B70009B6B9C6B9D6B9E6B860E996F97C3E9FF79
:100B800098C3EAFFEFCF00F0ECCF01F0ECCF02F01A
:100B9000ECCF03F003C09DF302C09CF301C09BF3B4
:100BA00000C09AF39E6B97C3E9FF98C3EAFFEFCFAB
:100BB0009FF3ECCFA0F3ECCFA1F3ECCFA2F3A253C1
:100BC00005E1A15303E1A0513F0814E297C3E9FFF7
:100BD00098C3EAFFEFCF9FF3ECCFA0F3ECCFA1F3E4
:100BE000ECCFA2F3A25306E1A15304E1A0514F08B8
:100BF000D8B072D097C3E9FF98C3EAFFEFCF9FF355
:100C0000ECCFA0F3ECCFA1F3ECCFA2F3A25305E11C
:100C1000A15303E1A0511F085FE297C3E9FF98C306
:100C2000EAFFEFCF9FF3ECCFA0F3ECCFA1F3ECCF33
:100C3000A2F3A25351E1A1534FE1A051FF084CE3AD
:100C400003E19F51FE0848E300017FEC01F002C080
:100C5000A0F301C09FF3030101C0E9FF02C0EAFF56
:100C6000EFB004D09F6B000105DE0301F29CF29E01
:100C7000F2BEFDD79751E96E9851EA6EEFCF9FF320
:100C8000ECCFA0F3ECCFA1F3ECCFA2F3ED52ED52F9
:100C9000ED52040E9725016E000E9821036E01504F
:100CA000A36F03C0A4F3A1C3F8FFA0C3F7FF9FC3C2
:100CB000F6FFA4C3EAFFA3C3E9FF400EE46F0001FF
:100CC000F7EC01F0C00EF212010E0301E46F000117
:100CD00018EC02F007D00301040E006E002EFED7C0
:100CE00000D00000030E0301DF6F990EDE6FE16B91
:100CF000060EE06F00011DDF120096C398F395C346
:100D000097F30301996B9A6B9B6B9C6B9D6B9E6B2E
:100D10009F6BA06BA16BA26BA36BA46BA56BA66B67
:100D2000A76BA86BA96BAA6BAB6BAC6BAD6BAE6B17
:100D3000AF6BB06BB16BB26BB36BB46BB56BB66BC7
:100D4000B76BB86BB96BBA6BBB6BBC6BBD6BBE6B77
:100D5000BF6BC06BC16BC26BC36BC46BC56BC66B27
:100D6000C76BC86BC96BCA6BCB6BCC6BCD6BCE6BD7
:100D7000CF6BD06BD16BD26BD36BD46BD56BD66B87
:100D8000D76BD86BD96BDA6BDB6BDC6BDD6B870EEB
:100D9000996F97C3E9FF98C3EAFFEFCF00F0ECCF5C
:100DA00001F0ECCF02F0ECCF03F003C09DF302C0E2
:100DB0009CF301C09BF300C09AF3F86A9BC3F7FF52
:100DC0009AC3F6FF030EEA6E9E0EE96EDF6B400ECD
:100DD000DE6F000170EC01F0030E0301DF6F990E6E
:100DE000DE6FE16B450EE06F0001A3DE1200030130
:100DF000976B986B996B9A6B9B6B9C6B9D6B9E6BC7
:100E00009F6B820E976F160E986F0C0E996F070EE0
:100E10009B6FE10E9A6F0B0E9C6F040E9D6F9F6B84
:100E20009E6B030EDF6F970EDE6FE16B090EE06FB6
:100E300000017FDE12007FEC01F002C099F301C0D7
:100E400098F3030198C3E9FF99C3EAFFEF8299C3BE
:100E5000A3F398C3A2F30001EADC36EF07F0030125
:100E6000976B010E9F6F000105DDE5D7800E030132
:100E7000976F030EDF6F970EDE6FE16B010EE06F71
:100E8000000157DE1200020E0301946F3E0E94C360
:100E90008FF38E6F906B9051030841E39051030DD7
:100EA000F350946B936F320E9325E96E020E9421EA
:100EB000EA6EEFCF95F38EC3E9FF8FC3EAFFEF50E1
:100EC000955D2BE18FC392F38EC391F3010E9127B1
:100ED000000E92239051030DF350946B936F010E0B
:100EE0009325016E000E9421036E0150320FE96EBE
:100EF000020E0320EA6EECCF94F3ED52EFCF93F3A2
:100F0000030EEA6E930EE96E92C396F391C395F3C6
:100F1000000119EC01F003D00301902BBCD70001B4
:100F2000A5EF07F0020E03018F6F3E0E8E6F030ECA
:100F3000916F8B0E906F000116D403018D9101B05B
:100F40008D818DA102D000019ED70001EBD7ACEFBF
:040F50000BF0120090
:0E114200F86AD09E078EEA6AE96A700ED36ED4
:101150009B8C9B9E1A6AB886100EAF6E000EB06E06
:10116000A60EAC6E900EAB6E1E6A1D6A1C6A1B6AE0
:10117000350ECD6ECC6ACF6ACE6A9E9092989296CA
:10118000899692948994700ED36E9B8C9B9ED36E9D
:101190009B8C9B9ED36E9B8C9B9ED36E9B8C9B9EAD
:1011A0000301816980697F697E69C150F00BC16E5E
:1011B000000E0F01386F3C6F396F3A6F3B6F0101C2
:1011C000886B776A786A796A1F6A206A216A226A5C
:1011D000236A246A256A266A276A286A296A2A6A8B
:1011E0002B6A2C6A2D6A2E6A2F6A306A316A326A3B
:1011F000336A346A356A366A376A386A396A3A6AEB
:101200003B6A3C6A3D6A3E6A3F6A406A416A426A9A
:10121000436A446A456A466A476A486A496A4A6A4A
:101220004B6A4C6A4D6A4E6A4F6A506A516A526AFA
:10123000536A546A556A566A576A586A596A5A6AAA
:101240005B6A5C6A5D6A5E6A5F6A0001606B616B23
:10125000626B636B646B656B666B676B686B696B0A
:101260006A6B6B6B6C6B6D6B6E6B6F6B706B716BBA
:10127000726B736B746B756B766B776B786B796B6A
:101280007A6B7B6B7C6B7D6B7E6B7F6B806B816B1A
:10129000826B836B846B856B866B876B886B896BCA
:1012A0008A6B8B6B8C6B8D6B8E6B8F6B906B916B7A
:1012B000926B936B946B956B966B976B986B996B2A
:1012C0009A6B9B6B9C6B9D6B9E6B9F6BA06BA16BDA
:1012D000A26BA36BA46BA56BA66BA76BA86BA96B8A
:1012E000AA6BAB6BAC6BAD6BAE6BAF6BB06BB16B3A
:1012F000B26BB36BB46BB56BB66BB76BB86BB96BEA
:10130000BA6BBB6BBC6BBD6BBE6BBF6BC06BC16B99
:10131000C26BC36BC46BC56BC66BC76BC86BC96B49
:10132000CA6BCB6BCC6BCD6BCE6BCF6BD06BD16BF9
:10133000D26BD36BD46BD56BD66BD76BD86BD96BA9
:10134000DA6BDB6BDC6BDD6BDE6BDF6BE06BE16B59
:10135000E26BE36BE46BE56BE66BE76BE86BE96B09
:10136000EA6BEB6BEC6BED6BEE6BEF6BF06BF16BB9
:10137000F26BF36BF46BF56BF66BF76BF86BF96B69
:10138000FA6BFB6BFC6BFD6BFE6BFF6B0101006B83
:10139000016B026B036B046B056B066B076B086BD1
:1013A000096B0A6B0B6B0C6B0D6B0E6B0F6B106B81
:1013B000116B126B136B146B156B166B176B186B31
:1013C000196B1A6B1B6B1C6B1D6B1E6B1F6B206BE1
:1013D000216B226B236B246B256B266B276B286B91
:1013E000296B2A6B2B6B2C6B2D6B2E6B2F6B306B41
:1013F000316B326B336B346B356B366B376B386BF1
:10140000396B3A6B3B6B3C6B3D6B3E6B3F6B406BA0
:10141000416B426B436B446B456B466B476B486B50
:10142000496B4A6B4B6B4C6B4D6B4E6B4F6B506B00
:10143000516B526B536B546B556B566B576B586BB0
:10144000596B5A6B5B6B5C6B5D6B5E6B5F6B606B60
:10145000616B626B636B646B656B666B676B686B10
:10146000696B6A6B6B6B6C6B6D6B6E6B6F6B706BC0
:10147000716B726B736B746B756B766B776B786B70
:10148000796B7A6B7B6B7C6B7D6B7E6B7F6B806B20
:10149000816B826B836B846B856B866B876B886BD0
:1014A000896B8A6B8B6B8C6B8D6B8E6B8F6B906B80
:1014B000916B926B936B946B956B966B976B986B30
:1014C000996B9A6B9B6B9C6B9D6B9E6B9F6BA06BE0
:1014D000A16BA26BA36BA46BA56BA66BA76BA86B90
:1014E000A96BAA6BAB6BAC6BAD6BAE6BAF6BB06B40
:1014F000B16BB26BB36BB46BB56BB66BB76BB86BF0
:10150000B96BBA6BBB6BBC6BBD6BBE6BBF6BC06B9F
:10151000C16BC26BC36BC46BC56BC66BC76BC86B4F
:10152000C96BCA6BCB6BCC6BCD6BCE6BCF6BD06BFF
:10153000D16BD26BD36BD46BD56BD66BD76BD86BAF
:10154000D96BDA6BDB6BDC6BDD6BDE6BDF6BE06B5F
:10155000E16BE26BE36BE46BE56BE66BE76BE86B0F
:10156000E96BEA6BEB6BEC6BED6BEE6BEF6BF06BBF
:10157000F16BF26BF36BF46BF56BF66BF76BF86B6F
:10158000F96BFA6BFB6BFC6BFD6BFE6BFF6B020187
:10159000006B016B026B036B046B056B066B076BD7
:1015A000086B096B0A6B0B6B0C6B0D6B0E6B0F6B87
:1015B000106B116B126B136B146B156B166B176B37
:1015C000186B196B1A6B1B6B1C6B1D6B1E6B1F6BE7
:1015D000206B216B226B236B246B256B266B276B97
:1015E000286B296B2A6B2B6B2C6B2D6B2E6B2F6B47
:1015F000306B316B060E326F0B0E346F620E336F31
:10160000070E356F0C0E376FFA0E366F020E386FFD
:101610000D0E3A6FEE0E396F080E3B6F0E0E3D6FDA
:101620005E0E3C6F3E6B3F6B406B416B426B436B9E
:10163000446B456B466B476B486B496B4A6B4B6B16
:101640004C6B4D6B4E6B4F6B506B516B526B536BC6
:10165000546B556B566B576B586B596B5A6B5B6B76
:101660005C6B5D6B5E6B5F6B606B616B626B636B26
:10167000646B656B666B676B686B696B6A6B6B6BD6
:101680006C6B6D6B6E6B6F6B706B716B726B736B86
:10169000746B756B766B776B786B796B7A6B7B6B36
:1016A0007C6B7D6B7E6B7F6B806B816B826B836BE6
:1016B000846B856B866B876B886B896B8A6B8B6B96
:1016C0008C6B8D6BF29CF29EF2BEFDD7000120EF79
:1016D00001F0100E0301826FD8928E6B070E8D6F92
:1016E000A10E8C6F200E8B6F926B916B906B82C3EF
:1016F0008FF3000125EF01F000C083F30301848123
:1017000000017FEC01F002C086F301C085F3030104
:1017100085C3E9FF86C3EAFFEFB013D0876B83511F
:10172000875D0FE2886B81B2882B882D02D084916F
:1017300008D082C38BF3000192EF01F00301872BE5
:10174000EED784A10ED000012DEF02F0B2EF02F02F
:10175000C00EF21292EF07F0000E016E14D013D0FB
:1017600003010F0E036E520E896F03C08AF3270E1A
:101770008A6F896B030EEA6E890EE96E000119EC1F
:0817800001F0000E016EFFD71D
:020000040030CA
:0E00000000F8191C00BF00000FC00FE00F40F9
:00000001FF
;PIC18F45K22
;CRC=93AC  CREATED="22-Dec-17 10:38"
