:0420000080EF13F06A
:08200800046ED8CF05F0E0CF13
:1020100006F00001E9CF0CF0EACF07F0E1CF08F0BD
:10202000E2CF09F0D9CF0AF0DACF0BF0F3CF12F0FC
:10203000F4CF13F0FACF14F0F5CF15F0F6CF16F079
:10204000F7CF17F000C00EF001C00FF002C010F083
:1020500003C011F0F2A830EF10F0F2B2D6EF17F093
:102060009DAA36EF10F09EBA97EF1AF09DA83CEFAC
:1020700010F09EB8AFEF1AF00EC000F00FC001F0E4
:1020800010C002F011C003F00CC0E9FF07C0EAFF66
:10209000078E08C0E1FF09C0E2FF0AC0D9FF0BC0EC
:1020A000DAFF12C0F3FF13C0F4FF14C0FAFF15C02B
:1020B000F5FF16C0F6FF17C0F7FF045006C0E0FF9B
:1020C00005C0D8FF1000F76AD60FF66E200EF72273
:1020D0000900F5501200002F5E71BC93E2CD5778D5
:1020E0000926EBC4B59AAE81F0DF123D4C63F9D6F8
:1020F000A788456A1B34735C2D02CFE091BE240B88
:102100007A5598B7C6E9DDF283AC614E3F108AA5D7
:10211000D4FB36196847E6C9B8975A75042BB19EA7
:10212000EFC00D22537C48671639F4DBAA851F30B7
:10213000416EA38CFDD295BACBE429067758C2ED47
:102140009CB37E51200F3B14654A87A8D9F66C4397
:10215000321DD0FF8EA1E3CCBD925F70012EB49BE7
:10216000EAC5082756794D62133CF1DEAF801A3577
:10217000446BA689F8D790BFCEE12C03725DC7E807
:1021800099B67B54250A3E11604F82ADDCF3694657
:102190003718D5FA8BA4052A5B74B996E7C8527D27
:1021A0000C23EEC1B09FAB84F5DA17384966FCD337
:1021B000A28D406F1E3176592807CAE594BB210EC7
:1021C0007F509DB2C3ECD8F786A9644B3A158FA017
:1021D000D1FE331C6D42F76AE60FF66E210EF72230
:1021E0000900F5501200037C0000014441027C000C
:1021F00000014441047C0000014441017C000001D5
:102200004441107C0000014C650800000002504170
:10221000090000000250410500000002464604008B
:102220000000025252070000000252460600000061
:1022300002544D110000000250521F7C0000014169
:102240004E1E7C000001414E0C7C00000154580DD4
:102250007C0000015458187C00000154581D7C007B
:10226000000135565F454E00ECCFFAFFED52EFCF3F
:10227000E8FFF96E120004017051070B006E703117
:10228000016E013201321F0E011601507225E96EF6
:10229000000E7321EA6E016A012A002A01D001367C
:1022A000002EFDD7715303E00150EF1203D0011E41
:1022B0000150EF160001120004016951070DF3509F
:1022C0006B6B6A6F6BC403F06A51000184DF006EB0
:1022D0000900F5CF01F00900F5CF02F00900F5CFB4
:1022E00003F003C06FF402C06EF401C06DF4E8CFD8
:1022F0006CF4E8CF70F40401716B0F0E736F890EEC
:10230000726F0001B8DF12000E0E0401676F65C422
:1023100068F468532CE067C469F46951070DF35001
:102320006B6B6A6F6BC403F06A51000154DF006E7F
:102330000900F5CF01F00900F5CF02F00900F5CF53
:1023400003F003C06FF402C06EF401C06DF4E8CF77
:102350006CF4E8CF70F4010E0401716F0F0E736F0F
:10236000890E726F000187DF000005D0040167C489
:1023700069F40001A1DF00000F0E0401676F65C45E
:1023800068F468532CE067C469F46951070DF35091
:102390006B6B6A6F6BC403F06A5100011CDF006E47
:1023A0000900F5CF01F00900F5CF02F00900F5CFE3
:1023B00003F003C06FF402C06EF401C06DF4E8CF07
:1023C0006CF4E8CF70F4010E0401716F0F0E736F9F
:1023D000890E726F00014FDF000005D0040167C451
:1023E00069F4000169DF00000401655302E0000E9A
:1023F00001D0010E666F100E676F66C468F46853F3
:102400002CE067C469F46951070DF3506B6B6A6F78
:102410006BC403F06A510001DEDE006E0900F5CFE7
:1024200001F00900F5CF02F00900F5CF03F003C079
:102430006FF402C06EF401C06DF4E8CF6CF4E8CF25
:1024400070F4010E0401716F0F0E736F890E726FBD
:10245000000111DF000005D0040167C469F4000128
:102460002BDF00001200010EEA6E1C0EE96E010E59
:10247000E26E460EE16E2A0E016EE6CFEEFF012EF1
:10248000FCD712006CC401F06BC400F00066012A96
:102490000900F5CFEEFF002EFBD7012EF9D7F86A21
:1024A0001200010E0401685F0CE3040EEA6E680E70
:1024B000E96EEF5006E0040E006E002EFED7EF2E00
:1024C000FAD700011200D89004016535036A4C0F59
:1024D000016E010E03220150666F03C067F4070E00
:1024E000686F6851070DF3506B6B6A6F6BC403F034
:1024F0006A51000170DE006E0900F5CF01F009009D
:10250000F5CF02F00900F5CF03F001C06DF4E8CF7C
:102510006CF404010034006E0134016E0234016E6B
:102520000334016E0036013601360136FC0E00160A
:10253000C250830B0010C26EC2826991C2A269812F
:1025400069B104D06991C2A26981FAD7C2B2FED73B
:10255000C4CF03F0C3CF00F0C4CF01F0026A036A16
:1025600067C4EAFF66C4E9FF00C0EFFF01C0ECFFEB
:1025700000011200D89004016535036A540F016E02
:10258000010E03220150666F03C067F4080E686FE6
:102590006851070DF3506B6B6A6F6BC403F06A519F
:1025A000000119DE006E0900F5CF01F00900F5CF3A
:1025B00002F00900F5CF03F001C06DF4E8CF6CF430
:1025C00004010034006E0134016E0234016E0334E4
:1025D000016E0036013601360136FC0E0016C2507F
:1025E000830B0010C26EC2826991C2A2698169B177
:1025F00004D06991C2A26981FAD7C2B2FED7C4CF12
:1026000003F0C3CF00F0C4CF01F0026A036A67C4CD
:10261000EAFF66C4E9FF00C0EFFF01C0ECFF000164
:102620001200D89004016535036A5C0F016E010E3B
:1026300003220150666F03C067F4090E686F68518A
:10264000070DF3506B6B6A6F6BC403F06A510001A6
:10265000C2DD006E0900F5CF01F00900F5CF02F0F0
:102660000900F5CF03F001C06DF4E8CF6CF404016C
:102670000034006E0134016E0234016E0334016EC9
:102680000036013601360136FC0E0016C250830BAF
:102690000010C26EC2826991C2A2698169B104D080
:1026A0006991C2A26981FAD7C2B2FED7C4CF03F042
:1026B000C3CF00F0C4CF01F0026A036A67C4EAFF27
:1026C00066C4E9FF00C0EFFF01C0ECFF000112008B
:1026D000ABA202D0AB98AB88A9EF1AF0F250036E10
:1026E000F29EA68EA6840F01550EA76EAA0EA76EA7
:0C26F000A68200000350F212000112004C
:10270000F86AD09E078EEA6AE96A700ED36E9B8CD7
:102710009B9E1A6AB886100EAF6E000EB06EA60EA3
:10272000AC6E900EAB6E1E6A1D6A1C6A1B6A350E7B
:10273000CD6ECC6ACF6ACE6A9E9092989296899618
:1027400092948994700ED36E9B8C9B9ED36E9B8CBF
:102750009B9E0101716B706B736B726B756B746B0D
:10276000D36E9B8C9B9ED36E9B8C9B9E020181693A
:1027700080697F697E69D36E9B8C9B9ED36E9B8C98
:102780009B9EC150F00BC16E000E0F01386F3C6F65
:10279000396F3A6F3B6F0101886B776A786A796AA3
:1027A0001F6A206A216A226A236A246A256A266AC5
:1027B000276A286A296A2A6A2B6A2C6A2D6A2E6A75
:1027C0002F6A306A316A326A336A346A356A366A25
:1027D000376A386A396A3A6A3B6A3C6A3D6A3E6AD5
:1027E0003F6A406A416A426A436A446A456A466A85
:1027F000476A486A496A4A6A4B6A4C6A4D6A4E6A35
:102800004F6A506A516A526A536A546A556A566AE4
:10281000576A586A596A5A6A5B6A5C6A5D6A5E6A94
:102820005F6A0001606B616B626B636B646B656B0D
:10283000666B676B686B696B6A6B6B6B6C6B6D6BF4
:102840006E6B6F6B706B1F6A206A716B726B736B50
:10285000746B756B766B776B786B796B7A6B7B6B64
:102860007C6B7D6B7E6B7F6B806B816B826B836B14
:10287000846B856B866B876B886B896B8A6B8B6BC4
:102880008C6B8D6B8E6B8F6B906B916B926B936B74
:10289000946B956B966B976B986B996B9A6B9B6B24
:1028A0009C6B9D6B9E6B9F6BA06BA16BA26BA36BD4
:1028B000A46BA56BA66BA76BA86BA96BAA6BAB6B84
:1028C000AC6BAD6BAE6BAF6BB06BB16BB26BB36B34
:1028D000B46BB56BB66BB76BB86BB96BBA6BBB6BE4
:1028E000BC6BBD6BBE6BBF6BC06BC16BC26BC36B94
:1028F000C46BC56BC66BC76BC86BC96BCA6BCB6B44
:10290000CC6BCD6BCE6BCF6BD06BD16BD26BD36BF3
:10291000D46BD56BD66BD76BD86BD96BDA6BDB6BA3
:10292000DC6BDD6BDE6BDF6BE06BE16BE26BE36B53
:10293000E46BE56BE66BE76BE86BE96BEA6BEB6B03
:10294000EC6BED6BEE6BEF6BF06BF16BF26BF36BB3
:10295000F46BF56BF66BF76BF86BF96BFA6BFB6B63
:10296000FC6BFD6BFE6BFF6B0101006B016B026B7F
:10297000036B046B056B066B076B086B096B0A6BCB
:102980000B6B0C6B0D6B0E6B0F6B106B116B126B7B
:10299000136B146B156B1C6B1D6B1E6B1F6B206B0D
:1029A000216B226B236B246B256B266B276B286BAB
:1029B000296B2A6B2B6B2C6B2D6B2E6B2F6B306B5B
:1029C000316B326B336B346B356B366B376B386B0B
:1029D000396B3A6B3B6B3C6B3D6B3E6B3F6B406BBB
:1029E000416B426B436B446B456B466B476B486B6B
:1029F000496B4A6B4B6B4C6B4D6B4E6B4F6B506B1B
:102A0000516B526B536B546B556B566B576B586BCA
:102A1000596B5A6B5B6B5C6B5D6B5E6B5F6B606B7A
:102A2000616B626B636B646B656B666B676B686B2A
:102A3000696B6A6B6B6B6C6B6D6B6E6B6F6B766BD4
:102A4000580E786FC60E776F090E796F610E7B6F27
:102A5000760E7A6F020E7C6F610E7E6FB00E7D6F08
:102A6000030E7F6F620E816F780E806F040E826F8F
:102A7000630E846F2A0E836F050E856F630E876F5A
:102A8000C20E866F060E886F640E8A6FAC0E896F59
:102A9000070E8B6F640E8D6FB00E8C6F0201826B10
:102AA000836B846B856B866B876B886B896B8A6B9A
:102AB0008B6B8C6B8D6B8E6B8F6B906B916B926B4A
:102AC000936B946B956B966B976B986B996B9A6BFA
:102AD0009B6B9C6B9D6B9E6B9F6BA06BA16BA26BAA
:102AE000A36BA46BA56BA66BA76BA86BA96BAA6B5A
:102AF000AB6BAC6BAD6BAE6BAF6BB06BB16BB26B0A
:102B0000B36BB46BB56BB66BB76BB86BB96BBA6BB9
:102B1000BB6BBC6BBD6BBE6BBF6BC06BC16BC26B69
:102B2000C36BC46BC56BC66BC76BC86BC96BCA6B19
:102B3000CB6BCC6BCD6BCE6BCF6BD06BD16BD26BC9
:102B4000D36BD46BD56BD66BD76BD86BD96BDA6B79
:102B5000DB6BDC6BDD6BDE6BDF6BE06BE16BE26B29
:102B6000E36BE46BE56BE66BE76BE86BE96BEA6BD9
:102B7000EB6BEC6BED6BEE6BEF6BF06BF16BF26B89
:102B8000F36BF46BF56BF66BF76BF86BF96BFA6B39
:102B9000FB6BFC6BFD6BFE6BFF6B0301006B016B52
:102BA000026B036B046B056B066B076B086B096BA1
:102BB0000A6B0B6B0C6B0D6B0E6B0F6B106B116B51
:102BC000126B136B146B156B166B176B186B196B01
:102BD0001A6B1B6B1C6B1D6B1E6B1F6B206B216BB1
:102BE000226B236B246B256B266B276B286B296B61
:102BF0002A6B2B6B2C6B2D6B2E6B2F6B306B316B11
:102C0000326B336B346B356B366B376B386B396BC0
:102C10003A6B3B6B3C6B3D6B3E6B3F6B406B416B70
:102C2000426B436B446B456B466B476B486B496B20
:102C30004A6B4B6B4C6B4D6B4E6B4F6B506B516BD0
:102C4000526B536B546B556B566B576B586B596B80
:102C50005A6B5B6B5C6B5D6B5E6B5F6B606B616B30
:102C6000626B636B646B656B666B676B686B696BE0
:102C70006A6B6B6B6C6B6D6B6E6B6F6B706B716B90
:102C8000726B736B746B756B766B776B786B796B40
:102C90007A6B7B6B7C6B7D6B7E6B7F6B806B816BF0
:102CA000826B836B846B856B866B876B886B896BA0
:102CB0008A6B8B6B8C6B8D6B8E6B8F6B906B916B50
:102CC000926B936B946B956B966B976B986B996B00
:102CD0009A6B9B6B9C6B9D6B9E6B9F6BA06BA16BB0
:102CE000A26BA36BA46BA56BA66BA76BA86BA96B60
:102CF000AA6BAB6BAC6BAD6BAE6BAF6BB06BB16B10
:102D0000B26BB36BB46BB56BB66BB76BB86BB96BBF
:102D1000BA6BBB6BBC6BBD6BBE6BBF6BC06BC16B6F
:102D2000C26BC36BC46BC56BC66BC76BC86BC96B1F
:102D3000CA6BCB6BCC6BCD6BCE6BCF6BD06BD16BCF
:102D4000D26BD36BD46BD56BD66BD76BD86BD96B7F
:102D5000DA6BDB6BDC6BDD6BDE6BDF6BE06BE16B2F
:102D6000E26BE36BE46BE56BE66BE76BE86BE96BDF
:102D7000EA6BEB6BEC6BED6B00012CEF1BF0B2EF31
:102D80001BF0B5EF1BF0E9EF1BF0C00EF212040EC2
:102D90000401696F6951070DF3506B6B6A6F6BC467
:102DA00003F06A510001EBEC10F0006E0900F5CF62
:102DB00001F00900F5CF02F00900F5CF03F003C0E0
:102DC0006FF402C06EF401C06DF4E8CF6CF4E8CF8C
:102DD00070F4010E0401716F0F0E736F890E726F24
:102DE00000013BEC11F00000110E0401696F695104
:102DF000070DF3506B6B6A6F6BC403F06A510001EF
:102E0000EBEC10F0006E0900F5CF01F00900F5CFF2
:102E100002F00900F5CF03F003C06FF402C06EF4B6
:102E200001C06DF4E8CF6CF4E8CF70F4010E04013A
:102E3000716F0F0E736F890E726F00013BEC11F012
:102E4000000000EF28F00301F46B210EF36F030E76
:102E5000F66FF00EF56F0001C4EF29F00301F29157
:102E600001B0F281F2A10BD0F46B210EF36FF1C32C
:102E7000F6F3F0C3F5F30001C1EF32F00301E4D73C
:022E8000FFD77A
:0E2F0200D89004016535036A640F666F010EF6
:102F10000320676F0B0E686F6851070DF3506B6BE2
:102F20006A6F6BC403F06A510001EBEC10F0006EA5
:102F30000900F5CF01F00900F5CF02F00900F5CF47
:102F400003F001C06DF4E8CF6CF404010034006EAE
:102F50000134016E0234016E0334016E0036013615
:102F600001360136FC0E0016C250830B0010C26EF3
:102F7000C2826991C2A2698169B104D06991C2A279
:102F80006981FAD7C2B2FED7C4CF03F0C3CF00F035
:102F9000C4CF01F0026A036A67C4EAFF66C4E9FFAE
:102FA00000C0EFFF01C0ECFF00011200010119BFDA
:102FB000EBD019511619100BD8B484D0000E19B9E2
:102FC000010E0401646F64C465F40C0E676F65C480
:102FD00068F468532EE067C469F46951070DF35033
:102FE0006B6B6A6F6BC403F06A510001EBEC10F07D
:102FF000006E0900F5CF01F00900F5CF02F00900DD
:10300000F5CF03F003C06FF402C06EF401C06DF49D
:10301000E8CF6CF4E8CF70F4010E0401716F0F0E6D
:10302000736F890E726F00013BEC11F0000006D047
:10303000040167C469F400015CEC11F000000401B4
:10304000655302E0000E01D0010E666F0D0E676F32
:1030500066C468F468532EE067C469F46951070DCB
:10306000F3506B6B6A6F6BC403F06A510001EBECB9
:1030700010F0006E0900F5CF01F00900F5CF02F065
:103080000900F5CF03F003C06FF402C06EF401C075
:103090006DF4E8CF6CF4E8CF70F4010E0401716FA9
:1030A0000F0E736F890E726F00013BEC11F0000080
:1030B00006D0040167C469F400015CEC11F0000063
:1030C0000000010104015F9101011931070B0401A6
:1030D000646F010116C100F01631070B0401645D35
:1030E00006E1010119511619200B03E004015F816B
:1030F000010104015FA139D0030E696F00015CEC8E
:1031000011F00401646B6451090802E3642BFBD7DE
:10311000030E696F6951070DF3506B6B6A6F6BC4D7
:1031200003F06A510001EBEC10F0006E0900F5CFDE
:1031300001F00900F5CF02F00900F5CF03F003C05C
:103140006FF402C06EF401C06DF4E8CF6CF4E8CF08
:1031500070F4010E0401716F0F0E736F890E726FA0
:1031600000013BEC11F0000000000101195116199B
:10317000010B0AE0000E19B1010E0401646F656FC6
:10318000000184EC11F00101000133EC12F00401A4
:103190005E6B5E510308D8A0DDD05EC464F4656B3D
:1031A000100E666F686B676B6551400DF3CF69F465
:1031B000400E6A6FD89066356927000E6A23F86A58
:1031C0006AC4F7FF69C4F6FF040EEA6E670EE96E83
:1031D0006C6B020E6B6F000142EC12F00401673D54
:1031E00005D0683D03D0036A000E03D068C403F025
:1031F0006751016E03C002F002C066F401C065F4BD
:1032000066C467F4672B6707D8B406D06869000105
:1032100051EC12F00401F7D765C468F4000151ECD9
:1032200012F064C465F463EC12F00401656B110ED6
:10323000666F686B676B6551400DF3CF69F4400EA4
:103240006A6FD89066356927000E6A23F86A6AC4E7
:10325000F7FF69C4F6FF040EEA6E670EE96E6C6B49
:10326000020E6B6F000142EC12F00401673D05D0C5
:10327000683D03D0036A000E03D068C403F06751B1
:10328000016E03C002F002C066F401C065F466C4BA
:1032900067F4672B6707D8B406D06869000151EC62
:1032A00012F00401F7D765C468F4000151EC12F084
:1032B00064C465F4BAEC12F00401656B120E666F1B
:1032C000686B676B6551400DF3CF69F4400E6A6F10
:1032D000D89066356927000E6A23F86A6AC4F7FF3A
:1032E00069C4F6FF040EEA6E670EE96E6C6B020E9F
:1032F0006B6F000142EC12F00401673D05D0683DA0
:1033000003D0036A000E03D068C403F06751016E56
:1033100003C002F002C066F401C065F466C467F43D
:10332000672B6707D8B406D06869000151EC12F02A
:103330000401F7D765C468F4000151EC12F064C4CD
:1033400065F411EC13F064C465F4DBDD00000401E6
:103350005E2B1FD70A0E686F6851070DF3506B6B19
:103360006A6F6BC403F06A510001EBEC10F0006E61
:103370000900F5CF01F00900F5CF02F00900F5CF03
:1033800003F001C06DF4E8CF6CF404010034006E6A
:103390000134016E0234016E0334016E00360136D1
:1033A00001360136FC0E0016C250830B0010C26EAF
:1033B000C2826991C2A2698169B104D06991C2A235
:1033C0006981FAD7C2B2FED7C4CF03F0C3CF00F0F1
:1033D000C4CF01F0026A036A01C06DF100C06CF154
:1033E000050E686F6851070DF3506B6B6A6F6BC405
:1033F00003F06A510001EBEC10F0006E0900F5CF0C
:1034000001F00900F5CF02F00900F5CF03F001C08B
:103410006DF4E8CF6CF404010034006E0134016EE9
:103420000234016E0334016E003601360136013676
:10343000FC0E0016C250830B0010C26EC28269914E
:10344000C2A2698169B104D06991C2A26981FAD727
:10345000C2B2FED7C4CF03F0C3CF00F0C4CF01F097
:10346000026A036A01C061F400C060F4060E686F6E
:103470006851070DF3506B6B6A6F6BC403F06A51B0
:103480000001EBEC10F0006E0900F5CF01F009002F
:10349000F5CF02F00900F5CF03F001C06DF4E8CFDD
:1034A0006CF404010034006E0134016E0234016ECC
:1034B0000334016E0036013601360136FC0E00166B
:1034C000C250830B0010C26EC2826991C2A2698190
:1034D00069B104D06991C2A26981FAD7C2B2FED79C
:1034E000C4CF03F0C3CF00F0C4CF01F0026A036A77
:1034F00001C063F400C062F46251602501016E6F87
:1035000004016351612101016F6F1BC14BF11AC1AD
:103510004AF11BC118F11AC117F119C116F1F2884D
:10352000132BD8B4142BF29200013CEF10F00301DE
:103530003651362B036A820FE96E020E0320EA6EC3
:10354000AECFEFFF3651B40801E1366B000168EFF2
:1035500013F09EBAECD79D8A9E9A3CEF10F00301BF
:10356000EC51ED5D0FE0ED51ED2B036A380FE96E84
:10357000030E0320EA6EEFCFADFFED51B40801E179
:10358000ED6B01D09D989E9800013CEF10F041C476
:1035900047F440C446F443C449F442C448F4040127
:1035A000455303E14451000830E246C4E9FF47C4F3
:1035B000EAFFEFCF4AF449C403F048C4E9FF49C425
:1035C000EAFFEF504A5D16E047C403F046C4E9FF46
:1035D00047C4EAFFEFCF4AF449C403F048C4E9FF07
:1035E00049C4EAFFEF504A5D02E2FF0E01D0010E2E
:1035F000016E0DD0462BD8B4472B482BD8B4492B9D
:103600004451D8B445074407CBD7000E016E0001E2
:103610001200D08CA69CF6503F0B006EC00EF61622
:103620000A0040C401F0006607D0EECFF5FF01525A
:1036300004E00F00010603D000060B000C003F0E53
:10364000F6143F0AF0E1A6886EEC13F06EEC13F06E
:103650000166E9D7F86A12000301F391196AF2BE14
:10366000198EF29EF86AF76AF66A030EEA6EF40E95
:10367000E96E04016C6B400E6B6F000142EC12F0BE
:1036800019BEF28E04013469356936693769800ED6
:10369000386FEF0E396F130E3A6FF00E3B6F030E5B
:1036A000416FF40E406F040E436F340E426F456B52
:1036B000040E446F00016BDF015210E10301F3813E
:1036C000030EEA6EF40EE96E040EE26E380EE16E41
:1036D000040E016EE6CFEEFF012EFCD7040E0401AE
:1036E0003C6FEF0E3D6F100E3E6FF00E3F6F030EFE
:1036F000416FFC0E406F040E436F3C0E426F456BF2
:10370000040E446F000143DF015210E00301F38116
:10371000030EEA6EFC0EE96E040EE26E3C0EE16EE4
:10372000040E016EE6CFEEFF012EFCD70301F3A1DC
:103730000DD0F86AF76AF66A030EEA6EF40EE96EC7
:10374000400E0401406F000164DF03010001BFEF80
:1037500016F00301366B376BEC6BED6B9D8A000145
:10376000B3EF1BF0F6D7C1EF16F0200E926E0F0EDE
:10377000936EA00E946E000E956E9680968296843F
:103780009696896A8A6A8C6A8D6AC150F00BC16EFE
:10379000200E0F01386F070E3C6F0C0E396F200E94
:1037A0003A6F000E3B6FC050C00B2509C06EC08E33
:1037B000C2800001C3EF16F0016603D0026602D09A
:1037C00007D0022A00C0EEFF012EFCD7022EFAD746
:1037D00012000101146B136B156B010EEA6E460E9D
:1037E000E96E006A026A2A0E016E0001E5DF010E31
:1037F000EA6E1C0EE96E006A026A2A0E016EDCDFB8
:10380000010EEA6E190EE96E006A026A030E016E7D
:10381000D3DF1BC118F11AC117F119C116F1F10E4E
:10382000010116150609166F1689168119BFEBD00E
:1038300019511619100BD8B484D0000E19B9010E05
:103840000401646F64C465F40C0E676F65C468F4AA
:1038500068532EE067C469F46951070DF3506B6B30
:103860006A6F6BC403F06A510001EBEC10F0006E5C
:103870000900F5CF01F00900F5CF02F00900F5CFFE
:1038800003F003C06FF402C06EF401C06DF4E8CF22
:103890006CF4E8CF70F4010E0401716F0F0E736FBA
:1038A000890E726F00013BEC11F0000006D004019C
:1038B00067C469F400015CEC11F000000401655379
:1038C00002E0000E01D0010E666F0D0E676F66C438
:1038D00068F468532EE067C469F46951070DF3502A
:1038E0006B6B6A6F6BC403F06A510001EBEC10F074
:1038F000006E0900F5CF01F00900F5CF02F00900D4
:10390000F5CF03F003C06FF402C06EF401C06DF494
:10391000E8CF6CF4E8CF70F4010E0401716F0F0E64
:10392000736F890E726F00013BEC11F0000006D03E
:10393000040167C469F400015CEC11F000000000B0
:10394000010104015F9101011931070B0401646F4A
:10395000010116C100F01631070B0401645D06E198
:10396000010119511619200B03E004015F810101C7
:1039700004015FA139D0030E696F00015CEC11F006
:103980000401646B6451090802E3642BFBD7030E46
:10399000696F6951070DF3506B6B6A6F6BC403F06D
:1039A0006A510001EBEC10F0006E0900F5CF01F058
:1039B0000900F5CF02F00900F5CF03F003C06FF462
:1039C00002C06EF401C06DF4E8CF6CF4E8CF70F47F
:1039D000010E0401716F0F0E736F890E726F00017B
:1039E0003BEC11F000000000010119511619010B08
:1039F0000AE0000E19B1010E0401646F656F000149
:103A000084EC11F00101000133EC12F004015E6B53
:103A10005E510308D8A0DED05EC464F4656B100E5E
:103A2000666F686B676B6551400DF3CF69F4400EAC
:103A30006A6FD89066356927000E6A23F86A6AC4EF
:103A4000F7FF69C4F6FF040EEA6E670EE96E6C6B51
:103A5000020E6B6F000142EC12F00401673D05D0CD
:103A6000683D03D0036A000E03D068C403F06751B9
:103A7000016E03C002F002C066F401C065F466C4C2
:103A800067F4672B6707D8B406D06869000151EC6A
:103A900012F00401F7D765C468F4000151EC12F08C
:103AA00064C465F463EC12F00401656B110E666F7B
:103AB000686B676B6551400DF3CF69F4400E6A6F18
:103AC000D89066356927000E6A23F86A6AC4F7FF42
:103AD00069C4F6FF040EEA6E670EE96E6C6B020EA7
:103AE0006B6F000142EC12F00401673D05D0683DA8
:103AF00003D0036A000E03D068C403F06751016E5F
:103B000003C002F002C066F401C065F466C467F445
:103B1000672B6707D8B406D06869000151EC12F032
:103B20000401F7D765C468F4000151EC12F064C4D5
:103B300065F4BAEC12F00401656B120E666F686BE7
:103B4000676B6551400DF3CF69F4400E6A6FD890F2
:103B500066356927000E6A23F86A6AC4F7FF69C4EC
:103B6000F6FF040EEA6E670EE96E6C6B020E6B6F69
:103B7000000142EC12F00401673D05D0683D03D01E
:103B8000036A000E03D068C403F06751016E03C0DE
:103B900002F002C066F401C065F466C467F4672BE6
:103BA0006707D8B406D06869000151EC12F004012F
:103BB000F7D765C468F4000151EC12F064C465F4F1
:103BC00011EC13F064C465F481EC17F000000401FB
:103BD0005E2B1ED70A0E686F6851070DF3506B6B92
:103BE0006A6F6BC403F06A510001EBEC10F0006ED9
:103BF0000900F5CF01F00900F5CF02F00900F5CF7B
:103C000003F001C06DF4E8CF6CF404010034006EE1
:103C10000134016E0234016E0334016E0036013648
:103C200001360136FC0E0016C250830B0010C26E26
:103C3000C2826991C2A2698169B104D06991C2A2AC
:103C40006981FAD7C2B2FED7C4CF03F0C3CF00F068
:103C5000C4CF01F0026A036A01C06DF100C06CF1CB
:103C6000050E686F6851070DF3506B6B6A6F6BC47C
:103C700003F06A510001EBEC10F0006E0900F5CF83
:103C800001F00900F5CF02F00900F5CF03F001C003
:103C90006DF4E8CF6CF404010034006E0134016E61
:103CA0000234016E0334016E0036013601360136EE
:103CB000FC0E0016C250830B0010C26EC2826991C6
:103CC000C2A2698169B104D06991C2A26981FAD79F
:103CD000C2B2FED7C4CF03F0C3CF00F0C4CF01F00F
:103CE000026A036A01C061F400C060F4060E686FE6
:103CF0006851070DF3506B6B6A6F6BC403F06A5128
:103D00000001EBEC10F0006E0900F5CF01F00900A6
:103D1000F5CF02F00900F5CF03F001C06DF4E8CF54
:103D20006CF404010034006E0134016E0234016E43
:103D30000334016E0036013601360136FC0E0016E2
:103D4000C250830B0010C26EC2826991C2A2698107
:103D500069B104D06991C2A26981FAD7C2B2FED713
:103D6000C4CF03F0C3CF00F0C4CF01F0026A036AEE
:103D700001C063F400C062F46251602501016E6FFE
:103D800004016351612101016F6F1BC14BF11AC125
:103D90004AF11BC118F11AC117F119C116F1F288C5
:103DA000F18CF2880001C5EF16F08E0E006E39C45A
:103DB00001F038C402F0036A015209E102C001F0C7
:103DC000026A080E005E015202E1006A08D0D89033
:103DD00001BE04D0023601360006F9D7019E12005A
:103DE00004013851D8B471D0006E3C51D8B46DD0B4
:103DF000002604E3810E002668E204D07F0E005EF8
:103E000064E363E039C440F43D51401B398F3D8F7A
:103E10003B513F03F4CF42F43A513E03F4CF03F059
:103E2000F3CF41F43F03F3504227F4504123000EF7
:103E300003223B513E03F3504227F4504123000E2E
:103E4000026A0322022239513F03F3504127F45002
:103E50000322000E022239513E03F3500326F45090
:103E60000222000E016A01223B513D03F35041271B
:103E7000F4500322000E022201223A513D03F35076
:103E80000326F4500222000E012239513D03F35063
:103E90000226F4500122002A01BE05D04137033624
:103EA000023601360006000E41AF0AD0032A022274
:103EB0000122015005E1025003E1035001E1002A13
:103EC00040BF018E40AF019E04D0006A016A026AC1
:103ED000036A000112008E0E006E04013851005E6C
:103EE00039C402F03AC401F0028E005209E0D890C1
:103EF000025202E1015204E002320132002EF7D7F1
:103F000039AF05D0011E021E012AD8B4022A0001D1
:103F1000120004013F51100805E0406F3D373E3765
:103F2000402FFCD7929892968996929489943FC498
:103F300040F48986050E416F412FFED73EAF899828
:103F40003EBF89883D373E37160E416F412FFED761
:103F50008996060E416F412FFED7402FEAD78984FC
:103F60000001DCEF1FF004013E6B026A036A38B106
:103F7000038E02500301EE2504013D6F035003013F
:103F8000EF2104013E6F3A51030B406F3935026E49
:103F90004035036E02360336FC0E021602503D25F4
:103FA0003B6F03503E213C6F3CC43EF43BC43DF4A8
:103FB000100E3F6F0001ADD7120003013751372BB0
:103FC000036A820FE96E020E0320EA6EEFCFFFF361
:103FD0003751B30801E2376BFFC301F00001F9EF7D
:103FE00028F04BC44EF44AC44DF40401506B4CC449
:0E3FF0004FF40001D4EF2AF09D8860EF2BF013
:105000000301EF6BEE6B030E0401696F6951070D2D
:10501000F3506B6B6A6F6BC403F06A510001EBECE9
:1050200010F0006E0900F5CF01F00900F5CF02F095
:105030000900F5CF03F003C06FF402C06EF401C0A5
:105040006DF4E8CF6CF4E8CF70F4010E0401716FD9
:105050000F0E736F890E726F00013BEC11F00000B0
:105060000401336B356B346B35C439F434C438F414
:105070000001D5EC1EF003C03BF402C03AF401C0BD
:1050800039F400C038F4170E04013F6FB70E3E6FBD
:10509000510E3D6F7C0E3C6F0001F0EC1EF003C022
:1050A0003BF402C03AF401C039F400C038F46BECB0
:1050B0001FF002C037F401C036F404013751030871
:1050C00003E2030E376F366933C438F437C43AF459
:1050D00036C439F40001B3EC1FF00000010E0401E6
:1050E000336F356B346B35C439F434C438F4000194
:1050F000D5EC1EF003C03BF402C03AF401C039F411
:1051000000C038F4170E04013F6FB70E3E6F510E0A
:105110003D6F7C0E3C6F0001F0EC1EF003C03BF4D1
:1051200002C03AF401C039F400C038F46BEC1FF04F
:1051300002C037F401C036F404013751030803E21A
:10514000030E376F366933C438F437C43AF436C4C3
:1051500039F40001B3EC1FF00000030E0401696F85
:1051600000015CEC11F00401646B6451090802E376
:10517000642BFBD7030E696F6951070DF3506B6BFE
:105180006A6F6BC403F06A510001EBEC10F0006E23
:105190000900F5CF01F00900F5CF02F00900F5CFC5
:1051A00003F003C06FF402C06EF401C06DF4E8CFE9
:1051B0006CF4E8CF70F4010E0401716F0F0E736F81
:1051C000890E726F00013BEC11F00000000023EF2C
:1051D00017F003013751365D03E1000E016E12D066
:1051E000FCC303F0FBC3FDF3FCC3FEF30001DDEFE2
:1051F0001FF0FEC3EAFFFDC3E9FF01C0EFFF010E90
:10520000016E03010001CDEF29F00401086B096B69
:10521000086B0751085D4FE2036A08510325E96EE8
:1052200004510320EA6EEF507D082BE1082B036A3E
:1052300008510325E96E04510320EA6EEF505E0821
:105240000BE10951092B036A0525E96E065103207C
:10525000EA6E7E0EEF6E14D0036A08510325E96EE4
:1052600004510320EA6EEF505D080AE10951092B51
:10527000036A0525E96E06510320EA6E7D0EEF6E86
:1052800018D00951092B036A0525016E0651032226
:1052900003C00BF4036A08510325E96E045103208F
:1052A000EA6EEFCF0CF40BC4EAFF01C0E9FF0CC4B7
:1052B000EFFF082BAED709C401F0000196EF29F0EB
:1052C0000401566B55C403F05451D8B45507540724
:1052D000586F03C059F4585302E1595315E053C4B1
:1052E00003F05251522BD8B4532BE96E03C0EAFF9E
:1052F000EF505619576F036A5751000163EC10F0D5
:10530000E8CF56F40401DED756C401F000011200C4
:105310000401006BFCC304F4FBC303F4FFC306F4F5
:10532000FEC305F4FDC307F400016FD701C000F40C
:105330000401005303E1FF0E016E23D0010E005D56
:10534000036FFFC353F4FEC352F4556B546F000157
:10535000B7DF01C001F4010E0401005D036A03011F
:10536000FE25E96EFF510320EA6EEFCF02F404013F
:105370000251015D04E1010E005D016E02D0FF0EDD
:10538000016E000100EF2AF00301F791F86B030EA4
:10539000FC6FF90EFB6F00011CD7015201E120D018
:1053A000036A0301F851710FE96E000E0320EA6EE3
:1053B000F9C3EFFF036AF851710FE96E000E032085
:1053C000EA6EEF507E0806E0F82BF851A20801E1E2
:1053D000F86B06D0F851010802E2F78101D0F86BB2
:1053E0000301F7A1D4D7F7A11FD0FC6B710EFB6F9F
:1053F000F8C3FDF3F4C3FFF3F3C3FEF3000188D752
:1054000001C0FAF30301FA51FF0803E1000E016E37
:105410000DD0F5C3E9FFF6C3EAFFEC6AED52FAC31B
:10542000EFFF010E016E02D0000E016E00012EEFA3
:1054300017F00401596B5A6B596B5851595D58E27A
:10544000036A59515425E96E55510320EA6EEF5015
:105450007E0815E15A515A2B036A5625E96E5751B9
:105460000320EA6E7D0EEF6E5A515A2B036A5625C1
:10547000E96E57510320EA6E5E0EEF6E37D0036A75
:1054800059515425E96E55510320EA6EEF507D08BD
:1054900015E15A515A2B036A5625E96E57510320DC
:1054A000EA6E7D0EEF6E5A515A2B036A5625E96E4D
:1054B00057510320EA6E5D0EEF6E18D05A515A2BE9
:1054C000036A5625016E5751032203C05CF4036A38
:1054D00059515425E96E55510320EA6EEFCF5DF422
:1054E0005CC4EAFF01C0E9FF5DC4EFFF592BA5D7FB
:1054F0005AC401F00001120004014F6B506B4BC401
:1055000053F44AC452F4556B4CC454F40001D8DE31
:1055100001C051F4010E04014D25016E000E4E2113
:10552000036E01C052F4536F4BC455F44AC454F493
:10553000576F01C056F44CC458F400017ADF01C023
:105540004FF4010E04014F25036A4D25016E4E51A3
:10555000032201C052F403C053F4040E556F510EE0
:10556000546F03C057F401C056F4010E586F000188
:1055700060DF01C050F404014DC4E9FF4EC4EAFFEE
:105580007E0EEF6E50514F25010F036A4D25E96ED7
:105590004E510320EA6E7E0EEF6E50514F25020FE2
:1055A000016E000154EF2BF0B40ED8800301EC55CE
:1055B0000401516F505303E14F51515D3DE2380EEC
:1055C0000301EC250401526F030E536FD8B0532B27
:1055D00053C4EAFF52C4E9FF4EC4E2FF4DC4E1FFE9
:1055E0005151016E04E0E6CFEEFF012EFCD7515180
:1055F0004F5F000E505B51514D25526F000E4E21F2
:10560000536F030EEA6E380EE96E53C4E2FF52C4C4
:10561000E1FF50C402F04FC401F0015202E0022A3F
:1056200002D0025206E0E6CFEEFF012EFCD7022E9A
:10563000FAD74FC4ECF324D0380E0301EC25040153
:10564000526F030E536FD8B0532B53C4EAFF52C4AA
:10565000E9FF4EC4E2FF4DC4E1FF50C402F04FC465
:1056600001F0015202E0022A02D0025206E0E6CF27
:10567000EEFF012EFCD7022EFAD74F510301EC2783
:105680000301EC51B40801E1EC6B0001FCEF1FF0E9
:1056900045C44BF444C44AF446C44CF404014E6B74
:1056A000710E4D6F000128D70401496B01C048F409
:1056B0004B6B710E4A6F48C44CF40001F1EF1FF0C0
:1056C000120004012F5302E0020E01D0010E336FCD
:1056D00033C465F430C466F4686B676B6551400D84
:1056E000F3CF69F4400E6A6FD89066356927000ED3
:1056F0006A23F86A6AC4F7FF69C4F6FF040EEA6E0B
:10570000670EE96E6C6B020E6B6F000142EC12F0DB
:105710000401673D05D0683D03D0036A000E03D045
:1057200068C403F06751016E03C002F002C032F496
:1057300001C031F4313D04D0323D02D0326B316BC7
:10574000336B32C435F431C434F435C439F434C461
:1057500038F40001D5EC1EF003C03BF402C03AF46B
:1057600001C039F400C038F4170E04013F6FB70EC2
:105770003E6F510E3D6F7C0E3C6F0001F0EC1EF051
:1057800003C03BF402C03AF401C039F400C038F45D
:105790006BEC1FF002C037F401C036F4040137513E
:1057A000030803E2030E376F366933C438F437C495
:1057B0003AF436C439F40001B3EC1FF000000401E0
:1057C0002F5302E0020E01D0010E336F100E302570
:1057D000346F33C465F434C466F4686B676B655129
:1057E000400DF3CF69F4400E6A6FD8906635692793
:1057F000000E6A23F86A6AC4F7FF69C4F6FF040E54
:10580000EA6E670EE96E6C6B020E6B6F000142EC84
:1058100012F00401673D05D0683D03D0036A000E15
:1058200003D068C403F06751016E03C002F002C0E8
:1058300032F401C031F4313D04D0323D02D0326B3C
:10584000316B010E336F32C435F431C434F435C4D6
:1058500039F434C438F40001D5EC1EF003C03BF435
:1058600002C03AF401C039F400C038F4170E040144
:105870003F6FB70E3E6F510E3D6F7C0E3C6F0001C7
:10588000F0EC1EF003C03BF402C03AF401C039F45E
:1058900000C038F46BEC1FF002C037F401C036F4DE
:1058A00004013751030803E2030E376F366933C42E
:1058B00038F437C43AF436C439F40001B3EC1FF0BD
:1058C00000007AEF30F004010091040EEA6E010E40
:1058D000E96EE26E1C0EE16E2A0E016EE6CFEEFF5F
:1058E000012EFCD7FEC32CF4FDC32BF42BC4E9FF1F
:1058F0002CC4EAFFEFBE06D12BC4E9FF2CC4EAFF9B
:10590000EFAC01D0FF00010EEA6E190EE96E2CC457
:10591000E2FF2BC4E1FF030E016EE6CFEEFF012E86
:10592000FCD7010119511619010B69E019A134D0F6
:105930000401656B0B0E666F686B676B6551400DFC
:10594000F3CF69F4400E6A6FD89066356927000E70
:105950006A23F86A6AC4F7FF69C4F6FF040EEA6EA8
:10596000670EE96E6C6B020E6B6F000142EC12F079
:105970000401673D05D0683D03D0036A000E03D0E3
:1059800068C403F06751016E03C002F002C075F1F4
:1059900001C074F133D001010401656B0C0E666F18
:1059A000686B676B6551400DF3CF69F4400E6A6F09
:1059B000D89066356927000E6A23F86A6AC4F7FF33
:1059C00069C4F6FF040EEA6E670EE96E6C6B020E98
:1059D0006B6F000142EC12F00401673D05D0683D99
:1059E00003D0036A000E03D068C403F06751016E50
:1059F00003C002F002C075F101C074F10101193158
:105A0000070B04012D6F010116C100F01631070BC1
:105A100004012D5D06E1010119511619200B73E0F7
:105A2000040100810093010119C100F01931070B35
:105A300003E1040100830101040100A332D0656B7E
:105A40000E0E666F686B676B6551400DF3CF69F49E
:105A5000400E6A6FD89066356927000E6A23F86A8F
:105A60006AC4F7FF69C4F6FF040EEA6E670EE96EBA
:105A70006C6B020E6B6F000142EC12F00401673D8B
:105A800005D0683D03D0036A000E03D068C403F05C
:105A90006751016E03C002F002C073F101C072F1E0
:105AA00031D0656B0D0E666F686B676B6551400D8D
:105AB000F3CF69F4400E6A6FD89066356927000EFF
:105AC0006A23F86A6AC4F7FF69C4F6FF040EEA6E37
:105AD000670EE96E6C6B020E6B6F000142EC12F008
:105AE0000401673D05D0683D03D0036A000E03D072
:105AF00068C403F06751016E03C002F002C073F185
:105B000001C072F10101155301E1CBD2152DC8D2AC
:105B100019BFEBD019511619100BD8B484D0000E50
:105B200019B9010E0401646F64C465F40C0E676F4B
:105B300065C468F468532EE067C469F46951070DC1
:105B4000F3506B6B6A6F6BC403F06A510001EBECAE
:105B500010F0006E0900F5CF01F00900F5CF02F05A
:105B60000900F5CF03F003C06FF402C06EF401C06A
:105B70006DF4E8CF6CF4E8CF70F4010E0401716F9E
:105B80000F0E736F890E726F00013BEC11F0000075
:105B900006D0040167C469F400015CEC11F0000058
:105BA0000401655302E0000E01D0010E666F0D0E78
:105BB000676F66C468F468532EE067C469F469517E
:105BC000070DF3506B6B6A6F6BC403F06A510001F1
:105BD000EBEC10F0006E0900F5CF01F00900F5CFF5
:105BE00002F00900F5CF03F003C06FF402C06EF4B9
:105BF00001C06DF4E8CF6CF4E8CF70F4010E04013D
:105C0000716F0F0E736F890E726F00013BEC11F014
:105C1000000006D0040167C469F400015CEC11F0D7
:105C200000000000010104015F9101011931070B1F
:105C30000401646F010116C100F01631070B040165
:105C4000645D06E1010119511619200B03E00401FE
:105C50005F81010104015FA139D0030E696F00016A
:105C60005CEC11F00401646B6451090802E3642BDD
:105C7000FBD7030E696F6951070DF3506B6B6A6FA9
:105C80006BC403F06A510001EBEC10F0006E0900E8
:105C9000F5CF01F00900F5CF02F00900F5CF03F0D0
:105CA00003C06FF402C06EF401C06DF4E8CF6CF471
:105CB000E8CF70F4010E0401716F0F0E736F890E3F
:105CC000726F00013BEC11F000000000010119515E
:105CD0001619010B0AE0000E19B1010E0401646FE0
:105CE000656F000184EC11F00101000133EC12F04A
:105CF00004015E6B5E510308D8A0DED05EC464F47C
:105D0000656B100E666F686B676B6551400DF3CF66
:105D100069F4400E6A6FD89066356927000E6A23D1
:105D2000F86A6AC4F7FF69C4F6FF040EEA6E670EEC
:105D3000E96E6C6B020E6B6F000142EC12F0040115
:105D4000673D05D0683D03D0036A000E03D068C4E8
:105D500003F06751016E03C002F002C066F401C097
:105D600065F466C467F4672B6707D8B406D0686922
:105D7000000151EC12F00401F7D765C468F400018A
:105D800051EC12F064C465F463EC12F00401656B2D
:105D9000110E666F686B676B6551400DF3CF69F448
:105DA000400E6A6FD89066356927000E6A23F86A3C
:105DB0006AC4F7FF69C4F6FF040EEA6E670EE96E67
:105DC0006C6B020E6B6F000142EC12F00401673D38
:105DD00005D0683D03D0036A000E03D068C403F009
:105DE0006751016E03C002F002C066F401C065F4A1
:105DF00066C467F4672B6707D8B406D068690001EA
:105E000051EC12F00401F7D765C468F4000151ECBD
:105E100012F064C465F4BAEC12F00401656B120E62
:105E2000666F686B676B6551400DF3CF69F4400E88
:105E30006A6FD89066356927000E6A23F86A6AC4CB
:105E4000F7FF69C4F6FF040EEA6E670EE96E6C6B2D
:105E5000020E6B6F000142EC12F00401673D05D0A9
:105E6000683D03D0036A000E03D068C403F0675195
:105E7000016E03C002F002C066F401C065F466C49E
:105E800067F4672B6707D8B406D06869000151EC46
:105E900012F00401F7D765C468F4000151EC12F068
:105EA00064C465F411EC13F064C465F481EC17F07C
:105EB000000004015E2B1ED70A0E686F6851070DA3
:105EC000F3506B6B6A6F6BC403F06A510001EBEC2B
:105ED00010F0006E0900F5CF01F00900F5CF02F0D7
:105EE0000900F5CF03F001C06DF4E8CF6CF40401B4
:105EF0000034006E0134016E0234016E0334016E11
:105F00000036013601360136FC0E0016C250830BF6
:105F10000010C26EC2826991C2A2698169B104D0C7
:105F20006991C2A26981FAD7C2B2FED7C4CF03F089
:105F3000C3CF00F0C4CF01F0026A036A01C06DF163
:105F400000C06CF1050E686F6851070DF3506B6B64
:105F50006A6F6BC403F06A510001EBEC10F0006E45
:105F60000900F5CF01F00900F5CF02F00900F5CFE7
:105F700003F001C06DF4E8CF6CF404010034006E4E
:105F80000134016E0234016E0334016E00360136B5
:105F900001360136FC0E0016C250830B0010C26E93
:105FA000C2826991C2A2698169B104D06991C2A219
:105FB0006981FAD7C2B2FED7C4CF03F0C3CF00F0D5
:105FC000C4CF01F0026A036A01C061F400C060F44A
:105FD000060E686F6851070DF3506B6B6A6F6BC4E8
:105FE00003F06A510001EBEC10F0006E0900F5CFF0
:105FF00001F00900F5CF02F00900F5CF03F001C070
:106000006DF4E8CF6CF404010034006E0134016ECD
:106010000234016E0334016E00360136013601365A
:10602000FC0E0016C250830B0010C26EC282699132
:10603000C2A2698169B104D06991C2A26981FAD70B
:10604000C2B2FED7C4CF03F0C3CF00F0C4CF01F07B
:10605000026A036A01C063F400C062F46251602501
:1060600001016E6F04016351612101016F6F1BC15A
:106070004BF11AC14AF11BC118F11AC117F119C12C
:1060800016F1F288040EEA6E010EE96EE26E1C0E45
:10609000E16E2A0E016EE6CFEEFF012EFCD701D095
:1060A00067D0810E0401016F14C104F413C103F41D
:1060B00016C102F4040E456F010E446F476B2A0EA1
:1060C000466F000148EC2BF0040100A152D0000EF5
:1060D000010119BB010E04012D6F010119C100F06E
:1060E0001931070B04012E6F2DC42FF4306F0001FE
:1060F00061EF2BF00101152D3BD0030E0401696FF8
:1061000000015CEC11F00401646B6451090802E3C6
:10611000642BFBD7030E696F6951070DF3506B6B4E
:106120006A6F6BC403F06A510001EBEC10F0006E73
:106130000900F5CF01F00900F5CF02F00900F5CF15
:1061400003F003C06FF402C06EF401C06DF4E8CF39
:106150006CF4E8CF70F4010E0401716F0F0E736FD1
:10616000890E726F00013BEC11F00000000001018C
:106170000401000112000301FF6B0401006B016BBD
:10618000026B036B890E0301FF6F14C102F413C18C
:1061900001F416C100F415C103F4030E0401456FA8
:1061A0004469476B050E466F000148EC2BF0120066
:1061B0000301FF6B0401006B016B026B036B046B4B
:1061C000056B066B076B820E0301FF6F120E040155
:1061D000006F060E016F070E036FE20E026F010ED5
:1061E000046F0E0E056F656B010E666F686B676B53
:1061F0006551400DF3CF69F4400E6A6FD890663553
:106200006927000E6A23F86A6AC4F7FF69C4F6FFBB
:10621000040EEA6E670EE96E6C6B020E6B6F000186
:1062200042EC12F00401673D05D0683D03D0036ADB
:10623000000E03D068C403F06751016E03C002F082
:1062400002C007F401C006F4030E456F4469476BB2
:10625000090E466F000148EC2BF012000401016B9F
:10626000800E016F040E456F010E446F476B466F41
:10627000000148EC2BF01200FEC300F4FDC3FFF355
:106280000301FF51E96E04010051EA6EEF50010A6B
:10629000000105E0010A04E0020A03E00BD0F298D5
:1062A000F288FFC3E9FF00C4EAFFEFCF15F1010157
:1062B00002D0000102D00001D1DF1200040EEA6E0C
:1062C000070EE96EEF500EE0140E016E006A002E0C
:1062D000FED7012EFBD7BF0E006E002EFED700D0DA
:1062E000EF2EF2D793EF31F0F29CF29EF2BEFDD783
:1062F00004010451400DF350076F400E086FF86A17
:1063000008C4F7FF07C4F6FF06C4EAFF05C4E9FFA7
:10631000406F000109EC1BF0C00EF212010E0401E7
:10632000076F0001CBD7C0EF31F0FEC300F4FDC30F
:10633000FFF301011551020801E024D0FFC3E9FF7A
:10634000040100C4EAFFEF50020802E201011AD082
:10635000FFC3E9FF00C4EAFFEFCF01F4010E030120
:10636000FF25016E000E04010021036E01C002F43E
:10637000036F01C404F4066F01C005F40001B4D733
:106380006DDF01010001120004014451400DF3CF03
:1063900047F4400E486F196AF2BE198EF29EF86AF1
:1063A000F76E47C4F6FF46C4EAFF45C4E9FF6C6BCD
:1063B000400E6B6F000142EC12F019BEF28E48EFF6
:1063C00032F0FEC300F4FDC3FFF3FFC3E9FF040195
:1063D00000C4EAFFEF50020801E266D0016B026BD5
:1063E000036B046B056B066B076B086B096B0A6B21
:1063F0000B6B0C6B0D6B0E6B0F6B106B116B126BD1
:10640000136B146B156B166B176B186B196B1A6B80
:106410001B6B1C6B1D6B1E6B1F6B206B216B226B30
:10642000236B246B256B266B276B286B296B2A6BE0
:106430002B6B2C6B2D6B2E6B2F6B306B316B326B90
:10644000336B346B356B366B376B386B396B3A6B40
:106450003B6B3C6B3D6B3E6B3F6B406B416B426BF0
:10646000850E016FFFC3E9FF040100C4EAFFEFCF0F
:1064700002F4FFC3E9FF040100C4EAFFEFCF43F4D5
:1064800043C444F4040E466F030E456F00017CD7ED
:10649000040E0401456F010E446F476B420E466FB8
:1064A000000148EC2BF0040100011200D7DE1200BD
:1064B0000301FF6B0401006B016B026B036B046B48
:1064C000056B066B076B086B096B0A6B0B6B0C6B30
:1064D0000D6B0E6B0F6B106B116B126B136B146BE0
:1064E000156B166B176B186B196B1A6B1B6B1C6B90
:1064F0001D6B1E6B1F6B206B216B226B236B246B40
:10650000256B266B276B286B296B2A6B2B6B2C6BEF
:106510002D6B2E6B2F6B306B316B326B336B346B9F
:10652000356B366B376B386B396B3A6B3B6B3C6B4F
:106530003D6B3E6B3F6B406B416B426B436B070E99
:106540000301FF6FFDC3E9FFFEC3EAFFEFCF00F0D9
:10655000ECCF01F0ECCF02F0ECCF03F003C003F47A
:1065600002C002F401C001F400C000F4030E0401F3
:10657000456F4469476B450E466F000148EC2BF0B0
:106580001200F4C3F8F3F3C3F7F30301F96BF95105
:1065900007083EE3F951030DF350FB6BFA6F760EDB
:1065A000FA25E96E010EFB21EA6EEFCFFCF3F7C38B
:1065B000E9FFF8C3EAFFEF50FC5D28E1F951030D54
:1065C000F350FB6BFA6F010EFA25016E000EFB21F2
:1065D000036E0150760F016E010E032201C0FAF323
:1065E00003C0FBF3010EF725016E000EF821036EC8
:1065F00001C0FCF3FBC3EAFFFAC3E9FFFE6B01C075
:10660000FDF3000134EC11F003D00301F92BBFD7E7
:0666100000013EEF17F04F
:107F40000000000000000000000000000000000031
:107F50000000000000000000000000000000000021
:107F60000000000000000000000000000000000011
:107F70000000000000000000000000000000000001
:107F800000000000000000000000000000000000F1
:107F900000000000000000000000000000000000E1
:107FA00000000000000000000000000000000000D1
:107FB00000000000000000000000000000000000C1
:107FC00000000000000000000000000000000000B1
:107FD00000000000000000000000000000000000A1
:107FE0000000000000000000000000000000000091
:107FF0000000000000000000000000000000000081
:020000040030CA
:0E00000000F8191C00BF00000FC00FE00F40F9
:00000001FF
;PIC18F45K22
;CRC=B5DE  CREATED="18-Jun-18 18:20"
