:04000000A1EF08F074
:08000800046ED8CF05F0E0CF33
:1000100006F00001E9CF0CF0EACF07F0E1CF08F0DD
:10002000E2CF09F0D9CF0AF0DACF0BF0F3CF12F01C
:10003000F4CF13F0FACF14F0F5CF15F0F6CF16F099
:10004000F7CF17F000C00EF001C00FF002C010F0A3
:1000500003C011F09DAA30EF00F09EBAEAEF00F065
:100060009DA836EF00F09EB801EF01F00EC000F041
:100070000FC001F010C002F011C003F00CC0E9FF86
:1000800007C0EAFF078E08C0E1FF09C0E2FF0AC00F
:10009000D9FF0BC0DAFF12C0F3FF13C0F4FF14C086
:1000A000FAFF15C0F5FF16C0F6FF17C0F7FF0450A2
:1000B00006C0E0FF05C0D8FF1000F76ACA0FF66E51
:1000C000000EF7220900F5501200002F5E71BC935C
:1000D000E2CD57780926EBC4B59AAE81F0DF123D28
:1000E0004C63F9D6A788456A1B34735C2D02CFE0B8
:1000F00091BE240B7A5598B7C6E9DDF283AC614E08
:100100003F108AA5D4FB36196847E6C9B8975A75D7
:10011000042BB19EEFC00D22537C48671639F4DBE7
:10012000AA851F30416EA38CFDD295BACBE4290677
:100130007758C2ED9CB37E51200F3B14654A87A8C7
:10014000D9F66C43321DD0FF8EA1E3CCBD925F7017
:10015000012EB49BEAC5082756794D62133CF1DEA7
:10016000AF801A35446BA689F8D790BFCEE12C0337
:10017000725DC7E899B67B54250A3E11604F82AD87
:10018000DCF369463718D5FA8BA4052A5B74B99657
:10019000E7C8527D0C23EEC1B09FAB84F5DA173867
:1001A0004966FCD3A28D406F1E3176592807CAE5F7
:1001B00094BB210E7F509DB2C3ECD8F786A9644B47
:1001C0003A158FA0D1FE331C6D42ABA202D0AB9882
:1001D000AB88120001017751772B036AC30FE96ED8
:1001E000000E0320EA6EAECFEFFF7751B40801E1B5
:1001F000776B0001EADF9EBAEDD79D8A9E9A36EFB3
:1002000000F002012D512E5D0FE02E512E2B036ABE
:10021000790FE96E010E0320EA6EEFCFADFF2E518C
:10022000B40801E12E6B01D09D989E98000136EF35
:1002300000F0ECCFFAFFED52EFCFE8FFF96E1200BD
:100240008A82FF0E936E69EF0BF0D8B204D0030ED2
:10025000EA6E930EE96E006A016A026A036A03019C
:10026000936B946B956B966B9251911190118F11CA
:100270002CE0200E976FD8908B378C378D378E37C8
:1002800093379437953796379251965D08E191519F
:10029000955D05E19051945D02E18F51935D0FE30F
:1002A0008F51935F9051D8A0903D945F9151D8A009
:1002B000913D955F9251D8A0923D965FD8800036CF
:1002C000013602360336972FD6D793C3EFFF94C378
:1002D000ECFF95C3ECFF96C3ECFF00017CEF0BF045
:1002E000DFC301F0DEC300F00066012A0900F5CF8C
:1002F000EEFF002EFBD7012EF9D7F86A1200F86A3C
:10030000100EF76EF66A020EEA6E310EE96E030108
:10031000DF6B010EDE6F0001E3DF310E016E020EB6
:10032000026E1200010E03018B5F0CE3030EEA6EF6
:100330008B0EE96EEF5006E0040E006E002EFED725
:10034000EF2EFAD700019EEF0BF0D9C3DFF3D8C32D
:10035000DEF3DBC3E1F3DAC3E0F30301DD5303E1D2
:10036000DC51000830E2DEC3E9FFDFC3EAFFEFCF74
:10037000E2F3E1C303F0E0C3E9FFE1C3EAFFEF50BA
:10038000E25D16E0DFC303F0DEC3E9FFDFC3EAFF8F
:10039000EFCFE2F3E1C303F0E0C3E9FFE1C3EAFF1B
:1003A000EF50E25D02E2FF0E01D0010E016E0DD0B2
:1003B000DE2BD8B4DF2BE02BD8B4E12BDC51D8B442
:1003C000DD07DC07CBD7000E016E00011200F250F2
:1003D000036EF29EA68EA6840F01550EA76EAA0E7E
:1003E000A76EA68200000350F21200011200D08C0A
:1003F000A69CF6503F0B006EC00EF6160A00E4C332
:1004000001F0006607D0EECFF5FF015204E00F00C7
:10041000010603D000060B000C003F0EF6143F0A45
:10042000F0E1A688D4DFD3DF0166EBD7F86A1200CB
:10043000030EEA6EE40EE96EEF500EE0140E016E4C
:10044000006A002EFED7012EFBD7BF0E006E002ED5
:10045000FED700D0EF2EF2D71200A10E03018B6F52
:10046000EF0E8C6F080E8D6FF00E8E6F040E8F6F77
:100470006E0E906FD80E916FCF0E926FD391F86A77
:10048000F76AF66A030EEA6E930EE96EDF6B400EB2
:10049000DE6F000125DF030E0301D96F930ED86FC5
:1004A000030EDB6F8B0EDA6FDD6B040EDC6F000169
:1004B0004CDF015210E00301D381030EEA6E930E6C
:1004C000E96E030EE26E8B0EE16E040E016EE6CF56
:1004D000EEFF012EFCD7030E0301D96F9B0ED86FE0
:1004E000030EDB6F8F0EDA6FDD6B040EDC6F000125
:1004F0002CDF015210E00301D381030EEA6E9B0E44
:10050000E96E030EE26E8F0EE16E040E016EE6CF11
:10051000EEFF012EFCD70301D3A117D0F29CF29E6F
:10052000F2BEFDD7F86AF76AF66A030EEA6E930E1A
:10053000E96E400EE46F00015ADFC00EF212010EA8
:100540000301E46F000174DF03010001A6EF0BF06B
:100550000101776B786B02012D6B2E6B9D8A000178
:10056000B3EF02F0F5D7A8EF0BF0016603D00266F7
:1005700002D007D0022A00C0EEFF012EFCD7022EC7
:10058000FAD7C0EF03F001017851782B036AC30F4B
:10059000E96E000E0320EA6EEFCF9AF3030101012A
:1005A0007851B30801E2786B03019AC301F00001AE
:1005B000E9EF02F001017851775D03E1000E016E71
:1005C00011D097C303F096C398F397C399F3000132
:1005D000DAD799C3EAFF98C3E9FF01C0EFFF010E24
:1005E000016E01010001C7EF03F0ECEF03F003011E
:1005F000A36BA46BA36BA251A35D4FE2036AA3514B
:100600009E25E96E9F510320EA6EEF507D082BE195
:10061000A32B036AA3519E25E96E9F510320EA6E26
:10062000EF505E080BE1A451A42B036AA025E96EEC
:10063000A1510320EA6E7E0EEF6E14D0036AA3511F
:100640009E25E96E9F510320EA6EEF505D080AE196
:10065000A451A42B036AA025E96EA1510320EA6EE0
:100660007D0EEF6E18D0A451A42B036AA025016E55
:10067000A151032203C0A6F3036AA3519E25E96E8C
:100680009F510320EA6EEFCFA7F3A6C3EAFF01C094
:10069000E9FFA7C3EFFFA32BAED7A4C301F000016E
:1006A00087EF03F00301F06BEFC303F0EE51D8B412
:1006B000EF07EE07F26F03C0F3F3F25302E1F353D7
:1006C00014E0EDC303F0EC51EC2BD8B4ED2BE96E44
:1006D00003C0EAFFEF50F019F16F036AF151000116
:1006E000ECDCE8CFF0F30301DFD7F0C301F0000149
:1006F000120003019B6B97C39FF396C39EF39AC3AB
:10070000A1F399C3A0F398C3A2F3000170D701C06D
:100710009BF303019B5303E1FF0E016E21D0010EF9
:100720009B5D9E6F9AC3EDF399C3ECF3EF6BEE6F95
:100730000001B8DF01C09CF3010E03019B5D036A59
:100740009925E96E9A510320EA6EEFCF9DF39D51F2
:100750009C5D04E1010E9B5D016E02D0FF0E016EF7
:100760000001FEEF03F003019291936B00012DDD78
:10077000EA6A210EE96E006A026AA20E016EF5D6DF
:10078000030E0301976F940E966F000113D7015269
:1007900003E11BDD2AD720D0036A03019351210F07
:1007A000E96E000E0320EA6E94C3EFFF036A9351D3
:1007B000210FE96E000E0320EA6EEF507E0806E07E
:1007C000932B9351A20801E1936B06D0935101083A
:1007D00002E2928101D0936B030192B102D0000139
:1007E000CFD792A11FD0976B210E966F93C398F32A
:1007F0008FC39AF38EC399F300017BD701C095F3A1
:1008000003019551FF0803E1000E016E0DD090C366
:10081000E9FF91C3EAFFEC6AED5295C3EFFF010EC9
:10082000016E02D0000E016E00019DEF07F0030E75
:10083000EA6EA40EE96EA3C3E2FFA2C3E1FFE6CF16
:10084000EEFFF29CF29EF2BEFDD7F86A100EF76E34
:10085000F66A030EEA6EA40EE96E400E0301E46F21
:100860000001C5DDC00EF212010E0301E46F0001AC
:10087000DFDD120044DD02C0A1F301C0A0F30301DB
:10088000A1C303F0A0C3A2F3A1C3A3F39F51FF0A26
:10089000016EE8B006D0A3C3EAFFA2C3E9FFEF9060
:1008A00005D0A3C3EAFFA2C3E9FFEF80A1C3A3F36E
:1008B000A0C3A2F30001BBDF12000301F36BF46BD2
:1008C000F36BF251F35D58E2036AF351EE25E96EE2
:1008D000EF510320EA6EEF507E0815E1F451F42B3E
:1008E000036AF025E96EF1510320EA6E7D0EEF6E8A
:1008F000F451F42B036AF025E96EF1510320EA6EFE
:100900005E0EEF6E37D0036AF351EE25E96EEF51BC
:100910000320EA6EEF507D0815E1F451F42B036AD1
:10092000F025E96EF1510320EA6E7D0EEF6EF45171
:10093000F42B036AF025E96EF1510320EA6E5D0E97
:10094000EF6E18D0F451F42B036AF025016EF151CB
:10095000032203C0F6F3036AF351EE25E96EEF516B
:100960000320EA6EEFCFF7F3F6C3EAFF01C0E9FF19
:10097000F7C3EFFFF32BA5D7F4C301F0000112007A
:100980000301E96BEA6BE5C3EDF3E4C3ECF3EF6B52
:10099000E6C3EEF3000186DE01C0EBF3010E0301B6
:1009A000E725016E000EE821036E01C0ECF3ED6F48
:1009B000E5C3EFF3E4C3EEF3F16F01C0F0F3E6C378
:1009C000F2F300017ADF01C0E9F3010E0301E9252A
:1009D000036AE725016EE851032201C0ECF303C06E
:1009E000EDF3030EEF6FEB0EEE6F03C0F1F301C0FA
:1009F000F0F3010EF26F000160DF01C0EAF30301C2
:100A0000E7C3E9FFE8C3EAFF7E0EEF6EEA51E9258E
:100A1000010F036AE725E96EE8510320EA6E7E0EB6
:100A2000EF6EEA51E925020F016E0001A5EF05F016
:100A3000B40ED88002012D550301EB6FEA5303E198
:100A4000E951EB5D3DE2790E02012D250301EC6FCA
:100A5000010EED6FD8B0ED2BEDC3EAFFECC3E9FF5B
:100A6000E8C3E2FFE7C3E1FFEB51016E04E0E6CF2C
:100A7000EEFF012EFCD7EB51E95F000EEA5BEB5174
:100A8000E725EC6F000EE821ED6F010EEA6E790E9E
:100A9000E96EEDC3E2FFECC3E1FFEAC302F0E9C394
:100AA00001F0015202E0022A02D0025206E0E6CF33
:100AB000EEFF012EFCD7022EFAD7E9C32DF224D087
:100AC000790E02012D250301EC6F010EED6FD8B0F8
:100AD000ED2BEDC3EAFFECC3E9FFE8C3E2FFE7C398
:100AE000E1FFEAC302F0E9C301F0015202E0022A89
:100AF00002D0025206E0E6CFEEFF012EFCD7022E16
:100B0000FAD7E95102012D2702012D51B40801E164
:100B10002D6B000196EF05F0E5C3E8F3E4C3E7F3BE
:100B20000301EA6BE6C3E9F3000182D79D88B0EFC9
:100B300005F0DFC3E5F3DEC3E4F3E0C3E6F303014E
:100B4000E86B210EE76F00011BD70301E36B01C0C7
:100B5000E2F3E56B210EE46FE2C3E6F30001DCD7BC
:100B6000120096C398F395C397F30301996B9A6BA0
:100B70009B6B9C6B9D6B9E6B860E996F97C3E9FF79
:100B800098C3EAFFEFCF00F0ECCF01F0ECCF02F01A
:100B9000ECCF03F003C09DF302C09CF301C09BF3B4
:100BA00000C09AF39E6B97C3E9FF98C3EAFFEFCFAB
:100BB0009FF3ECCFA0F3ECCFA1F3ECCFA2F3A253C1
:100BC00005E1A15303E1A0513F0814E297C3E9FFF7
:100BD00098C3EAFFEFCF9FF3ECCFA0F3ECCFA1F3E4
:100BE000ECCFA2F3A25306E1A15304E1A0514F08B8
:100BF000D8B072D097C3E9FF98C3EAFFEFCF9FF355
:100C0000ECCFA0F3ECCFA1F3ECCFA2F3A25305E11C
:100C1000A15303E1A0511F085FE297C3E9FF98C306
:100C2000EAFFEFCF9FF3ECCFA0F3ECCFA1F3ECCF33
:100C3000A2F3A25351E1A1534FE1A051FF084CE3AD
:100C400003E19F51FE0848E300017FEC01F002C080
:100C5000A0F301C09FF3030101C0E9FF02C0EAFF56
:100C6000EFB004D09F6B000105DE0301F29CF29E01
:100C7000F2BEFDD79751E96E9851EA6EEFCF9FF320
:100C8000ECCFA0F3ECCFA1F3ECCFA2F3ED52ED52F9
:100C9000ED52040E9725016E000E9821036E01504F
:100CA000A36F03C0A4F3A1C3F8FFA0C3F7FF9FC3C2
:100CB000F6FFA4C3EAFFA3C3E9FF400EE46F0001FF
:100CC000F7EC01F0C00EF212010E0301E46F000117
:100CD00018EC02F007D00301040E006E002EFED7C0
:100CE00000D00000030E0301DF6F990EDE6FE16B91
:100CF000060EE06F00011DDF120096C398F395C346
:100D000097F30301996B9A6B9B6B9C6B9D6B9E6B2E
:100D10009F6BA06BA16BA26BA36BA46BA56BA66B67
:100D2000A76BA86BA96BAA6BAB6BAC6BAD6BAE6B17
:100D3000AF6BB06BB16BB26BB36BB46BB56BB66BC7
:100D4000B76BB86BB96BBA6BBB6BBC6BBD6BBE6B77
:100D5000BF6BC06BC16BC26BC36BC46BC56BC66B27
:100D6000C76BC86BC96BCA6BCB6BCC6BCD6BCE6BD7
:100D7000CF6BD06BD16BD26BD36BD46BD56BD66B87
:100D8000D76BD86BD96BDA6BDB6BDC6BDD6B870EEB
:100D9000996F97C3E9FF98C3EAFFEFCF00F0ECCF5C
:100DA00001F0ECCF02F0ECCF03F003C09DF302C0E2
:100DB0009CF301C09BF300C09AF3F86A9BC3F7FF52
:100DC0009AC3F6FF030EEA6E9E0EE96EDF6B400ECD
:100DD000DE6F000170EC01F0030E0301DF6F990E6E
:100DE000DE6FE16B450EE06F0001A3DE1200030130
:100DF000976B986B996B9A6B9B6B9C6B9D6B9E6BC7
:100E00009F6B820E976F160E986F0C0E996F070EE0
:100E10009B6FE10E9A6F0B0E9C6F040E9D6F9F6B84
:100E20009E6B030EDF6F970EDE6FE16B090EE06FB6
:100E300000017FDE12007FEC01F002C099F301C0D7
:100E400098F3030198C3E9FF99C3EAFFEF8299C3BE
:100E5000A3F398C3A2F30001EADC36EF07F0030125
:100E6000976B010E9F6F000105DDE5D7800E030132
:100E7000976F030EDF6F970EDE6FE16B010EE06F71
:100E8000000157DE1200020E0301946F3E0E94C360
:100E90008FF38E6F906B9051030841E39051030DD7
:100EA000F350946B936F320E9325E96E020E9421EA
:100EB000EA6EEFCF95F38EC3E9FF8FC3EAFFEF50E1
:100EC000955D2BE18FC392F38EC391F3010E9127B1
:100ED000000E92239051030DF350946B936F010E0B
:100EE0009325016E000E9421036E0150320FE96EBE
:100EF000020E0320EA6EECCF94F3ED52EFCF93F3A2
:100F0000030EEA6E930EE96E92C396F391C395F3C6
:100F1000000119EC01F003D00301902BBCD70001B4
:100F2000A5EF07F0020E03018F6F3E0E8E6F030ECA
:100F3000916F8B0E906F000116D403018D9101B05B
:100F40008D818DA102D000019ED70001EBD7ACEFBF
:10100000FEFFFFFFFFFFFFFFFFFFFFFFFFFFFFFFF1
:040F50000BF0120090
:0E114200F86AD09E078EEA6AE96A700ED36ED4
:101150009B8C9B9E1A6AB886100EAF6E000EB06E06
:10116000A60EAC6E900EAB6E1E6A1D6A1C6A1B6AE0
:10117000350ECD6ECC6ACF6ACE6A9E9092989296CA
:10118000899692948994700ED36E9B8C9B9ED36E9D
:101190009B8C9B9ED36E9B8C9B9ED36E9B8C9B9EAD
:1011A0000301816980697F697E69C150F00BC16E5E
:1011B000000E0F01386F3C6F396F3A6F3B6F0101C2
:1011C000886B776A786A796A1F6A206A216A226A5C
:1011D000236A246A256A266A276A286A296A2A6A8B
:1011E0002B6A2C6A2D6A2E6A2F6A306A316A326A3B
:1011F000336A346A356A366A376A386A396A3A6AEB
:101200003B6A3C6A3D6A3E6A3F6A406A416A426A9A
:10121000436A446A456A466A476A486A496A4A6A4A
:101220004B6A4C6A4D6A4E6A4F6A506A516A526AFA
:10123000536A546A556A566A576A586A596A5A6AAA
:101240005B6A5C6A5D6A5E6A5F6A0001606B616B23
:10125000626B636B646B656B666B676B686B696B0A
:101260006A6B6B6B6C6B6D6B6E6B6F6B706B716BBA
:10127000726B736B746B756B766B776B786B796B6A
:101280007A6B7B6B7C6B7D6B7E6B7F6B806B816B1A
:10129000826B836B846B856B866B876B886B896BCA
:1012A0008A6B8B6B8C6B8D6B8E6B8F6B906B916B7A
:1012B000926B936B946B956B966B976B986B996B2A
:1012C0009A6B9B6B9C6B9D6B9E6B9F6BA06BA16BDA
:1012D000A26BA36BA46BA56BA66BA76BA86BA96B8A
:1012E000AA6BAB6BAC6BAD6BAE6BAF6BB06BB16B3A
:1012F000B26BB36BB46BB56BB66BB76BB86BB96BEA
:10130000BA6BBB6BBC6BBD6BBE6BBF6BC06BC16B99
:10131000C26BC36BC46BC56BC66BC76BC86BC96B49
:10132000CA6BCB6BCC6BCD6BCE6BCF6BD06BD16BF9
:10133000D26BD36BD46BD56BD66BD76BD86BD96BA9
:10134000DA6BDB6BDC6BDD6BDE6BDF6BE06BE16B59
:10135000E26BE36BE46BE56BE66BE76BE86BE96B09
:10136000EA6BEB6BEC6BED6BEE6BEF6BF06BF16BB9
:10137000F26BF36BF46BF56BF66BF76BF86BF96B69
:10138000FA6BFB6BFC6BFD6BFE6BFF6B0101006B83
:10139000016B026B036B046B056B066B076B086BD1
:1013A000096B0A6B0B6B0C6B0D6B0E6B0F6B106B81
:1013B000116B126B136B146B156B166B176B186B31
:1013C000196B1A6B1B6B1C6B1D6B1E6B1F6B206BE1
:1013D000216B226B236B246B256B266B276B286B91
:1013E000296B2A6B2B6B2C6B2D6B2E6B2F6B306B41
:1013F000316B326B336B346B356B366B376B386BF1
:10140000396B3A6B3B6B3C6B3D6B3E6B3F6B406BA0
:10141000416B426B436B446B456B466B476B486B50
:10142000496B4A6B4B6B4C6B4D6B4E6B4F6B506B00
:10143000516B526B536B546B556B566B576B586BB0
:10144000596B5A6B5B6B5C6B5D6B5E6B5F6B606B60
:10145000616B626B636B646B656B666B676B686B10
:10146000696B6A6B6B6B6C6B6D6B6E6B6F6B706BC0
:10147000716B726B736B746B756B766B776B786B70
:10148000796B7A6B7B6B7C6B7D6B7E6B7F6B806B20
:10149000816B826B836B846B856B866B876B886BD0
:1014A000896B8A6B8B6B8C6B8D6B8E6B8F6B906B80
:1014B000916B926B936B946B956B966B976B986B30
:1014C000996B9A6B9B6B9C6B9D6B9E6B9F6BA06BE0
:1014D000A16BA26BA36BA46BA56BA66BA76BA86B90
:1014E000A96BAA6BAB6BAC6BAD6BAE6BAF6BB06B40
:1014F000B16BB26BB36BB46BB56BB66BB76BB86BF0
:10150000B96BBA6BBB6BBC6BBD6BBE6BBF6BC06B9F
:10151000C16BC26BC36BC46BC56BC66BC76BC86B4F
:10152000C96BCA6BCB6BCC6BCD6BCE6BCF6BD06BFF
:10153000D16BD26BD36BD46BD56BD66BD76BD86BAF
:10154000D96BDA6BDB6BDC6BDD6BDE6BDF6BE06B5F
:10155000E16BE26BE36BE46BE56BE66BE76BE86B0F
:10156000E96BEA6BEB6BEC6BED6BEE6BEF6BF06BBF
:10157000F16BF26BF36BF46BF56BF66BF76BF86B6F
:10158000F96BFA6BFB6BFC6BFD6BFE6BFF6B020187
:10159000006B016B026B036B046B056B066B076BD7
:1015A000086B096B0A6B0B6B0C6B0D6B0E6B0F6B87
:1015B000106B116B126B136B146B156B166B176B37
:1015C000186B196B1A6B1B6B1C6B1D6B1E6B1F6BE7
:1015D000206B216B226B236B246B256B266B276B97
:1015E000286B296B2A6B2B6B2C6B2D6B2E6B2F6B47
:1015F000306B316B060E326F0B0E346F620E336F31
:10160000070E356F0C0E376FFA0E366F020E386FFD
:101610000D0E3A6FEE0E396F080E3B6F0E0E3D6FDA
:101620005E0E3C6F3E6B3F6B406B416B426B436B9E
:10163000446B456B466B476B486B496B4A6B4B6B16
:101640004C6B4D6B4E6B4F6B506B516B526B536BC6
:10165000546B556B566B576B586B596B5A6B5B6B76
:101660005C6B5D6B5E6B5F6B606B616B626B636B26
:10167000646B656B666B676B686B696B6A6B6B6BD6
:101680006C6B6D6B6E6B6F6B706B716B726B736B86
:10169000746B756B766B776B786B796B7A6B7B6B36
:1016A0007C6B7D6B7E6B7F6B806B816B826B836BE6
:1016B000846B856B866B876B886B896B8A6B8B6B96
:1016C0008C6B8D6BF29CF29EF2BEFDD7000120EF79
:1016D00001F0100E0301826FD8928E6B070E8D6F92
:1016E000A10E8C6F200E8B6F926B916B906B82C3EF
:1016F0008FF3000125EF01F000C083F30301848123
:1017000000017FEC01F002C086F301C085F3030104
:1017100085C3E9FF86C3EAFFEFB013D0876B83511F
:10172000875D0FE2886B81B2882B882D02D084916F
:1017300008D082C38BF3000192EF01F00301872BE5
:10174000EED784A10ED000012DEF02F0B2EF02F02F
:10175000C00EF21292EF07F0000E016E14D013D0FB
:1017600003010F0E036E520E896F03C08AF3270E1A
:101770008A6F896B030EEA6E890EE96E000119EC1F
:0817800001F0000E016EFFD71D
:0420000080EF13F06A
:08200800046ED8CF05F0E0CF13
:1020100006F00001E9CF0CF0EACF07F0E1CF08F0BD
:10202000E2CF09F0D9CF0AF0DACF0BF0F3CF12F0FC
:10203000F4CF13F0FACF14F0F5CF15F0F6CF16F079
:10204000F7CF17F000C00EF001C00FF002C010F083
:1020500003C011F0F2A830EF10F0F2B2D2EF18F096
:102060009DAA36EF10F09EBA61EF13F09DA83CEFE9
:1020700010F09EB8E2EF1AF00EC000F00FC001F0B1
:1020800010C002F011C003F00CC0E9FF07C0EAFF66
:10209000078E08C0E1FF09C0E2FF0AC0D9FF0BC0EC
:1020A000DAFF12C0F3FF13C0F4FF14C0FAFF15C02B
:1020B000F5FF16C0F6FF17C0F7FF045006C0E0FF9B
:1020C00005C0D8FF1000F76AD60FF66E200EF72273
:1020D0000900F5501200002F5E71BC93E2CD5778D5
:1020E0000926EBC4B59AAE81F0DF123D4C63F9D6F8
:1020F000A788456A1B34735C2D02CFE091BE240B88
:102100007A5598B7C6E9DDF283AC614E3F108AA5D7
:10211000D4FB36196847E6C9B8975A75042BB19EA7
:10212000EFC00D22537C48671639F4DBAA851F30B7
:10213000416EA38CFDD295BACBE429067758C2ED47
:102140009CB37E51200F3B14654A87A8D9F66C4397
:10215000321DD0FF8EA1E3CCBD925F70012EB49BE7
:10216000EAC5082756794D62133CF1DEAF801A3577
:10217000446BA689F8D790BFCEE12C03725DC7E807
:1021800099B67B54250A3E11604F82ADDCF3694657
:102190003718D5FA8BA4052A5B74B996E7C8527D27
:1021A0000C23EEC1B09FAB84F5DA17384966FCD337
:1021B000A28D406F1E3176592807CAE594BB210EC7
:1021C0007F509DB2C3ECD8F786A9644B3A158FA017
:1021D000D1FE331C6D42F76AE60FF66E210EF72230
:1021E0000900F5501200037C0000014441027C000C
:1021F00000014441047C0000014441017C000001D5
:102200004441107C0000014C650800000002504170
:10221000090000000250410500000002464604008B
:102220000000025252070000000252460600000061
:1022300002544D110000000250521F7C0000014169
:102240004E1E7C000001414E0C7C00000154580DD4
:102250007C0000015458187C00000154581D7C007B
:10226000000135565F454E00ECCFFAFFED52EFCF3F
:10227000E8FFF96E120004017151070B006E713115
:10228000016E013201321F0E011601507325E96EF5
:10229000000E7421EA6E016A012A002A01D001367B
:1022A000002EFDD7725303E00150EF1203D0011E40
:1022B0000150EF160001120004016A51070DF3509E
:1022C0006C6B6B6F6CC403F06B51000184DF006EAC
:1022D0000900F5CF01F00900F5CF02F00900F5CFB4
:1022E00003F003C070F402C06FF401C06EF4E8CFD5
:1022F0006DF4E8CF71F40401726B0F0E746F890EE8
:10230000736F0001B8DF12000E0E0401686F66C41F
:1023100069F469532CE068C46AF46A51070DF350FC
:102320006C6B6B6F6CC403F06B51000154DF006E7B
:102330000900F5CF01F00900F5CF02F00900F5CF53
:1023400003F003C070F402C06FF401C06EF4E8CF74
:102350006DF4E8CF71F4010E0401726F0F0E746F0B
:10236000890E736F000187DF000005D0040168C487
:102370006AF40001A1DF00000F0E0401686F66C45B
:1023800069F469532CE068C46AF46A51070DF3508C
:102390006C6B6B6F6CC403F06B5100011CDF006E43
:1023A0000900F5CF01F00900F5CF02F00900F5CFE3
:1023B00003F003C070F402C06FF401C06EF4E8CF04
:1023C0006DF4E8CF71F4010E0401726F0F0E746F9B
:1023D000890E736F00014FDF000005D0040168C44F
:1023E0006AF4000169DF00000401665302E0000E98
:1023F00001D0010E676F100E686F67C469F46953EE
:102400002CE068C46AF46A51070DF3506C6B6B6F73
:102410006CC403F06B510001DEDE006E0900F5CFE5
:1024200001F00900F5CF02F00900F5CF03F003C079
:1024300070F402C06FF401C06EF4E8CF6DF4E8CF21
:1024400071F4010E0401726F0F0E746F890E736FB9
:10245000000111DF000005D0040168C46AF4000126
:102460002BDF00001200010EEA6E1C0EE96E010E59
:10247000E26E410EE16E250E016EE6CFEEFF012EFB
:10248000FCD712006DC401F06CC400F00066012A94
:102490000900F5CFEEFF002EFBD7012EF9D7F86A21
:1024A0001200010E0401695F0CE3040EEA6E690E6E
:1024B000E96EEF5006E0040E006E002EFED7EF2E00
:1024C000FAD700011200D89004016635036A460F5E
:1024D000016E010E03220150676F03C068F4070EFE
:1024E000696F6951070DF3506B6B6A6F6BC403F032
:1024F0006A51000170DE006E0900F5CF01F009009D
:10250000F5CF02F00900F5CF03F001C06DF4E8CF7C
:102510006CF404010034006E0134016E0234016E6B
:102520000334016E0036013601360136FC0E00160A
:10253000C250830B0010C26E6A0E006E002EFED7D2
:102540000000C282C2B2FED7C4CF03F0C3CF00F0F6
:10255000C4CF01F0026A036A68C4EAFF67C4E9FFF6
:1025600000C0EFFF01C0ECFF00011200D890040191
:102570006635036A4E0F016E010E03220150676F2C
:1025800003C068F4080E696F6951070DF3506B6B57
:102590006A6F6BC403F06A5100011DDE006E090012
:1025A000F5CF01F00900F5CF02F00900F5CF03F0F7
:1025B00001C06DF4E8CF6CF404010034006E013406
:1025C000016E0234016E0334016E003601360136AD
:1025D0000136FC0E0016C250830B0010C26E6A0E4C
:1025E000006E002EFED70000C282C2B2FED7C4CF5A
:1025F00003F0C3CF00F0C4CF01F0026A036A68C4DD
:10260000EAFF67C4E9FF00C0EFFF01C0ECFF000173
:102610001200D89004016635036A560F016E010E50
:1026200003220150676F03C068F4090E696F695196
:10263000070DF3506B6B6A6F6BC403F06A510001B6
:10264000CADD006E0900F5CF01F00900F5CF02F0F8
:102650000900F5CF03F001C06DF4E8CF6CF404017C
:102660000034006E0134016E0234016E0334016ED9
:102670000036013601360136FC0E0016C250830BBF
:102680000010C26E6A0E006E002EFED70000C282DD
:10269000C2B2FED7C4CF03F0C3CF00F0C4CF01F065
:1026A000026A036A68C4EAFF67C4E9FF00C0EFFF7B
:1026B00001C0ECFF00011200ABA202D0AB98AB88C6
:1026C000120003013451342B036A800FE96E020EAD
:1026D0000320EA6EAECFEFFF3451B40801E1346B52
:1026E0000001EADF9EBAEDD79D8A9E9A3CEF10F07A
:0E26F000EAEF1BF0B9EF16F0F7EC2BF012003A
:10270000F86AD09E078EEA6AE96A700ED36E9B8CD7
:102710009B9E1A6AB886100EAF6E000EB06EA60EA3
:10272000AC6E900EAB6E1E6A1D6A1C6A1B6A350E7B
:10273000CD6ECC6ACF6ACE6A9E9092989296899618
:1027400092948994700ED36E9B8C9B9E01016C6B4E
:102750006B6B6E6B6D6B706B6F6BD36E9B8C9B9E9C
:10276000D36E9B8C9B9E02017F697E697D697C692B
:10277000D36E9B8C9B9ED36E9B8C9B9EC150F00B0B
:10278000C16E000E0F01386F3C6F396F3A6F3B6FAF
:102790000101886B776A786A796A1F6A206A216A00
:1027A000226A236A246A256A266A276A286A296AAD
:1027B0002A6A2B6A2C6A2D6A2E6A2F6A306A316A5D
:1027C000326A336A346A356A366A376A386A396A0D
:1027D0003A6A3B6A3C6A3D6A3E6A3F6A406A416ABD
:1027E000426A436A446A456A466A476A486A496A6D
:1027F0004A6A4B6A4C6A4D6A4E6A4F6A506A516A1D
:10280000526A536A546A556A566A576A586A596ACC
:102810005A6A5B6A5C6A5D6A5E6A5F6A0001606B45
:10282000616B626B636B646B656B666B676B686B2C
:10283000696B6A6B6B6B6C6B6D6B6E6B6F6B706BDC
:102840001F6A206A716B726B736B746B756B766B3E
:10285000776B786B796B7A6B7B6B7C6B7D6B7E6B4C
:102860007F6B806B816B826B836B846B856B866BFC
:10287000876B886B896B8A6B8B6B8C6B8D6B8E6BAC
:102880008F6B906B916B926B936B946B956B966B5C
:10289000976B986B996B9A6B9B6B9C6B9D6B9E6B0C
:1028A0009F6BA06BA16BA26BA36BA46BA56BA66BBC
:1028B000A76BA86BA96BAA6BAB6BAC6BAD6BAE6B6C
:1028C000AF6BB06BB16BB26BB36BB46BB56BB66B1C
:1028D000B76BB86BB96BBA6BBB6BBC6BBD6BBE6BCC
:1028E000BF6BC06BC16BC26BC36BC46BC56BC66B7C
:1028F000C76BC86BC96BCA6BCB6BCC6BCD6BCE6B2C
:10290000CF6BD06BD16BD26BD36BD46BD56BD66BDB
:10291000D76BD86BD96BDA6BDB6BDC6BDD6BDE6B8B
:10292000DF6BE06BE16BE26BE36BE46BE56BE66B3B
:10293000E76BE86BE96BEA6BEB6BEC6BED6BEE6BEB
:10294000EF6BF06BF16BF26BF36BF46BF56BF66B9B
:10295000F76BF86BF96BFA6BFB6BFC6BFD6BFE6B4B
:10296000FF6B0101006B016B026B036B046B056B6A
:10297000066B076B086B096B0A6B0B6B0C6B0D6BB3
:102980000E6B0F6B106B116B126B136B146B156B63
:102990001C6B1D6B1E6B1F6B206B216B226B236BE3
:1029A000246B256B266B276B286B296B2A6B2B6B93
:1029B0002C6B2D6B2E6B2F6B306B316B326B336B43
:1029C000346B356B366B376B386B396B3A6B3B6BF3
:1029D0003C6B3D6B3E6B3F6B406B416B426B436BA3
:1029E000446B456B466B476B486B496B4A6B4B6B53
:1029F0004C6B4D6B4E6B4F6B506B516B526B536B03
:102A0000546B556B566B576B586B596B5A6B5B6BB2
:102A10005C6B5D6B5E6B5F6B606B616B626B636B62
:102A2000646B656B716B580E736F0C0E726F010ED9
:102A3000746F5E0E766FD40E756F090E776F650E2C
:102A4000796F560E786F020E7A6F6A0E7C6F180ED1
:102A50007B6F030E7D6F6A0E7F6FBE0E7E6F040E5E
:102A6000806F6B0E826F700E816F050E836F6C0E20
:102A7000856F080E846F060E866F260E886FF80E1F
:102A8000876F070E896F6C0E8B6FEE0E8A6F0201D7
:102A9000806B816B826B836B846B856B866B876BC2
:102AA000886B896B8A6B8B6B8C6B8D6B8E6B8F6B72
:102AB000906B916B926B936B946B956B966B976B22
:102AC000986B996B9A6B9B6B9C6B9D6B9E6B9F6BD2
:102AD000A06BA16BA26BA36BA46BA56BA66BA76B82
:102AE000A86BA96BAA6BAB6BAC6BAD6BAE6BAF6B32
:102AF000B06BB16BB26BB36BB46BB56BB66BB76BE2
:102B0000B86BB96BBA6BBB6BBC6BBD6BBE6BBF6B91
:102B1000C06BC16BC26BC36BC46BC56BC66BC76B41
:102B2000C86BC96BCA6BCB6BCC6BCD6BCE6BCF6BF1
:102B3000D06BD16BD26BD36BD46BD56BD66BD76BA1
:102B4000D86BD96BDA6BDB6BDC6BDD6BDE6BDF6B51
:102B5000E06BE16BE26BE36BE46BE56BE66BE76B01
:102B6000E86BE96BEA6BEB6BEC6BED6BEE6BEF6BB1
:102B7000F06BF16BF26BF36BF46BF56BF66BF76B61
:102B8000F86BF96BFA6BFB6BFC6BFD6BFE6BFF6B11
:102B90000301006B016B026B036B046B056B066B2F
:102BA000076B086B096B0A6B0B6B0C6B0D6B0E6B79
:102BB0000F6B106B116B126B136B146B156B166B29
:102BC000176B186B196B1A6B1B6B1C6B1D6B1E6BD9
:102BD0001F6B206B216B226B236B246B256B266B89
:102BE000276B286B296B2A6B2B6B2C6B2D6B2E6B39
:102BF0002F6B306B316B326B336B346B356B366BE9
:102C0000376B386B396B3A6B3B6B3C6B3D6B3E6B98
:102C10003F6B406B416B426B436B446B456B466B48
:102C2000476B486B496B4A6B4B6B4C6B4D6B4E6BF8
:102C30004F6B506B516B526B536B546B556B566BA8
:102C4000576B586B596B5A6B5B6B5C6B5D6B5E6B58
:102C50005F6B606B616B626B636B646B656B666B08
:102C6000676B686B696B6A6B6B6B6C6B6D6B6E6BB8
:102C70006F6B706B716B726B736B746B756B766B68
:102C8000776B786B796B7A6B7B6B7C6B7D6B7E6B18
:102C90007F6B806B816B826B836B846B856B866BC8
:102CA000876B886B896B8A6B8B6B8C6B8D6B8E6B78
:102CB0008F6B906B916B926B936B946B956B966B28
:102CC000976B986B996B9A6B9B6B9C6B9D6B9E6BD8
:102CD0009F6BA06BA16BA26BA36BA46BA56BA66B88
:102CE000A76BA86BA96BAA6BAB6BAC6BAD6BAE6B38
:102CF000AF6BB06BB16BB26BB36BB46BB56BB66BE8
:102D0000B76BB86BB96BBA6BBB6BBC6BBD6BBE6B97
:102D1000BF6BC06BC16BC26BC36BC46BC56BC66B47
:102D2000C76BC86BC96BCA6BCB6BCC6BCD6BCE6BF7
:102D3000CF6BD06BD16BD26BD36BD46BD56BD66BA7
:102D4000D76BD86BD96BDA6BDB6BDC6BDD6BDE6B57
:102D5000DF6BE06BE16BE26BE36BE46BE56BE66B07
:102D6000E76BE86BE96BEA6BEB6B00016DEF1BF057
:102D7000BFD4F3EF1BF026EF1CF0C00EF212040ECE
:102D800004016A6F6A51070DF3506C6B6B6F6CC472
:102D900003F06B510001EBEC10F0006E0900F5CF71
:102DA00001F00900F5CF02F00900F5CF03F003C0F0
:102DB00070F402C06FF401C06EF4E8CF6DF4E8CF98
:102DC00071F4010E0401726F0F0E746F890E736F30
:102DD00000013BEC11F00000110E04016A6F6A5112
:102DE000070DF3506C6B6B6F6CC403F06B510001FB
:102DF000EBEC10F0006E0900F5CF01F00900F5CF03
:102E000002F00900F5CF03F003C070F402C06FF4C4
:102E100001C06EF4E8CF6DF4E8CF71F4010E040147
:102E2000726F0F0E746F890E736F00013BEC11F01F
:102E3000000000EF28F00301F26B210EF16F030E8A
:102E4000F46FEE0EF36F000134EF38F00301F091F0
:102E500001B0F081F0A10AD0F26B210EF16FEFC347
:102E6000F4F3EEC3F3F300019DEF38F00001F3EC4F
:062E70001FF0E1D7FFD7BF
:0E2F0200D89004016635036A5E0F676F010EFA
:102F10000320686F0B0E696F6951070DF3506B6BDF
:102F20006A6F6BC403F06A510001EBEC10F0006EA5
:102F30000900F5CF01F00900F5CF02F00900F5CF47
:102F400003F001C06DF4E8CF6CF404010034006EAE
:102F50000134016E0234016E0334016E0036013615
:102F600001360136FC0E0016C250830B0010C26EF3
:102F70006A0E006E002EFED70000C282C2B2FED7DB
:102F8000C4CF03F0C3CF00F0C4CF01F0026A036ADC
:102F900068C4EAFF67C4E9FF00C0EFFF01C0ECFFAF
:102FA000000112009EA00AD0010E1B26D8B01C2AD8
:102FB000D8B41D2AD8B41E2A9E900ED0CE50CFCFA2
:102FC00003F09EA00CD0010E1B26D8B01C2AD8B44A
:102FD0001D2AD8B41E2A9E90CE50CFCF03F0006E8B
:102FE00003C001F01BC002F01CC003F01D50E8320A
:102FF000033202320132003212000401786B776B27
:10300000766B756B7853D8A4C9D07753D8A4C6D043
:103010007653D8A4C3D075511D08D8A0BFD0036A79
:10302000026A016A010E006E7551796F07E0D8904F
:103030000036013602360336792FF9D702017C516A
:10304000001404017A6F02017D51011404017B6FA9
:1030500002017E51021404017C6F02017F510314AE
:1030600004017D6F7A5307E17B5305E17C5303E153
:103070007D53D8B48AD0036A026A016A010E006ED9
:103080007551796F07E0D890003601360236033665
:10309000792FF9D7001E011E021E031E00500201E7
:1030A0007C1701507D1702507E1703507F170401D3
:1030B0007535006E7635016E7735026E7835036EA4
:1030C0000036013602360336003601360236033644
:1030D000F80E00168C0E0024E96E010E0120EA6E37
:1030E0006DC4EFFF6EC4ECFF6FC4ECFF70C4ECFF67
:1030F0007535006E7635016E7735026E7835036E64
:103100000036013602360336003601360236033603
:10311000F80E001601C07AF4060E0024016E000EAF
:103120007A21036E01508C0FE96E010E0320EA6EC6
:1031300072C4ECFFED5271C4EFFF7535006E763549
:10314000016E7735026E7835036E00360136023631
:1031500003360036013602360336F80E001601C07B
:103160007AF4040E0024016E000E7A21036E0150E1
:103170008C0FE96E010E0320EA6E74C4ECFFED5271
:1031800073C4EFFF010E016E0BD0010E7527D8B08E
:10319000762BD8B4772BD8B4782B34D7000E016EA9
:1031A000000112009D92010119511619100BD8B49B
:1031B00084D0000E19B9010E0401656F65C466F470
:1031C0000C0E686F66C469F469532EE068C46AF433
:1031D0006A51070DF3506C6B6B6F6CC403F06B514D
:1031E0000001EBEC10F0006E0900F5CF01F00900D2
:1031F000F5CF02F00900F5CF03F003C070F402C070
:103200006FF401C06EF4E8CF6DF4E8CF71F4010EF5
:103210000401726F0F0E746F890E736F00013BEC27
:1032200011F0000006D0040168C46AF400015CECEF
:1032300011F000000401665302E0000E01D0010EFF
:10324000676F0D0E686F67C469F469532EE068C438
:103250006AF46A51070DF3506C6B6B6F6CC403F02A
:103260006B510001EBEC10F0006E0900F5CF01F09E
:103270000900F5CF02F00900F5CF03F003C070F4A8
:1032800002C06FF401C06EF4E8CF6DF4E8CF71F4C2
:10329000010E0401726F0F0E746F890E736F0001BF
:1032A0003BEC11F0000006D0040168C46AF4000190
:1032B0005CEC11F0000000000101040164910101C7
:1032C0001931070B0401656F010116C100F01631B9
:1032D000070B0401655D06E1010119511619200B68
:1032E00003E0040164810101040164A139D0030EEB
:1032F0006A6F00015CEC11F00401656B655109080F
:1033000002E3652BFBD7030E6A6F6A51070DF3507A
:103310006C6B6B6F6CC403F06B510001EBEC10F045
:10332000006E0900F5CF01F00900F5CF02F00900A9
:10333000F5CF03F003C070F402C06FF401C06EF467
:10334000E8CF6DF4E8CF71F4010E0401726F0F0E37
:10335000746F890E736F00013BEC11F000000000E8
:10336000010119511619010B09E0000E19B1010EE6
:103370000401656F666F000184EC11F0000133EC0D
:1033800012F00401656B666B100E676F696B686BFA
:103390006651400DF3CF6AF4400E6B6FD8906735DD
:1033A0006A27000E6B23F86A6BC4F7FF6AC4F6FF46
:1033B000040EEA6E680EE96E6D6B020E6C6F000112
:1033C00042EC12F00401683D05D0693D03D0036A68
:1033D000000E03D069C403F06851016E03C002F00F
:1033E00002C067F401C066F467C468F4682B68071C
:1033F000D8B406D06969000151EC12F00401F7D786
:1034000066C469F4000151EC12F065C466F463EC23
:1034100012F00401666B110E676F696B686B665181
:10342000400DF3CF6AF4400E6B6FD89067356A2772
:10343000000E6B23F86A6BC4F7FF6AC4F6FF040E34
:10344000EA6E680EE96E6D6B020E6C6F000142EC65
:1034500012F00401683D05D0693D03D0036A000EF7
:1034600003D069C403F06851016E03C002F002C0CA
:1034700067F401C066F467C468F4682B6807D8B4C1
:1034800006D06969000151EC12F00401F7D766C457
:1034900069F4000151EC12F065C466F4B6EC12F068
:1034A0000401666B120E676F696B686B6651400DA5
:1034B000F3CF6AF4400E6B6FD89067356A27000E21
:1034C0006B23F86A6BC4F7FF6AC4F6FF040EEA6E5A
:1034D000680EE96E6D6B020E6C6F000142EC12F02B
:1034E0000401683D05D0693D03D0036A000E03D096
:1034F00069C403F06851016E03C002F002C067F4B2
:1035000001C066F467C468F4682B6807D8B406D0B5
:103510006969000151EC12F00401F7D766C469F43F
:10352000000151EC12F065C466F409EC13F065C4B7
:1035300066F4E7DC00001BC145F11AC144F1010E3D
:103540000401636F635103082EE300012BDD03C008
:1035500068F402C067F401C066F400C065F4020EAE
:1035600004016527000E662367236823510E036E4E
:10357000D20E696F03C06AF46C6B63C46BF468C4E9
:1035800070F467C46FF466C46EF465C46DF403C070
:1035900072F4716F6CC474F463C473F400012DDDB4
:1035A0000401632BCFD71BC118F11AC117F119C140
:1035B00016F19D820101132BD8B4142BF292000155
:1035C0003CEF10F00301EA51EB5D0FE0EB51EB2B08
:1035D000036A360FE96E030E0320EA6EEFCFADFFEC
:1035E000EB51B40801E1EB6B01D09D989E9800016E
:1035F0003CEF10F03FC445F43EC444F441C447F4EA
:1036000040C446F40401435303E14251000830E250
:1036100044C4E9FF45C4EAFFEFCF48F447C403F0D0
:1036200046C4E9FF47C4EAFFEF50485D16E045C4D1
:1036300003F044C4E9FF45C4EAFFEFCF48F447C4B0
:1036400003F046C4E9FF47C4EAFFEF50485D02E2D9
:10365000FF0E01D0010E016E0DD0442BD8B4452BC6
:10366000462BD8B4472B4251D8B443074207CBD797
:10367000000E016E00011200F250036EF29EA68E43
:10368000A6840F01550EA76EAA0EA76EA682000093
:103690000350F21200011200D08CA69CF6503F0B92
:1036A000006EC00EF6160A003EC401F0006607D098
:1036B000EECFF5FF015204E00F00010603D0000633
:1036C0000B000C003F0EF6143F0AF0E1A688D4DF91
:1036D000D3DF0166EBD7F86A12000301F191196A92
:1036E000F2BE198EF29EF86AF76AF66A030EEA6E67
:1036F000F20EE96E04016D6B400E6C6F000142EC3E
:1037000012F019BEF28E04013269336934693569E9
:10371000800E366FEF0E376F130E386FF00E396F65
:10372000030E3F6FF20E3E6F040E416F320E406F7C
:10373000436B040E426F00015DDF015210E1030193
:10374000F181030EEA6EF20EE96E040EE26E360EA1
:10375000E16E040E016EE6CFEEFF012EFCD7040EE3
:1037600004013A6FEF0E3B6F100E3C6FF00E3D6F91
:10377000030E3F6FFA0E3E6F040E416F3A0E406F1C
:10378000436B040E426F000135DF015210E003016C
:10379000F181030EEA6EFA0EE96E040EE26E3A0E45
:1037A000E16E040E016EE6CFEEFF012EFCD70301A1
:1037B000F1A10DD0F86AF76AF66A030EEA6EF20E0E
:1037C000E96E400E04013E6F000166DF0301000157
:1037D000B8EF16F00301346B356BEA6BEB6B9D8A27
:1037E00000017AEF13F0000E926E800E936E946ECD
:1037F000000E956E9690969296949696896A8A6A2D
:103800008C6A8D6AC150F00BC16E200E0F01386FAB
:10381000070E3C6F0C0E396F200E3A6F000E3B6F97
:10382000C050C00B2509C06EC08EC2800001BBEF26
:1038300016F0016603D0026602D007D0022A00C04B
:10384000EEFF012EFCD7022EFAD712000101146BF5
:10385000136B156B696B686B676B666BF29CF29E02
:10386000F2BEFDD76A91C00EF212010EEA6E410E51
:10387000E96E006A026A250E016E0001DADF010EB0
:10388000EA6E1C0EE96E006A026A250E016ED1DF37
:10389000010EEA6E190EE96E006A026A030E016EED
:1038A000C8DF1BC118F11AC117F119C116F1F10EC9
:1038B000010116150609166F168916819D92195178
:1038C0001619100BD8B484D0000E19B9010E0401DA
:1038D000656F65C466F40C0E686F66C469F469535D
:1038E0002EE068C46AF46A51070DF3506C6B6B6F7D
:1038F0006CC403F06B510001EBEC10F0006E09009A
:10390000F5CF01F00900F5CF02F00900F5CF03F083
:1039100003C070F402C06FF401C06EF4E8CF6DF420
:10392000E8CF71F4010E0401726F0F0E746F890EEF
:10393000736F00013BEC11F0000006D0040168C475
:103940006AF400015CEC11F000000401665302E02F
:10395000000E01D0010E676F0D0E686F67C469F429
:1039600069532EE068C46AF46A51070DF3506C6B1A
:103970006B6F6CC403F06B510001EBEC10F0006E48
:103980000900F5CF01F00900F5CF02F00900F5CFED
:1039900003F003C070F402C06FF401C06EF4E8CF0E
:1039A0006DF4E8CF71F4010E0401726F0F0E746FA5
:1039B000890E736F00013BEC11F0000006D004018A
:1039C00068C46AF400015CEC11F000000000010121
:1039D0000401649101011931070B0401656F0101B4
:1039E00016C100F01631070B0401655D06E1010107
:1039F00019511619200B03E004016481010104012F
:103A000064A139D0030E6A6F00015CEC11F004016F
:103A1000656B6551090802E3652BFBD7030E6A6FDE
:103A20006A51070DF3506C6B6B6F6CC403F06B51F4
:103A30000001EBEC10F0006E0900F5CF01F0090079
:103A4000F5CF02F00900F5CF03F003C070F402C017
:103A50006FF401C06EF4E8CF6DF4E8CF71F4010E9D
:103A60000401726F0F0E746F890E736F00013BECCF
:103A700011F000000000010119511619010B09E0B5
:103A8000000E19B1010E0401656F666F000184EC30
:103A900011F0000133EC12F00401656B666B100E3F
:103AA000676F696B686B6651400DF3CF6AF4400E27
:103AB0006B6FD89067356A27000E6B23F86A6BC46A
:103AC000F7FF6AC4F6FF040EEA6E680EE96E6D6BCE
:103AD000020E6C6F000142EC12F00401683D05D04B
:103AE000693D03D0036A000E03D069C403F0685136
:103AF000016E03C002F002C067F401C066F467C43F
:103B000068F4682B6807D8B406D06969000151ECE5
:103B100012F00401F7D766C469F4000151EC12F009
:103B200065C466F463EC12F00401666B110E676FF6
:103B3000696B686B6651400DF3CF6AF4400E6B6F92
:103B4000D89067356A27000E6B23F86A6BC4F7FFBD
:103B50006AC4F6FF040EEA6E680EE96E6D6B020E23
:103B60006C6F000142EC12F00401683D05D0693D24
:103B700003D0036A000E03D069C403F06851016EDC
:103B800003C002F002C067F401C066F467C468F4C1
:103B9000682B6807D8B406D06969000151EC12F0AF
:103BA0000401F7D766C469F4000151EC12F065C452
:103BB00066F4B6EC12F00401666B120E676F696B67
:103BC000686B6651400DF3CF6AF4400E6B6FD8906E
:103BD00067356A27000E6B23F86A6BC4F7FF6AC467
:103BE000F6FF040EEA6E680EE96E6D6B020E6C6FE6
:103BF000000142EC12F00401683D05D0693D03D09C
:103C0000036A000E03D069C403F06851016E03C05B
:103C100002F002C067F401C066F467C468F4682B60
:103C20006807D8B406D06969000151EC12F00401AC
:103C3000F7D766C469F4000151EC12F065C466F46C
:103C400009EC13F065C466F481EC17F000001BC1A9
:103C500045F11AC144F1010E0401636F6351030879
:103C600030E30001D2EC17F003C068F402C067F43F
:103C700001C066F400C065F4020E04016527000E61
:103C8000662367236823510E036ED20E696F03C04B
:103C90006AF46C6B63C46BF468C470F467C46FF44B
:103CA00066C46EF465C46DF403C072F4716F6CC4C5
:103CB00074F463C473F40001FDEC17F00401632B8A
:103CC000CDD71BC118F11AC117F119C116F19D8288
:103CD000F18CF2880001BDEF16F08E0E006E13C459
:103CE00001F012C402F0036A015209E102C001F0BE
:103CF000026A080E005E015202E1006A08D0D89004
:103D000001BE04D0023601360006F9D7019E12002A
:103D100004011251D8B471D0006E1651D8B46DD0D0
:103D2000002604E3810E002668E204D07F0E005EC8
:103D300064E363E013C41AF417511A1B138F178F2F
:103D400015511903F4CF1CF414511803F4CF03F0E8
:103D5000F3CF1BF41903F3501C27F4501B23000E60
:103D6000032215511803F3501C27F4501B23000E97
:103D7000026A0322022213511903F3501B27F45045
:103D80000322000E022213511803F3500326F450AD
:103D90000222000E016A012215511703F3501B275E
:103DA000F4500322000E0222012214511703F35093
:103DB0000326F4500222000E012213511703F35080
:103DC0000226F4500122002A01BE05D01B3703361B
:103DD000023601360006000E1BAF0AD0032A02226B
:103DE0000122015005E1025003E1035001E1002AE4
:103DF0001ABF018E1AAF019E04D0006A016A026ADE
:103E0000036A000112008E0E006E04011251005E62
:103E100013C402F014C401F0028E005209E0D890DD
:103E2000025202E1015204E002320132002EF7D7C1
:103E300013AF05D0011E021E012AD8B4022A0001C8
:103E4000120004011951100805E01A6F17371837CE
:103E50001A2FFCD79298929689969294899419C4B5
:103E60001AF48986050E1B6F1B2FFED718AF899891
:103E700018BF898817371837160E1B6F1B2FFED7F0
:103E80008996060E1B6F1B2FFED71A2FEAD789843F
:103E9000000174EF1FF00401186B026A036A12B18B
:103EA000038E02500301EC250401176F0350030138
:103EB000ED210401186F1451030B1A6F1335026EB4
:103EC0001A35036E02360336FC0E02160250172511
:103ED000156F03501821166F16C418F415C417F483
:103EE000100E196F0001ADD7120003013551352BAB
:103EF000036A800FE96E020E0320EA6EEFCFFDF336
:103F00003551B30801E2356BFDC301F0000198EFB4
:103F10001FF003013551345D03E1000E016E11D035
:103F2000FAC303F0F9C3FBF3FAC3FCF30001DDD7D6
:103F3000FCC3EAFFFBC3E9FF01C0EFFF010E016E06
:103F4000030100014BEF38F004015B6B5AC403F02E
:103F50005951D8B45A0759075D6F03C05EF45D53D9
:103F600002E15E5315E058C403F05751572BD8B403
:103F7000582BE96E03C0EAFFEF505B195C6F036AD0
:103F80005C51000163EC10F0E8CF5BF40401DED774
:103F90005BC401F00001120050C453F44FC452F44A
:103FA0000401556B51C454F4000183EF2BF09D883C
:103FB000F2EF1FF04AC450F449C44FF44BC451F41B
:103FC0000401536B710E526F00012AEF2BF00401B4
:103FD0004E6B01C04DF4506B710E4F6F4DC451F4D8
:0C3FE0000001DAD71200DDEF36F012000D
:105000000301ED6BEC6B030E04016A6F6A51070D2F
:10501000F3506C6B6B6F6CC403F06B510001EBECE5
:1050200010F0006E0900F5CF01F00900F5CF02F095
:105030000900F5CF03F003C070F402C06FF401C0A3
:105040006EF4E8CF6DF4E8CF71F4010E0401726FD5
:105050000F0E746F890E736F00013BEC11F00000AE
:1050600004010D6B0F6B0E6B0FC413F40EC412F41E
:1050700000016DEC1EF003C015F402C014F401C071
:1050800013F400C012F4170E0401196FB70E186F55
:10509000510E176F7C0E166F000188EC1EF003C0D6
:1050A00015F402C014F401C013F400C012F403ECB0
:1050B0001FF002C011F401C010F4040111510308E3
:1050C00003E2030E116F10690DC412F411C414F43D
:1050D00010C413F400014BEC1FF00000010E04019A
:1050E0000D6F0F6B0E6B0FC413F40EC412F400019E
:1050F0006DEC1EF003C015F402C014F401C013F4EB
:1051000000C012F4170E0401196FB70E186F510E7C
:10511000176F7C0E166F000188EC1EF003C015F4AB
:1051200002C014F401C013F400C012F403EC1FF029
:1051300002C011F401C010F404011151030803E28C
:10514000030E116F10690DC412F411C414F410C4CD
:1051500013F400014BEC1FF00000030E04016A6F12
:1051600000015CEC11F00401656B6551090802E374
:10517000652BFBD7030E6A6F6A51070DF3506C6BFA
:105180006B6F6CC403F06B510001EBEC10F0006E20
:105190000900F5CF01F00900F5CF02F00900F5CFC5
:1051A00003F003C070F402C06FF401C06EF4E8CFE6
:1051B0006DF4E8CF71F4010E0401726F0F0E746F7D
:1051C000890E736F00013BEC11F0000000001BEF33
:1051D00017F002C465F40401666B100E676F696B0B
:1051E000686B6651400DF3CF6AF4400E6B6FD89038
:1051F00067356A27000E6B23F86A6BC4F7FF6AC431
:10520000F6FF040EEA6E680EE96E6D6B020E6C6FAF
:10521000000142EC12F00401683D05D0693D03D065
:10522000036A000E03D069C403F06851016E03C025
:1052300002F002C067F401C066F467C468F4682B2A
:105240006807D8B406D06969000151EC12F0040176
:10525000F7D766C469F4000151EC12F065C466F436
:1052600063EC12F00401666B110E676F696B686B7B
:105270006651400DF3CF6AF4400E6B6FD8906735DE
:105280006A27000E6B23F86A6BC4F7FF6AC4F6FF47
:10529000040EEA6E680EE96E6D6B020E6C6F000113
:1052A00042EC12F00401683D05D0693D03D0036A69
:1052B000000E03D069C403F06851016E03C002F010
:1052C00002C067F401C066F467C468F4682B68071D
:1052D000D8B406D06969000151EC12F00401F7D787
:1052E00066C469F4000151EC12F065C466F4B6ECD2
:1052F00012F00401666B120E676F696B686B665182
:10530000400DF3CF6AF4400E6B6FD89067356A2773
:10531000000E6B23F86A6BC4F7FF6AC4F6FF040E35
:10532000EA6E680EE96E6D6B020E6C6F000142EC66
:1053300012F00401683D05D0693D03D0036A000EF8
:1053400003D069C403F06851016E03C002F002C0CB
:1053500067F401C066F467C468F4682B6807D8B4C2
:1053600006D06969000151EC12F00401F7D766C458
:1053700069F4000151EC12F065C466F409EC13F015
:1053800065C466F481EC17F00000120004010953B3
:1053900002E0020E01D0010E0D6F0DC466F40AC4C6
:1053A00067F4696B686B6651400DF3CF6AF4400E89
:1053B0006B6FD89067356A27000E6B23F86A6BC451
:1053C000F7FF6AC4F6FF040EEA6E680EE96E6D6BB5
:1053D000020E6C6F000142EC12F00401683D05D032
:1053E000693D03D0036A000E03D069C403F068511D
:1053F000016E03C002F002C00CF401C00BF40B3DBF
:1054000004D00C3D02D00C6B0B6B0D6B0CC40FF475
:105410000BC40EF40FC413F40EC412F400016DECAF
:105420001EF003C015F402C014F401C013F400C050
:1054300012F4170E0401196FB70E186F510E176F83
:105440007C0E166F000188EC1EF003C015F402C03C
:1054500014F401C013F400C012F403EC1FF002C0F6
:1054600011F401C010F404011151030803E2030E0A
:10547000116F10690DC412F411C414F410C413F4A4
:1054800000014BEC1FF000000401095302E0020E82
:1054900001D0010E0D6F100E0A250E6F0DC466F4BB
:1054A0000EC467F4696B686B6651400DF3CF6AF404
:1054B000400E6B6FD89067356A27000E6B23F86A31
:1054C0006BC4F7FF6AC4F6FF040EEA6E680EE96E5D
:1054D0006D6B020E6C6F000142EC12F00401683D2E
:1054E00005D0693D03D0036A000E03D069C403F000
:1054F0006851016E03C002F002C00CF401C00BF44D
:105500000B3D04D00C3D02D00C6B0B6B010E0D6FEC
:105510000CC40FF40BC40EF40FC413F40EC412F435
:1055200000016DEC1EF003C015F402C014F401C0BC
:1055300013F400C012F4170E0401196FB70E186FA0
:10554000510E176F7C0E166F000188EC1EF003C021
:1055500015F402C014F401C013F400C012F403ECFB
:105560001FF002C011F401C010F40401115103082E
:1055700003E2030E116F10690DC412F411C414F488
:1055800010C413F400014BEC1FF00000B8EF2CF036
:1055900004015E6B5F6B5E6B5D515E5D57E2036A9B
:1055A0005E515925E96E5A510320EA6EEF507E088C
:1055B00015E15F515F2B036A5B25E96E5C510320A7
:1055C000EA6E7D0EEF6E5F515F2B036A5B25E96E1D
:1055D0005C510320EA6E5E0EEF6E36D0036A5E51B8
:1055E0005925E96E5A510320EA6EEF507D0815E106
:1055F0005F515F2B036A5B25E96E5C510320EA6E05
:105600007D0EEF6E5F515F2B036A5B25E96E5C5187
:105610000320EA6E5D0EEF6E17D05F515F2B036AB9
:105620005B25606F5C510320616F036A5E515925F1
:10563000E96E5A510320EA6EEFCF62F461C4EAFFCB
:1056400060C4E9FF62C4EFFF5E2BA6D75FC401F020
:10565000000112000401546B556B50C458F44FC440
:1056600057F45A6B51C459F40001A4EC1FF001C067
:1056700056F4010E04015225016E000E5321036EF3
:1056800001C057F4586F50C45AF44FC459F45C6FBA
:1056900001C05BF451C45DF400017ADF01C054F431
:1056A000010E04015425036A5225016E5351032251
:1056B00001C057F403C058F4040E5A6F560E596FC8
:1056C00003C05CF401C05BF4010E5D6F000160DF9C
:1056D00001C055F4040152C4E9FF53C4EAFF7E0E31
:1056E000EF6E55515425010F036A5225E96E53514F
:1056F0000320EA6E7E0EEF6E55515425020F016EA7
:105700000001E7EF1FF0B40ED8800301EA55040151
:10571000566F555303E15451565D3DE2360E030179
:10572000EA250401576F030E586FD8B0582B58C4A0
:10573000EAFF57C4E9FF53C4E2FF52C4E1FF5651E8
:10574000016E04E0E6CFEEFF012EFCD75651545F08
:10575000000E555B56515225576F000E5321586F5E
:10576000030EEA6E360EE96E58C4E2FF57C4E1FF3D
:1057700055C402F054C401F0015202E0022A02D0E2
:10578000025206E0E6CFEEFF012EFCD7022EFAD73A
:1057900054C4EAF324D0360E0301EA250401576FFE
:1057A000030E586FD8B0582B58C4EAFF57C4E9FF0E
:1057B00053C4E2FF52C4E1FF55C402F054C401F0E7
:1057C000015202E0022A02D0025206E0E6CFEEFFCA
:1057D000012EFCD7022EFAD754510301EA27030108
:1057E000EA51B40801E1EA6B0001D7EF1FF00401B0
:1057F000076B800E076F040E4A6F070E496F4C6BE4
:10580000010E4B6F0001DAEC1FF0120003C405F427
:1058100002C404F401016A91010EEA6E190EE96EE8
:1058200005C4E2FF04C4E1FF030E016EE6CFEEFF04
:10583000012EFCD719AD01D0FF0019511619010B2B
:1058400069E019A134D00401666B0B0E676F696BB8
:10585000686B6651400DF3CF6AF4400E6B6FD890C1
:1058600067356A27000E6B23F86A6BC4F7FF6AC4BA
:10587000F6FF040EEA6E680EE96E6D6B020E6C6F39
:10588000000142EC12F00401683D05D0693D03D0EF
:10589000036A000E03D069C403F06851016E03C0AF
:1058A00002F002C070F101C06FF133D001010401B8
:1058B000666B0C0E676F696B686B6651400DF3CFBA
:1058C0006AF4400E6B6FD89067356A27000E6B2321
:1058D000F86A6BC4F7FF6AC4F6FF040EEA6E680E3E
:1058E000E96E6D6B020E6C6F000142EC12F0040168
:1058F000683D05D0693D03D0036A000E03D069C43A
:1059000003F06851016E03C002F002C070F101C0E3
:105910006FF101011931070B0401076F010116C175
:1059200000F01631070B0401075D07E10101195171
:105930001619200BD8B483D004010691010119C1B6
:1059400000F01931070B03E1040106810101000E8B
:1059500019BB010E0401076F010119C100F01931D3
:10596000070B0401086F07C409F40A6F00010ED584
:10597000040106A132D0666B0E0E676F696B686B0F
:105980006651400DF3CF6AF4400E6B6FD8906735C7
:105990006A27000E6B23F86A6BC4F7FF6AC4F6FF30
:1059A000040EEA6E680EE96E6D6B020E6C6F0001FC
:1059B00042EC12F00401683D05D0693D03D0036A52
:1059C000000E03D069C403F06851016E03C002F0F9
:1059D00002C06EF101C06DF131D0666B0D0E676FC4
:1059E000696B686B6651400DF3CF6AF4400E6B6FC4
:1059F000D89067356A27000E6B23F86A6BC4F7FFEF
:105A00006AC4F6FF040EEA6E680EE96E6D6B020E54
:105A10006C6F000142EC12F00401683D05D0693D55
:105A200003D0036A000E03D069C403F06851016E0D
:105A300003C002F002C06EF101C06DF10101155307
:105A400001E10FD2152D0CD29D9219511619100B90
:105A5000D8B484D0000E19B9010E0401656F65C475
:105A600066F40C0E686F66C469F469532EE068C46E
:105A70006AF46A51070DF3506C6B6B6F6CC403F0E2
:105A80006B510001EBEC10F0006E0900F5CF01F056
:105A90000900F5CF02F00900F5CF03F003C070F460
:105AA00002C06FF401C06EF4E8CF6DF4E8CF71F47A
:105AB000010E0401726F0F0E746F890E736F000177
:105AC0003BEC11F0000006D0040168C46AF4000148
:105AD0005CEC11F000000401665302E0000E01D0FE
:105AE000010E676F0D0E686F67C469F469532EE08D
:105AF00068C46AF46A51070DF3506C6B6B6F6CC429
:105B000003F06B510001EBEC10F0006E0900F5CFD3
:105B100001F00900F5CF02F00900F5CF03F003C052
:105B200070F402C06FF401C06EF4E8CF6DF4E8CFFA
:105B300071F4010E0401726F0F0E746F890E736F92
:105B400000013BEC11F0000006D0040168C46AF4C7
:105B500000015CEC11F000000000010104016491FF
:105B600001011931070B0401656F010116C100F035
:105B70001631070B0401655D06E101011951161983
:105B8000200B03E0040164810101040164A139D008
:105B9000030E6A6F00015CEC11F00401656B655146
:105BA000090802E3652BFBD7030E6A6F6A51070DE4
:105BB000F3506C6B6B6F6CC403F06B510001EBEC3A
:105BC00010F0006E0900F5CF01F00900F5CF02F0EA
:105BD0000900F5CF03F003C070F402C06FF401C0F8
:105BE0006EF4E8CF6DF4E8CF71F4010E0401726F2A
:105BF0000F0E746F890E736F00013BEC11F0000003
:105C00000000010119511619010B09E0000E19B12C
:105C1000010E0401656F666F000184EC11F0000154
:105C200033EC12F00401656B666B100E676F696BE5
:105C3000686B6651400DF3CF6AF4400E6B6FD890DD
:105C400067356A27000E6B23F86A6BC4F7FF6AC4D6
:105C5000F6FF040EEA6E680EE96E6D6B020E6C6F55
:105C6000000142EC12F00401683D05D0693D03D00B
:105C7000036A000E03D069C403F06851016E03C0CB
:105C800002F002C067F401C066F467C468F4682BD0
:105C90006807D8B406D06969000151EC12F004011C
:105CA000F7D766C469F4000151EC12F065C466F4DC
:105CB00063EC12F00401666B110E676F696B686B21
:105CC0006651400DF3CF6AF4400E6B6FD890673584
:105CD0006A27000E6B23F86A6BC4F7FF6AC4F6FFED
:105CE000040EEA6E680EE96E6D6B020E6C6F0001B9
:105CF00042EC12F00401683D05D0693D03D0036A0F
:105D0000000E03D069C403F06851016E03C002F0B5
:105D100002C067F401C066F467C468F4682B6807C2
:105D2000D8B406D06969000151EC12F00401F7D72C
:105D300066C469F4000151EC12F065C466F4B6EC77
:105D400012F00401666B120E676F696B686B665127
:105D5000400DF3CF6AF4400E6B6FD89067356A2719
:105D6000000E6B23F86A6BC4F7FF6AC4F6FF040EDB
:105D7000EA6E680EE96E6D6B020E6C6F000142EC0C
:105D800012F00401683D05D0693D03D0036A000E9E
:105D900003D069C403F06851016E03C002F002C071
:105DA00067F401C066F467C468F4682B6807D8B468
:105DB00006D06969000151EC12F00401F7D766C4FE
:105DC00069F4000151EC12F065C466F409EC13F0BB
:105DD00065C466F481EC17F000001BC145F11AC1DF
:105DE00044F1010E0401636F6351030830E30001C5
:105DF000D2EC17F003C068F402C067F401C066F487
:105E000000C065F4020E04016527000E66236723B7
:105E10006823510E036ED20E696F03C06AF46C6B77
:105E200063C46BF468C470F467C46FF466C46EF442
:105E300065C46DF403C072F4716F6CC474F463C410
:105E400073F40001FDEC17F00401632BCDD71BC1E7
:105E500018F11AC117F119C116F19D8202D0010182
:105E600003D00001C4DC0101000112000401305123
:105E70003203F3CF01F0F4CF00F03303F3500026E8
:105E800031513203F3500020026E00011200016A0A
:105E9000026A006A036A0401315102E1305118E0DC
:105EA000100E326FD8902E372F370036033631510F
:105EB000035C02E13051005C07E33051005ED8A082
:105EC00003063151035ED88001360236322FEAD7FD
:105ED00000011200040EEA6E050EE96E010EE26E7C
:105EE0001C0EE16E250E016EE6CFEEFF012EFCD7F3
:105EF0000101152DE7D00401046B04510308D8A05B
:105F0000DED004C465F4666B100E676F696B686B56
:105F10006651400DF3CF6AF4400E6B6FD890673531
:105F20006A27000E6B23F86A6BC4F7FF6AC4F6FF9A
:105F3000040EEA6E680EE96E6D6B020E6C6F000166
:105F400042EC12F00401683D05D0693D03D0036ABC
:105F5000000E03D069C403F06851016E03C002F063
:105F600002C067F401C066F467C468F4682B680770
:105F7000D8B406D06969000151EC12F00401F7D7DA
:105F800066C469F4000151EC12F065C466F463EC78
:105F900012F00401666B110E676F696B686B6651D6
:105FA000400DF3CF6AF4400E6B6FD89067356A27C7
:105FB000000E6B23F86A6BC4F7FF6AC4F6FF040E89
:105FC000EA6E680EE96E6D6B020E6C6F000142ECBA
:105FD00012F00401683D05D0693D03D0036A000E4C
:105FE00003D069C403F06851016E03C002F002C01F
:105FF00067F401C066F467C468F4682B6807D8B416
:1060000006D06969000151EC12F00401F7D766C4AB
:1060100069F4000151EC12F065C466F4B6EC12F0BC
:106020000401666B120E676F696B686B6651400DF9
:10603000F3CF6AF4400E6B6FD89067356A27000E75
:106040006B23F86A6BC4F7FF6AC4F6FF040EEA6EAE
:10605000680EE96E6D6B020E6C6F000142EC12F07F
:106060000401683D05D0693D03D0036A000E03D0EA
:1060700069C403F06851016E03C002F002C067F406
:1060800001C066F467C468F4682B6807D8B406D00A
:106090006969000151EC12F00401F7D766C469F494
:1060A000000151EC12F065C466F409EC13F065C40C
:1060B00066F481EC17F000000401042B1ED70001E8
:1060C00033EC12F00401046B04510308D8A0BAD1D8
:1060D000D8900435036A0A0F016E040E03220150A2
:1060E0002A6F03C02BF4D8900435036A0A0FE96EB7
:1060F000040E0320EA6EECCF2DF4ED52EFCF2CF41A
:10610000666B030E676F696B686B6651400DF3CF6A
:106110006AF4400E6B6FD89067356A27000E6B23C8
:10612000F86A6BC4F7FF6AC4F6FF040EEA6E680EE5
:10613000E96E6D6B020E6C6F000142EC12F004010F
:10614000683D05D0693D03D0036A000E03D069C4E1
:1061500003F06851016E03C002F002C003F001C0F9
:106160002EF402C02FF42DC431F42CC430F402C03C
:1061700033F401C032F4000179DE02C02DF401C015
:106180002CF402C02FF401C02EF4030E0401316F71
:10619000E80E306F00017BDE04012BC4EAFF2AC445
:1061A000E9FF02C0ECFFED5201C0EFFFD8900435CB
:1061B000036A120F016E040E032201502A6F03C0FE
:1061C0002BF4D8900435036A120FE96E040E0320F5
:1061D000EA6EECCF2DF4ED52EFCF2CF4666B040E8B
:1061E000676F696B686B6651400DF3CF6AF4400EC0
:1061F0006B6FD89067356A27000E6B23F86A6BC403
:10620000F7FF6AC4F6FF040EEA6E680EE96E6D6B66
:10621000020E6C6F000142EC12F00401683D05D0E3
:10622000693D03D0036A000E03D069C403F06851CE
:10623000016E03C002F002C003F001C02EF402C0E0
:106240002FF42DC431F42CC430F402C033F401C057
:1062500032F400010BDE02C02DF401C02CF402C0A8
:106260002FF401C02EF4030E0401316FE80E306FDD
:1062700000010DDE04012BC4EAFF2AC4E9FF02C0BD
:10628000ECFFED5201C0EFFFD8900435036A1A0FFE
:10629000016E040E032201502A6F03C02BF4D89024
:1062A0000435036A1A0FE96E040E0320EA6EECCF80
:1062B0002DF4ED52EFCF2CF4666B050E676F696B12
:1062C000686B6651400DF3CF6AF4400E6B6FD89047
:1062D00067356A27000E6B23F86A6BC4F7FF6AC440
:1062E000F6FF040EEA6E680EE96E6D6B020E6C6FBF
:1062F000000142EC12F00401683D05D0693D03D075
:10630000036A000E03D069C403F06851016E03C034
:1063100002F002C003F001C02EF402C02FF42DC41D
:1063200031F42CC430F402C033F401C032F4000163
:106330009DDD02C02DF401C02CF402C02FF401C079
:106340002EF4030E0401316FE80E306F00019FDD63
:1063500004012BC4EAFF2AC4E9FF02C0ECFFED529E
:1063600001C0EFFFD8900435036A220F016E040EBE
:10637000032201502A6F03C02BF4D8900435036A1E
:10638000220FE96E040E0320EA6EECCF2DF4ED52DD
:10639000EFCF2CF4666B070E676F696B686B665105
:1063A000400DF3CF6AF4400E6B6FD89067356A27C3
:1063B000000E6B23F86A6BC4F7FF6AC4F6FF040E85
:1063C000EA6E680EE96E6D6B020E6C6F000142ECB6
:1063D00012F00401683D05D0693D03D0036A000E48
:1063E00003D069C403F06851016E03C002F002C01B
:1063F00003F001C02EF402C02FF42DC431F42CC4DC
:1064000030F402C033F401C032F400012FDD02C0C9
:106410002DF401C02CF402C02FF401C02EF4030EA1
:106420000401316FE80E306F000131DD04012BC42F
:10643000EAFF2AC4E9FF02C0ECFFED5201C0EFFF02
:10644000042B42D6810E056F14C107F413C106F464
:10645000040E4A6F050E496F4C6B250E4B6F000101
:10646000DAEC1FF012000401276B286B010E296F74
:10647000DA6AD96A040E2C6F1F0E2B6F040EEA6EB7
:10648000230EE96E2CC4E2FF2BC4E1FF29C42AF4D9
:10649000D890E550EE02F3502723F45028232A2FFA
:1064A000F7D727C4DEFF28C427F4286BD8B0282BE1
:1064B0002B2BD8B42C2B292B29510508DFE1000107
:1064C0001200D8B204D0040EEA6E270EE96E006AFC
:1064D000016A026A036A0401276B286B296B2A6B25
:1064E00026512511241123112CE0200E2B6FD8905A
:1064F0001F372037213722372737283729372A37C0
:1065000026512A5D08E12551295D05E12451285DC8
:1065100002E12351275D0FE32351275F2451D8A0C7
:10652000243D285F2551D8A0253D295F2651D8A0BC
:10653000263D2A5FD88000360136023603362B2FDF
:10654000D6D727C4EFFF28C4ECFF29C4ECFF2AC428
:10655000ECFF000112000401046B056B066B076B76
:10656000086B096B0A6B0B6B0C6B0D6B0E6B890E5A
:10657000046F14C106F413C105F40A0E696F695162
:10658000070DF3506B6B6A6F6BC403F06A51000127
:10659000EBEC10F0006E0900F5CF01F00900F5CF2B
:1065A00002F00900F5CF03F001C06DF4E8CF6CF400
:1065B00004010034006E0134016E0234016E0334B4
:1065C000016E0036013601360136FC0E0016C2504F
:1065D000830B0010C26E6A0E006E002EFED7000004
:1065E000C282C2B2FED7C4CF03F0C3CF00F0C4CF83
:1065F00001F0026A036A03C016F402C015F401C078
:1066000014F400C013F4666B020E676F696B686B5D
:106610006651400DF3CF6AF4400E6B6FD89067352A
:106620006A27000E6B23F86A6BC4F7FF6AC4F6FF93
:10663000040EEA6E680EE96E6D6B020E6C6F00015F
:1066400042EC12F00401683D05D0693D03D0036AB5
:10665000000E03D069C403F06851016E03C002F05C
:1066600002C003F001C017F402C018F4EACF1AF414
:10667000E9CF19F416C422F415C421F414C420F48B
:1066800013C41FF4266B256B02C024F401C023F44D
:106690000001E9DE1AC4EAFF19C4E9FF03C016F4D9
:1066A00002C015F401C014F400C013F4EACF18F4CA
:1066B000E9CF17F4D89203C022F402C021F401C03C
:1066C00020F400C01FF40401266B256B030E246F19
:1066D000E80E236F0001F5DE18C4EAFF17C4E9FFD6
:1066E00001C008F400C007F4050E0401696F695188
:1066F000070DF3506B6B6A6F6BC403F06A510001B6
:10670000EBEC10F0006E0900F5CF01F00900F5CFB9
:1067100002F00900F5CF03F001C06DF4E8CF6CF48E
:1067200004010034006E0134016E0234016E033442
:10673000016E0036013601360136FC0E0016C250DD
:10674000830B0010C26E6A0E006E002EFED7000092
:10675000C282C2B2FED7C4CF03F0C3CF00F0C4CF11
:1067600001F0026A036A03C016F402C015F401C006
:1067700014F400C013F4666B080E676F696B686BE6
:106780006651400DF3CF6AF4400E6B6FD8906735B9
:106790006A27000E6B23F86A6BC4F7FF6AC4F6FF22
:1067A000040EEA6E680EE96E6D6B020E6C6F0001EE
:1067B00042EC12F00401683D05D0693D03D0036A44
:1067C000000E03D069C403F06851016E03C002F0EB
:1067D00002C003F00150176F03C018F4EACF1AF497
:1067E000E9CF19F416C422F415C421F414C420F41A
:1067F00013C41FF4266B256B18C424F417C423F4A8
:10680000000131DE1AC4EAFF19C4E9FF03C016F41F
:1068100002C015F401C014F400C013F4EACF18F458
:10682000E9CF17F4D89216C422F415C421F414C485
:1068300020F413C41FF40401266B256B030E246F90
:10684000E80E236F00013DDE18C4EAFF17C4E9FF1C
:1068500001C010F400C00FF4060E0401696F695105
:10686000070DF3506B6B6A6F6BC403F06A51000144
:10687000EBEC10F0006E0900F5CF01F00900F5CF48
:1068800002F00900F5CF03F001C06DF4E8CF6CF41D
:1068900004010034006E0134016E0234016E0334D1
:1068A000016E0036013601360136FC0E0016C2506C
:1068B000830B0010C26E6A0E006E002EFED7000021
:1068C000C282C2B2FED7C4CF03F0C3CF00F0C4CFA0
:1068D00001F0026A036A03C016F402C015F401C095
:1068E00014F400C013F4666B090E676F696B686B74
:1068F0006651400DF3CF6AF4400E6B6FD890673548
:106900006A27000E6B23F86A6BC4F7FF6AC4F6FFB0
:10691000040EEA6E680EE96E6D6B020E6C6F00017C
:1069200042EC12F00401683D05D0693D03D0036AD2
:10693000000E03D069C403F06851016E03C002F079
:1069400002C003F001C01BF402C01CF4EACF1EF425
:10695000E9CF1DF416C422F415C421F414C420F4A4
:1069600013C41FF4266B256B02C024F401C023F46A
:10697000000179DD1EC4EAFF1DC4E9FF03C016F45F
:1069800002C015F401C014F400C013F4EACF1CF4E3
:10699000E9CF1BF4D89203C022F402C021F401C055
:1069A00020F400C01FF40401266B256B030E246F36
:1069B000E80E236F000185DD1CC4EAFF1BC4E9FF5C
:1069C00001C012F400C011F4040111510F25096F28
:1069D000125110210A6F01011631070B04010B6FD0
:1069E00015C10CF40D6B010116A903D004010D2B88
:1069F000010104010E6B010116AB03D004010E2B43
:106A00000101040E04014A6F496F4C6B0B0E4B6F72
:106A10000001DAEC1FF012000401046B056B066B39
:106A2000076B086B096B0A6B0B6B0C6B820E046FA8
:106A3000130E056F0C0E066F070E086FE10E076F41
:106A4000010E096F090E0A6F666B010E676F696BA5
:106A5000686B6651400DF3CF6AF4400E6B6FD890AF
:106A600067356A27000E6B23F86A6BC4F7FF6AC4A8
:106A7000F6FF040EEA6E680EE96E6D6B020E6C6F27
:106A8000000142EC12F00401683D05D0693D03D0DD
:106A9000036A000E03D069C403F06851016E03C09D
:106AA00002F002C00CF401C00BF4040E4A6F496FEF
:106AB0004C6B090E4B6F0001DAEC1FF0120003C49F
:106AC00005F402C404F404010451E96E0551EA6EB0
:106AD000EF50010A000105E0010A04E0020A03E0A8
:106AE0000BD0F298F28804C4E9FF05C4EAFFEFCFA7
:106AF00015F1010102D0000103D00001F7EC2BF0E9
:106B00001200040EEA6E0C0EE96EEF500EE0140E49
:106B1000016E006A002EFED7012EFBD7BF0E006E5D
:106B2000002EFED700D0EF2EF2D7B6EF35F0F29C54
:106B3000F29EF2BEFDD704010951400DF3500C6FD7
:106B4000400E0D6FF86A0DC4F7FF0CC4F6FF0BC4BE
:106B5000EAFF0AC4E9FF3E6F00014CEC1BF0C00ED7
:106B6000F212010E04010C6F0001CBD7E2EF35F0F9
:106B700003C405F402C404F401011551020801E044
:106B800024D0040104C4E9FF05C4EAFFEF50020861
:106B900003E201011AD0040104C4E9FF05C4EAFFBD
:106BA000EFCF06F4010E0425016E000E0521036EE1
:106BB00001C007F4086F06C409F40B6F01C00AF4A2
:106BC0000001B5D7F7EC2BF0010100011200040120
:106BD0004951400DF3CF4CF4400E4D6F196AF2BE8F
:106BE000198EF29EF86AF76E4CC4F6FF4BC4EAFFAA
:106BF0004AC4E9FF6D6B400E6C6F000142EC12F06D
:106C000019BEF28E69EF36F003C405F402C404F431
:106C1000040104C4E9FF05C4EAFFEF50020801E2E1
:106C200064D0066B076B086B096B0A6B0B6B0C6B04
:106C30000D6B0E6B0F6B106B116B126B136B146B78
:106C4000156B166B176B186B196B1A6B1B6B1C6B28
:106C50001D6B1E6B1F6B206B216B226B236B246BD8
:106C6000256B266B276B286B296B2A6B2B6B2C6B88
:106C70002D6B2E6B2F6B306B316B326B336B346B38
:106C8000356B366B376B386B396B3A6B3B6B3C6BE8
:106C90003D6B3E6B3F6B406B416B426B436B446B98
:106CA000456B466B476B850E066F04C4E9FF05C450
:106CB000EAFFEFCF07F404C4E9FF05C4EAFFEFCF12
:106CC00048F448C449F4040E4B6F080E4A6F0001A3
:106CD0007ED7040E04014A6F060E496F4C6B420EBC
:106CE0004B6F0001DAEC1FF00401000112000401F7
:106CF000046B056B066B076B086B096B0A6B0B6B00
:106D00000C6B0D6B0E6B0F6B106B116B126B136BAF
:106D1000146B156B166B176B186B196B1A6B1B6B5F
:106D20001C6B1D6B1E6B1F6B206B216B226B236B0F
:106D3000246B256B266B276B286B296B2A6B2B6BBF
:106D40002C6B2D6B2E6B2F6B306B316B326B336B6F
:106D5000346B356B366B376B386B396B3A6B3B6B1F
:106D60003C6B3D6B3E6B3F6B406B416B426B436BCF
:106D7000446B456B466B476B486B070E046F02C450
:106D8000E9FF03C4EAFFEFCF00F0ECCF01F0ECCF56
:106D900002F0ECCF03F003C008F402C007F401C016
:106DA00006F400C005F4040E4A6F496F4C6B450EA3
:106DB0004B6F0001DAEC1FF01200D2EC17F003C0A9
:106DC000FDF302C0FCF301C0FBF300C0FAF30301C2
:106DD000F96BF9511D08D8A0ACD0036A026A016AA8
:106DE000010E006EF951FE6F07E0D89000360136B3
:106DF00002360336FE2FF9D7005002017C1503013D
:106E0000FF6F015002017D150401006F0250020165
:106E10007E150401016F035002017F150401026F0A
:106E20000301FF53D8A483D004010053D8B402D087
:106E300003017DD00153D8B402D0030178D00253AE
:106E4000D8B402D0030173D00301F951080DF350F7
:106E5000FF6BFE6F8C0EFE25E96E010EFF21EA6EC0
:106E6000EFCF00F0ECCF01F0ECCF02F0ECCF03F06D
:106E70000350FD5D5CE30BE10250FC5D58E307E16C
:106E80000150FB5D54E303E10050FA5D50E3036AF7
:106E9000026A016A010E006EF951FE6F07E0D89098
:106EA0000036013602360336FE2FF9D700500201B4
:106EB0007C1301507D1302507E1303507F13030196
:106EC000F951080DF350FF6BFE6F060EFE25016EA3
:106ED000000EFF21036E01508C0F016E010E032284
:106EE00001C0FEF303C0FFF3F951080DF350040194
:106EF000016B006F040E0025016E000E0121036E70
:106F000001508C0FE96E010E0320EA6EECCF01F404
:106F1000ED52EFCF00F4FFC3EAFFFEC3E9FF01C467
:106F200003F400C402F4000134EC11F00301F92B66
:106F300050D70001F5EF1FF00401066B076B066BDD
:106F40000551065D4EE2036A06510125E96E0251C4
:106F50000320EA6EEF507D082BE1062B036A0651F1
:106F60000125E96E02510320EA6EEF505E080BE145
:106F70000751072B036A0325E96E04510320EA6ECB
:106F80007E0EEF6E14D0036A06510125E96E0251A0
:106F90000320EA6EEF505D080AE10751072B036AF0
:106FA0000325E96E04510320EA6E7D0EEF6E17D0C3
:106FB0000751072B036A0325086F04510320096F4B
:106FC000036A06510125E96E02510320EA6EEFCFF4
:106FD0000AF409C4EAFF08C4E9FF0AC4EFFF062B5C
:106FE000AFD707C401F0000104EF38F00301FE6BD6
:106FF000FAC302F4F9C301F4FDC304F4FCC303F4BF
:10700000FBC305F4000198D701C0FEF30301FE5352
:1070100003E1FF0E016E25D0010EFE5D0401016F3C
:10702000FDC358F4FCC357F45A6B596F0001A4EC2C
:107030001FF001C0FFF3010E0301FE5D036AFC2592
:10704000E96EFD510320EA6EEFCF00F40401005118
:107050000301FF5D04E1010EFE5D016E02D0FF0E33
:10706000016E000184EF38F00301F591F66B000129
:107070005CEC13F0EA6A710EE96E006A026AA20E15
:10708000016E19EC1CF0030E0301FA6FF70EF96F95
:10709000000189EF1FF0015205E15CEC13F0F3EC05
:1070A0001FF020D0036A0301F651710FE96E000E44
:1070B0000320EA6EF7C3EFFF036AF651710FE96E22
:1070C000000E0320EA6EEF507E0806E0F62BF65124
:1070D000A20801E1F66B06D0F651010802E2F58143
:1070E00001D0F66B0301F5B102D00001CCD7F5A1B8
:1070F0001FD0FA6B710EF96FF6C3FBF3F2C3FDF309
:10710000F1C3FCF3000172D701C0F8F30301F85199
:10711000FF0803E1000E016E0DD0F3C3E9FFF4C3D5
:10712000EAFFEC6AED52F8C3EFFF010E016E02D0E8
:10713000000E016E000126EF17F0F2C3F6F3F1C363
:10714000F5F30301F76BF75108083FE3F751030D1F
:10715000F350F96BF86F710EF825E96E010EF92105
:10716000EA6EEFCFFAF3F5C3E9FFF6C3EAFFEF509B
:10717000FA5D29E1F751030DF350F96BF86F010E39
:10718000F825016E000EF921036E0150710F016E9A
:10719000010E032201C0F8F303C0F9F3010EF52537
:1071A000016E000EF621036E01C0FAF3F9C3EAFF87
:1071B000F8C3E9FF0401036B01C002F4000134ECE1
:1071C00011F003D00301F72BBED7000136EF17F003
:107F40000000000000000000000000000000000031
:107F50000000000000000000000000000000000021
:107F60000000000000000000000000000000000011
:107F70000000000000000000000000000000000001
:107F800000000000000000000000000000000000F1
:107F900000000000000000000000000000000000E1
:107FA00000000000000000000000000000000000D1
:107FB00000000000000000000000000000000000C1
:107FC00000000000000000000000000000000000B1
:107FD00000000000000000000000000000000000A1
:107FE0000000000000000000000000000000000091
:107FF0000000000000000000000000000000000081
:020000040030CA
:0E00000000F8191C00BF00000FC00FE00F40F9
:00000001FF
;PIC18F45K22
;CRC=52A7  CREATED="19-Dec-17 16:43"

