:0400000080EF00F09D
:08000800046ED8CF05F0E0CF33
:1000100006F00001E9CF0CF0EACF07F0E1CF08F0DD
:10002000E2CF09F0D9CF0AF0DACF0BF0F3CF12F01C
:10003000F4CF13F0FACF14F0F5CF15F0F6CF16F099
:10004000F7CF17F000C00EF001C00FF002C010F0A3
:1000500003C011F09DAA30EF00F09EBA63EF00F0EC
:100060009DA836EF00F09EB889EF04F00EC000F0B6
:100070000FC001F010C002F011C003F00CC0E9FF86
:1000800007C0EAFF078E08C0E1FF09C0E2FF0AC00F
:10009000D9FF0BC0DAFF12C0F3FF13C0F4FF14C086
:1000A000FAFF15C0F5FF16C0F6FF17C0F7FF0450A2
:1000B00006C0E0FF05C0D8FF1000ABA202D0AB988D
:1000C000AB8874EF00F001017651762B036AC20F02
:1000D000E96E000E0320EA6EAECFEFFF7651B40852
:1000E00001E1766B0001E9D79EBAEDD79D8A9E9A11
:1000F00036EF00F08A82FF0E936E47EF03F0120096
:10010000F86AD09E078EEA6AE96A700ED36E9B8CFD
:100110009B9E196AB886100EAF6E000EB06EA60ECA
:10012000AC6E900EAB6E1D6A1C6A1B6A1A6A350EA5
:10013000CD6ECC6ACF6ACE6A9E909298929689963E
:1001400092948994700ED36E9B8C9B9ED36E9B8CE5
:100150009B9ED36E9B8C9B9ED36E9B8C9B9E030120
:1001600080697F697E697D69C150F00BC16E000EA8
:100170000F01386F3C6F396F3A6F3B6F0101886B2D
:10018000776A786A796A1E6A1F6A206A216A226A17
:10019000236A246A256A266A276A286A296A2A6ADB
:1001A0002B6A2C6A2D6A2E6A2F6A306A316A326A8B
:1001B000336A346A356A366A376A386A396A3A6A3B
:1001C0003B6A3C6A3D6A3E6A3F6A406A416A426AEB
:1001D000436A446A456A466A476A486A496A4A6A9B
:1001E0004B6A4C6A4D6A4E6A4F6A506A516A526A4B
:1001F000536A546A556A566A576A586A596A5A6AFB
:100200005B6A5C6A5D6A5E6A5F6A0001606B616B73
:10021000626B636B646B656B666B676B686B696B5A
:100220006A6B6B6B6C6B6D6B6E6B6F6B706B716B0A
:10023000726B736B746B756B766B776B786B796BBA
:100240007A6B7B6B7C6B7D6B7E6B7F6B806B816B6A
:10025000826B836B846B856B866B876B886B896B1A
:100260008A6B8B6B8C6B8D6B8E6B8F6B906B916BCA
:10027000926B936B946B956B966B976B986B996B7A
:100280009A6B9B6B9C6B9D6B9E6B9F6BA06BA16B2A
:10029000A26BA36BA46BA56BA66BA76BA86BA96BDA
:1002A000AA6BAB6BAC6BAD6BAE6BAF6BB06BB16B8A
:1002B000B26BB36BB46BB56BB66BB76BB86BB96B3A
:1002C000BA6BBB6BBC6BBD6BBE6BBF6BC06BC16BEA
:1002D000C26BC36BC46BC56BC66BC76BC86BC96B9A
:1002E000CA6BCB6BCC6BCD6BCE6BCF6BD06BD16B4A
:1002F000D26BD36BD46BD56BD66BD76BD86BD96BFA
:10030000DA6BDB6BDC6BDD6BDE6BDF6BE06BE16BA9
:10031000E26BE36BE46BE56BE66BE76BE86BE96B59
:10032000EA6BEB6BEC6BED6BEE6BEF6BF06BF16B09
:10033000F26BF36BF46BF56BF66BF76BF86BF96BB9
:10034000FA6BFB6BFC6BFD6BFE6BFF6B0101006BD3
:10035000016B026B036B046B056B066B076B086B21
:10036000096B0A6B0B6B0C6B0D6B0E6B0F6B106BD1
:10037000116B126B136B146B156B166B176B186B81
:10038000196B1A6B1B6B1C6B1D6B1E6B1F6B206B31
:10039000216B226B236B246B256B266B276B286BE1
:1003A000296B2A6B2B6B2C6B2D6B2E6B2F6B306B91
:1003B000316B326B336B346B356B366B376B386B41
:1003C000396B3A6B3B6B3C6B3D6B3E6B3F6B406BF1
:1003D000416B426B436B446B456B466B476B486BA1
:1003E000496B4A6B4B6B4C6B4D6B4E6B4F6B506B51
:1003F000516B526B536B546B556B566B576B586B01
:10040000596B5A6B5B6B5C6B5D6B5E6B5F6B606BB0
:10041000616B626B636B646B656B666B676B686B60
:10042000696B6A6B6B6B6C6B6D6B6E6B6F6B706B10
:10043000716B726B736B746B756B766B776B786BC0
:10044000796B7A6B7B6B7C6B7D6B7E6B7F6B806B70
:10045000816B826B836B846B856B866B876B886B20
:10046000896B8A6B8B6B8C6B8D6B8E6B8F6B906BD0
:10047000916B926B936B946B956B966B976B986B80
:10048000996B9A6B9B6B9C6B9D6B9E6B9F6BA06B30
:10049000A16BA26BA36BA46BA56BA66BA76BA86BE0
:1004A000A96BAA6BAB6BAC6BAD6BAE6BAF6BB06B90
:1004B000B16BB26BB36BB46BB56BB66BB76BB86B40
:1004C000B96BBA6BBB6BBC6BBD6BBE6BBF6BC06BF0
:1004D000C16BC26BC36BC46BC56BC66BC76BC86BA0
:1004E000C96BCA6BCB6BCC6BCD6BCE6BCF6BD06B50
:1004F000D16BD26BD36BD46BD56BD66BD76BD86B00
:10050000D96BDA6BDB6BDC6BDD6BDE6BDF6BE06BAF
:10051000E16BE26BE36BE46BE56BE66BE76BE86B5F
:10052000E96BEA6BEB6BEC6BED6BEE6BEF6BF06B0F
:10053000F16BF26BF36BF46BF56BF66BF76BF86BBF
:10054000F96BFA6BFB6BFC6BFD6BFE6BFF6B0201D7
:10055000006B016B026B036B046B056B066B076B27
:10056000086B096B0A6B0B6B0C6B0D6B0E6B0F6BD7
:10057000106B116B126B136B146B156B166B176B87
:10058000186B196B1A6B1B6B1C6B1D6B1E6B1F6B37
:10059000206B216B226B236B246B256B266B276BE7
:1005A000286B296B2A6B2B6B2C6B2D6B2E6B2F6B97
:1005B000306B060E316F120E336FEE0E326F070E78
:1005C000346F140E366F7E0E356F020E376F150EB8
:1005D000396F720E386F080E3A6F150E3C6FBA0EF7
:1005E0003B6F3D6B3E6B3F6B406B416B426B436BB4
:1005F000446B456B466B476B486B496B4A6B4B6B67
:100600004C6B4D6B4E6B4F6B506B516B526B536B16
:10061000546B556B566B576B586B596B5A6B5B6BC6
:100620005C6B5D6B5E6B5F6B606B616B626B636B76
:10063000646B656B666B676B686B696B6A6B6B6B26
:100640006C6B6D6B6E6B6F6B706B716B726B736BD6
:10065000746B756B766B776B786B796B7A6B7B6B86
:100660007C6B7D6B7E6B7F6B806B816B826B836B36
:10067000846B856B866B876B886B896B8A6B8B6BE6
:100680008C6BF29CF29EF2BEFDD7000133D5100EAA
:100690000301816FD8928D6B070E8C6FA10E8B6F4B
:1006A000200E8A6F916B906B8F6B81C38EF300016C
:1006B0004FD100C082F3030183810001A3D902C09E
:1006C00085F301C084F3030184C3E9FF85C3EAFF16
:1006D000EFB012D0866B8251865D0EE2876B81B2DD
:1006E000872B872D02D0839107D081C38AF3000125
:1006F0009CD10301862BEFD783A10CD0000130D20F
:10070000B3D2C00EF21240EF0BF0000E016E13D008
:1007100012D00301000E036EFE0E886F03C089F332
:10072000270E896F886B030EEA6E880EE96E000152
:0807300008D9000E016EFFD78D
:0E080200F76A120FF66E080EF7220900F55085
:100810001200002F5E71BC93E2CD57780926EBC41D
:10082000B59AAE81F0DF123D4C63F9D6A788456AD0
:100830001B34735C2D02CFE091BE240B7A5598B720
:10084000C6E9DDF283AC614E3F108AA5D4FB3619B0
:100850006847E6C9B8975A75042BB19EEFC00D22C0
:10086000537C48671639F4DBAA851F30416EA38C90
:10087000FDD295BACBE429067758C2ED9CB37E51E0
:10088000200F3B14654A87A8D9F66C43321DD0FF70
:100890008EA1E3CCBD925F70012EB49BEAC5082700
:1008A00056794D62133CF1DEAF801A35446BA68950
:1008B000F8D790BFCEE12C03725DC7E899B67B54A0
:1008C000250A3E11604F82ADDCF369463718D5FA30
:1008D0008BA4052A5B74B996E7C8527D0C23EEC140
:1008E000B09FAB84F5DA17384966FCD3A28D406F10
:1008F0001E3176592807CAE594BB210E7F509DB260
:10090000C3ECD8F786A9644B3A158FA0D1FE331CEF
:100910006D4202012C512D5D0FE02D512D2B036AEC
:10092000780FE96E010E0320EA6EEFCFADFF2D5177
:10093000B40801E12D6B01D09D989E98000136EF1F
:1009400000F0ECCFFAFFED52EFCFE8FFF96E1200A6
:10095000D8B204D0030EEA6E920EE96E006A016A04
:10096000026A036A0301926B936B946B956B9151CE
:1009700090118F118E112CE0200E966FD8908A372F
:100980008B378C378D379237933794379537915112
:10099000955D08E19051945D05E18F51935D02E111
:1009A0008E51925D0FE38E51925F8F51D8A08F3D93
:1009B000935F9051D8A0903D945F9151D8A0913D04
:1009C000955FD8800036013602360336962FD6D78B
:1009D00092C3EFFF93C3ECFF94C3ECFF95C3ECFF0E
:1009E000000159EF03F0DEC301F0DDC300F0006643
:1009F000012A0900F5CFEEFF002EFBD7012EF9D713
:100A0000F86A1200F86A100EF76EF66A020EEA6EC5
:100A1000300EE96E0301DE6B010EDD6F0001E3DFD6
:100A2000300E016E020E026E1200010E03018A5F8B
:100A30000CE3030EEA6E8A0EE96EEF5006E0040E38
:100A4000006E002EFED7EF2EFAD7000179EF03F0EB
:100A5000D8C3DEF3D7C3DDF3DAC3E0F3D9C3DFF3E2
:100A60000301DC5303E1DB51000830E2DDC3E9FFA1
:100A7000DEC3EAFFEFCFE1F3E0C303F0DFC3E9FF3A
:100A8000E0C3EAFFEF50E15D16E0DEC303F0DDC333
:100A9000E9FFDEC3EAFFEFCFE1F3E0C303F0DFC31A
:100AA000E9FFE0C3EAFFEF50E15D02E2FF0E01D093
:100AB000010E016E0DD0DD2BD8B4DE2BDF2BD8B4A8
:100AC000E02BDB51D8B4DC07DB07CBD7000E016E7F
:100AD00000011200F250036EF29EA68EA6840F0152
:100AE000550EA76EAA0EA76EA68200000350F21242
:100AF00000011200D08CA69CF6503F0B006EC00E79
:100B0000F6160A00E3C301F0006607D0EECFF5FF4A
:100B1000015204E00F00010603D000060B000C0098
:100B20003F0EF6143F0AF0E1A688D4DFD3DF01665A
:100B3000EBD7F86A1200030EEA6EE30EE96EEF508F
:100B40000EE0140E016E006A002EFED7012EFBD7B8
:100B5000BF0E006E002EFED700D0EF2EF2D712008F
:100B6000800E03018A6FEF0E8B6F8C6BF00E8D6F12
:100B7000040E8E6F6E0E8F6FD80E906FCF0E916F2A
:100B8000D291F86AF76AF66A030EEA6E920EE96E7F
:100B9000DE6B400EDD6F000126DF030E0301D86F10
:100BA000920ED76F030EDA6F8A0ED96FDC6B040ECC
:100BB000DB6F00014DDF015210E00301D281030E13
:100BC000EA6E920EE96E030EE26E8A0EE16E040E7C
:100BD000016EE6CFEEFF012EFCD7030E0301D86FA6
:100BE0009A0ED76F030EDA6F8E0ED96FDC6B040E80
:100BF000DB6F00012DDF015210E00301D281030EF3
:100C0000EA6E9A0EE96E030EE26E8E0EE16E040E2F
:100C1000016EE6CFEEFF012EFCD70301D2A117D063
:100C2000F29CF29EF2BEFDD7F86AF76AF66A030EEE
:100C3000EA6E920EE96E400EE36F00015BDFC00EBC
:100C4000F212010E0301E36F000175DF03010001E1
:100C500080EF03F00101766B776B02012C6B2D6B3B
:100C60009D8A000135EF06F0F5D781EF03F0010111
:100C70007751772B036AC20FE96E000E0320EA6EEC
:100C8000EFCF99F3030101017751B30801E2776BCC
:100C9000030199C301F000015DEF06F001017751F6
:100CA000765D03E1000E016E11D096C303F095C38B
:100CB00097F396C398F30001DAD798C3EAFF97C376
:100CC000E9FF01C0EFFF010E016E010100012EEFEF
:100CD00007F00301A26BA36BA26BA151A25D4FE2CF
:100CE000036AA2519D25E96E9E510320EA6EEF50E2
:100CF0007D082BE1A22B036AA2519D25E96E9E512E
:100D00000320EA6EEF505E080BE1A351A32B036AA8
:100D10009F25E96EA0510320EA6E7E0EEF6E14D07F
:100D2000036AA2519D25E96E9E510320EA6EEF50A1
:100D30005D080AE1A351A32B036A9F25E96EA05128
:100D40000320EA6E7D0EEF6E18D0A351A32B036A29
:100D50009F25016EA051032203C0A5F3036AA2518F
:100D60009D25E96E9E510320EA6EEFCFA6F3A5C341
:100D7000EAFF01C0E9FFA6C3EFFFA22BAED7A3C3D2
:100D800001F00001F9EF06F00301EF6BEEC303F091
:100D9000ED51D8B4EE07ED07F16F03C0F2F3F15354
:100DA00002E1F25314E0ECC303F0EB51EB2BD8B4A7
:100DB000EC2BE96E03C0EAFFEF50EF19F06F036A06
:100DC000F05100011EDDE8CFEFF30301DFD7EFC3E1
:100DD00001F00001120003019A6B96C39EF395C3C4
:100DE0009DF399C3A0F398C39FF397C3A1F30001A8
:100DF00070D701C09AF303019A5303E1FF0E016E0D
:100E000021D0010E9A5D9D6F99C3ECF398C3EBF36B
:100E1000EE6BED6F0001B8DF01C09BF3010E030123
:100E20009A5D036A9825E96E99510320EA6EEFCF27
:100E30009CF39C519B5D04E1010E9A5D016E02D012
:100E4000FF0E016E000161EF07F003019191926BBB
:100E5000030E966F930E956F000120D7015201E1AA
:100E600020D0036A03019251200FE96E000E032087
:100E7000EA6E93C3EFFF036A9251200FE96E000EF2
:100E80000320EA6EEF507E0806E0922B9251A208F2
:100E900001E1926B06D09251010802E2918101D0EA
:100EA000926B030191A1D4D791A11FD0966B200E14
:100EB000956F92C397F38EC399F38DC398F3000196
:100EC0008AD701C094F303019451FF0803E1000E97
:100ED000016E0DD08FC3E9FF90C3EAFFEC6AED52BB
:100EE00094C3EFFF010E016E02D0000E016E0001EF
:100EF0004CEF0BF0030EEA6EA30EE96EA2C3E2FF05
:100F0000A1C3E1FFE6CFEEFFF29CF29EF2BEFDD759
:100F1000F86A100EF76EF66A030EEA6EA30EE96E1B
:100F2000400E0301E36F0001E5DDC00EF212010E79
:100F30000301E36F0001FFDD120064DD02C0A0F3D6
:100F400001C09FF30301A0C303F09FC3A1F3A0C39B
:100F5000A2F39E51FF0A016EE8B006D0A2C3EAFFD9
:100F6000A1C3E9FFEF9005D0A2C3EAFFA1C3E9FF47
:100F7000EF80A0C3A2F39FC3A1F30001BBDF120067
:100F8000E4C3E7F3E3C3E6F30301E96BE5C3E8F386
:100F9000000139D19D88E4EF07F0DEC3E4F3DDC33F
:100FA000E3F3DFC3E5F30301E76B200EE66F000117
:100FB00048D00301E26B01C0E1F3E46B200EE36F64
:100FC000E1C3E5F30001DCD712001CDD02C098F399
:100FD00001C097F3030197C3E9FF98C3EAFFEF82CB
:100FE00098C3A2F397C3A1F3000184DFE4EF0AF0F2
:0E1042000301E86BE96BE4C3ECF3E3C3EBF3EB
:10105000EE6BE5C3EDF3000197DE01C0EAF3010E8C
:101060000301E625EB6F000EE721EC6FE4C3EEF31E
:10107000E3C3EDF3ECC3F0F3EBC3EFF3E5C3F1F33C
:1010800000015FD801C0E8F3010E0301E825036AFF
:10109000E625EB6FE7510320EC6F030EEE6FEA0ECF
:1010A000ED6FECC3F0F3EBC3EFF3010EF16F000152
:1010B00048D801C0E9F30301E6C3E9FFE7C3EAFF4B
:1010C0007E0EEF6EE951E825010F036AE625E96E11
:1010D000E7510320EA6E7E0EEF6EE951E825020F1C
:0810E000016E0001D9EF07F0D9
:0E1142000301F26BF36BF26BF151F25D57E2B9
:10115000036AF251ED25E96EEE510320EA6EEF507D
:101160007E0815E1F351F32B036AEF25E96EF05188
:101170000320EA6E7D0EEF6EF351F32B036AEF2529
:10118000E96EF0510320EA6E5E0EEF6E36D0036A10
:10119000F251ED25E96EEE510320EA6EEF507D0825
:1011A00015E1F351F32B036AEF25E96EF0510320AB
:1011B000EA6E7D0EEF6EF351F32B036AEF25E96EB5
:1011C000F0510320EA6E5D0EEF6E17D0F351F32B52
:1011D000036AEF25F46FF0510320F56F036AF251B3
:1011E000ED25E96EEE510320EA6EEFCFF6F3F5C37D
:1011F000EAFFF4C3E9FFF6C3EFFFF22BA6D7F3C370
:1012000001F000011200B40ED88002012C55030138
:10121000EA6FE95303E1E851EA5D3DE2780E02012D
:101220002C250301EB6F010EEC6FD8B0EC2BECC357
:10123000EAFFEBC3E9FFE7C3E2FFE6C3E1FFEA51E0
:10124000016E04E0E6CFEEFF012EFCD7EA51E85F25
:10125000000EE95BEA51E625EB6F000EE721EC6F2B
:10126000010EEA6E780EE96EECC3E2FFEBC3E1FF1C
:10127000E9C302F0E8C301F0015202E0022A02D001
:10128000025206E0E6CFEEFF012EFCD7022EFAD77F
:10129000E8C32CF224D0780E02012C250301EB6F59
:1012A000010EEC6FD8B0EC2BECC3EAFFEBC3E9FF07
:1012B000E7C3E2FFE6C3E1FFE9C302F0E8C301F0E0
:1012C000015202E0022A02D0025206E0E6CFEEFF0F
:1012D000012EFCD7022EFAD7E85102012C27020179
:1012E0002C51B40801E12C6B0001CAEF07F095C343
:1012F00097F394C396F30301986B996B9A6B9B6B6E
:101300009C6B9D6B860E986F96C3E9FF97C3EAFFAF
:10131000EFCF00F0ECCF01F0ECCF02F0ECCF03F018
:1013200003C09CF302C09BF301C09AF300C099F381
:101330009D6B96C3E9FF97C3EAFFEFCF9EF3ECCF17
:101340009FF3ECCFA0F3ECCFA1F3A15305E1A053A1
:1013500003E19F513F0814E296C3E9FF97C3EAFFF8
:10136000EFCF9EF3ECCF9FF3ECCFA0F3ECCFA1F344
:10137000A15306E1A05304E19F514F08D8B06ED0AD
:1013800096C3E9FF97C3EAFFEFCF9EF3ECCF9FF33D
:10139000ECCFA0F3ECCFA1F3A15305E1A05303E1FF
:1013A0009F511F085BE296C3E9FF97C3EAFFEFCFA7
:1013B0009EF3ECCF9FF3ECCFA0F3ECCFA1F3A153BE
:1013C0004DE1A0534BE19F51FF0848E303E19E51DB
:1013D000FE0844E3000102EC05F002C09FF301C0E7
:1013E0009EF303019EC3E9FF9FC3EAFFEFB004D061
:1013F0009E6B0001A2DD0301F29CF29EF2BEFDD7BE
:101400009651E96E9751EA6EEFCF9EF3ECCF9FF3C2
:10141000ECCFA0F3ECCFA1F3ED52ED52ED52040E60
:101420009625A26F000E9721A36FA0C3F8FF9FC35C
:10143000F7FF9EC3F6FFA3C3EAFFA2C3E9FF400E76
:10144000E36F00017AEC05F0C00EF212010E030109
:10145000E36F00019BEC05F007D00301040E006E62
:10146000002EFED700D00000030E0301DE6F980EA1
:10147000DD6FE06B060EDF6F00018FDD120095C39C
:1014800097F394C396F30301986B996B9A6B9B6BDC
:101490009C6B9D6B9E6B9F6BA06BA16BA26BA36BF8
:1014A000A46BA56BA66BA76BA86BA96BAA6BAB6BA8
:1014B000AC6BAD6BAE6BAF6BB06BB16BB26BB36B58
:1014C000B46BB56BB66BB76BB86BB96BBA6BBB6B08
:1014D000BC6BBD6BBE6BBF6BC06BC16BC26BC36BB8
:1014E000C46BC56BC66BC76BC86BC96BCA6BCB6B68
:1014F000CC6BCD6BCE6BCF6BD06BD16BD26BD36B18
:10150000D46BD56BD66BD76BD86BD96BDA6BDB6BC7
:10151000DC6B870E986F96C3E9FF97C3EAFFEFCFA6
:1015200000F0ECCF01F0ECCF02F0ECCF03F003C001
:101530009CF302C09BF301C09AF300C099F3F86AD0
:101540009AC3F7FF99C3F6FF030EEA6E9D0EE96E8C
:10155000DE6B400EDD6F0001F3EC04F0030E0301BF
:10156000DE6F980EDD6FE06B450EDF6F000115DD5D
:1015700012000301966B976B986B996B9A6B9B6B40
:101580009C6B9D6B9E6B820E966F120E976F060E74
:10159000986F070E9A6FE20E996F0B0E9B6F050EF8
:1015A0009C6F9E6B9D6B030EDE6F960EDD6FE06B86
:1015B000090EDF6F0001F1DC12000301966B010ED2
:1015C0009E6F0001BADC01D5800E0301966F030EF9
:1015D000DE6F960EDD6FE06B010EDF6F0001DDDC6C
:1015E0001200020E0301936F3D0E93C38EF38D6FB5
:1015F0008F6B8F51030841E38F51030DF350936BB1
:10160000926F310E9225E96E020E9321EA6EEFCFB2
:1016100094F38DC3E9FF8EC3EAFFEF50945D2BE195
:101620008EC391F38DC390F3010E9027000E91238A
:101630008F51030DF350936B926F010E9225016E43
:10164000000E9321036E0150310FE96E020E03204C
:10165000EA6EECCF93F3ED52EFCF92F3030EEA6E06
:10166000920EE96E91C395F390C394F30001A1EC3F
:1016700004F003D003018F2BBCD7000154EF0BF013
:10168000020E03018E6F3D0E8D6F030E906F8A0E5A
:101690008F6F000125EF07F003018C9101B08C8161
:1016A0008CA102D000019DD70001EAD785EF03F09D
:020000040030CA
:0E00000000F8191C00BF00000FC00FE00F40F9
:00000001FF
;PIC18F45K22
;CRC=DDA6  CREATED="18-Jun-18 18:21"
