:0420000080EF13F06A
:08200800046ED8CF05F0E0CF13
:1020100006F00001E9CF0CF0EACF07F0E1CF08F0BD
:10202000E2CF09F0D9CF0AF0DACF0BF0F3CF12F0FC
:10203000F4CF13F0FACF14F0F5CF15F0F6CF16F079
:10204000F7CF17F000C00EF001C00FF002C010F083
:1020500003C011F0F2A830EF10F0F2B294EF18F0D4
:102060009DAA36EF10F09EBA51EF13F09DA83CEFF9
:1020700010F09EB868EF13F00EC000F00FC001F032
:1020800010C002F011C003F00CC0E9FF07C0EAFF66
:10209000078E08C0E1FF09C0E2FF0AC0D9FF0BC0EC
:1020A000DAFF12C0F3FF13C0F4FF14C0FAFF15C02B
:1020B000F5FF16C0F6FF17C0F7FF045006C0E0FF9B
:1020C00005C0D8FF1000F76AD60FF66E200EF72273
:1020D0000900F5501200002F5E71BC93E2CD5778D5
:1020E0000926EBC4B59AAE81F0DF123D4C63F9D6F8
:1020F000A788456A1B34735C2D02CFE091BE240B88
:102100007A5598B7C6E9DDF283AC614E3F108AA5D7
:10211000D4FB36196847E6C9B8975A75042BB19EA7
:10212000EFC00D22537C48671639F4DBAA851F30B7
:10213000416EA38CFDD295BACBE429067758C2ED47
:102140009CB37E51200F3B14654A87A8D9F66C4397
:10215000321DD0FF8EA1E3CCBD925F70012EB49BE7
:10216000EAC5082756794D62133CF1DEAF801A3577
:10217000446BA689F8D790BFCEE12C03725DC7E807
:1021800099B67B54250A3E11604F82ADDCF3694657
:102190003718D5FA8BA4052A5B74B996E7C8527D27
:1021A0000C23EEC1B09FAB84F5DA17384966FCD337
:1021B000A28D406F1E3176592807CAE594BB210EC7
:1021C0007F509DB2C3ECD8F786A9644B3A158FA017
:1021D000D1FE331C6D42F76AE60FF66E210EF72230
:1021E0000900F5501200037C0000014441027C000C
:1021F00000014441047C0000014441017C000001D5
:102200004441107C0000014C650800000002504170
:10221000090000000250410500000002464604008B
:102220000000025252070000000252460600000061
:1022300002544D110000000250521F7C0000014169
:102240004E1E7C000001414E0C7C00000154580DD4
:102250007C0000015458187C00000154581D7C007B
:10226000000135565F454E00ECCFFAFFED52EFCF3F
:10227000E8FFF96E120004015251070B006E523153
:10228000016E013201321F0E011601505425E96E14
:10229000000E5521EA6E016A012A002A01D001369A
:1022A000002EFDD7535303E00150EF1203D0011E5F
:1022B0000150EF160001120004014B51070DF350BD
:1022C0004D6B4C6F4DC403F04C51000184DF006E28
:1022D0000900F5CF01F00900F5CF02F00900F5CFB4
:1022E00003F003C051F402C050F401C04FF4E8CF32
:1022F0004EF4E8CF52F40401536B0F0E556F890E64
:10230000546F0001B8DF12000E0E0401496F47C47C
:102310004AF44A532CE049C44BF44B51070DF35097
:102320004D6B4C6F4DC403F04C51000154DF006EF7
:102330000900F5CF01F00900F5CF02F00900F5CF53
:1023400003F003C051F402C050F401C04FF4E8CFD1
:102350004EF4E8CF52F4010E0401536F0F0E556F87
:10236000890E546F000187DF000005D0040149C4C5
:102370004BF40001A1DF00000F0E0401496F47C4B8
:102380004AF44A532CE049C44BF44B51070DF35027
:102390004D6B4C6F4DC403F04C5100011CDF006EBF
:1023A0000900F5CF01F00900F5CF02F00900F5CFE3
:1023B00003F003C051F402C050F401C04FF4E8CF61
:1023C0004EF4E8CF52F4010E0401536F0F0E556F17
:1023D000890E546F00014FDF000005D0040149C48D
:1023E0004BF4000169DF00000401475302E0000ED6
:1023F00001D0010E486F100E496F48C44AF44A5389
:102400002CE049C44BF44B51070DF3504D6B4C6F0E
:102410004DC403F04C510001DEDE006E0900F5CF23
:1024200001F00900F5CF02F00900F5CF03F003C079
:1024300051F402C050F401C04FF4E8CF4EF4E8CF9D
:1024400052F4010E0401536F0F0E556F890E546F35
:10245000000111DF000005D0040149C44BF4000164
:102460002BDF00001200010EEA6E1C0EE96E010E59
:10247000E26E370EE16E1B0E016EE6CFEEFF012E0F
:10248000FCD712004FC401F04EC400F00066012AD0
:102490000900F5CFEEFF002EFBD7012EF9D7F86A21
:1024A0001200010E04014A5F0CE3040EEA6E4A0EAC
:1024B000E96EEF5006E0040E006E002EFED7EF2E00
:1024C000FAD700011200D89004014735036A3D0F86
:1024D000016E010E03220150486F03C049F4070E3C
:1024E0004A6F4A51070DF3504D6B4C6F4DC403F0CA
:1024F0004C51000170DE006E0900F5CF01F00900BB
:10250000F5CF02F00900F5CF03F001C04FF4E8CF9A
:102510004EF404010034006E0134016E0234016E89
:102520000334016E0036013601360136FC0E00160A
:10253000C250830B0010C26EC2824B91C2A24B816B
:102540004BB104D04B91C2A24B81FAD7C2B2FED795
:10255000C4CF03F0C3CF00F0C4CF01F0026A036A16
:1025600049C4EAFF48C4E9FF00C0EFFF01C0ECFF27
:1025700000011200D89004014735036A450F016E2F
:10258000010E03220150486F03C049F4090E4A6F3F
:102590004A51070DF3504D6B4C6F4DC403F04C5135
:1025A000000119DE006E0900F5CF01F00900F5CF3A
:1025B00002F00900F5CF03F001C04FF4E8CF4EF46C
:1025C00004010034006E0134016E0234016E0334E4
:1025D000016E0036013601360136FC0E0016C2507F
:1025E000830B0010C26EC2824B91C2A24B814BB1D1
:1025F00004D04B91C2A24B81FAD7C2B2FED7C4CF4E
:1026000003F0C3CF00F0C4CF01F0026A036A49C4EB
:10261000EAFF48C4E9FF00C0EFFF01C0ECFF000182
:102620001200B60E006E036A026A016A04014A5182
:102630004B114C114D1102E1006A0DD0D89001BE32
:1026400009D04A374B374C374D37033602360136FF
:10265000002EF4D7019E000112008E0E006E0401C0
:102660004651005E47C402F048C401F0028E005299
:1026700009E0D890025202E1015204E00232013234
:10268000002EF7D747AF05D0011E021E012AD8B48D
:10269000022A00011200ABA202D0AB98AB8862EF15
:1026A00013F003011851182B036A640FE96E020E30
:1026B0000320EA6EAECFEFFF1851B40801E1186BAA
:1026C0000001E9D79EBAEDD79D8A9E9A3CEF10F0A3
:1026D0000301CE51CF5D0FE0CF51CF2B036A1A0F0C
:1026E000E96E030E0320EA6EEFCFADFFCF51B408C1
:1026F00001E1CF6B01D09D989E9800013CEF10F056
:10270000F86AD09E078EEA6AE96A700ED36E9B8CD7
:102710009B9E1A6AB886100EAF6E000EB06EA60EA3
:10272000AC6E900EAB6E1E6A1D6A1C6A1B6A350E7B
:10273000CD6ECC6ACF6ACE6A9E9092989296899618
:1027400092948994700ED36E9B8C9B9E0101536B67
:10275000526B556B546B576B566BD36E9B8C9B9E19
:1027600002016369626961696069D36E9B8C9B9E9B
:10277000C150F00BC16E000E0F01386F3C6F396F06
:102780003A6F3B6F0101886B776A786A796A1F6AD2
:10279000206A216A226A236A246A256A266A276ACD
:1027A000286A296A2A6A2B6A2C6A2D6A2E6A2F6A7D
:1027B000306A316A326A336A346A356A366A376A2D
:1027C000386A396A3A6A3B6A3C6A3D6A3E6A3F6ADD
:1027D000406A416A426A436A446A456A466A476A8D
:1027E000486A496A4A6A4B6A4C6A4D6A4E6A4F6A3D
:1027F000506A516A526A536A546A556A566A576AED
:10280000586A596A5A6A5B6A5C6A5D6A5E6A5F6A9C
:102810000001606B616B626B636B646B656B666B15
:10282000676B686B696B6A6B6B6B6C6B6D6B6E6BFC
:102830006F6B706B1F6A206A716B726B736B746B5A
:10284000756B766B776B786B796B7A6B7B6B7C6B6C
:102850007D6B7E6B7F6B806B816B826B836B846B1C
:10286000856B866B876B886B896B8A6B8B6B8C6BCC
:102870008D6B8E6B8F6B906B916B926B936B946B7C
:10288000956B966B976B986B996B9A6B9B6B9C6B2C
:102890009D6B9E6B9F6BA06BA16BA26BA36BA46BDC
:1028A000A56BA66BA76BA86BA96BAA6BAB6BAC6B8C
:1028B000AD6BAE6BAF6BB06BB16BB26BB36BB46B3C
:1028C000B56BB66BB76BB86BB96BBA6BBB6BBC6BEC
:1028D000BD6BBE6BBF6BC06BC16BC26BC36BC46B9C
:1028E000C56BC66BC76BC86BC96BCA6BCB6BCC6B4C
:1028F000CD6BCE6BCF6BD06BD16BD26BD36BD46BFC
:10290000D56BD66BD76BD86BD96BDA6BDB6BDC6BAB
:10291000DD6BDE6BDF6BE06BE16BE26BE36BE46B5B
:10292000E56BE66BE76BE86BE96BEA6BEB6BEC6B0B
:10293000ED6BEE6BEF6BF06BF16BF26BF36BF46BBB
:10294000F56BF66BF76BF86BF96BFA6BFB6BFC6B6B
:10295000FD6BFE6BFF6B0101006B016B026B036B88
:10296000046B056B066B076B086B096B0A6B0B6BD3
:102970000C6B0D6B0E6B0F6B106B116B126B136B83
:10298000146B156B1C6B1D6B1E6B1F6B206B216B0F
:10299000226B236B246B256B266B276B286B296BB3
:1029A0002A6B2B6B2C6B2D6B2E6B2F6B306B316B63
:1029B000326B336B346B356B366B376B386B396B13
:1029C0003A6B3B6B3C6B3D6B3E6B3F6B406B416BC3
:1029D000426B436B446B456B466B476B486B496B73
:1029E0004A6B4B6B4C6B4D6B4E6B4F6B506B516B23
:1029F000586B580E5A6FEC0E596F090E5B6F610ED3
:102A00005D6F900E5C6F020E5E6F630E606F520E14
:102A10005F6F030E616F640E636F1C0E626F040EB6
:102A2000646F640E666FCE0E656F050E676F650E80
:102A3000696F640E686F060E6A6F660E6C6F500EDB
:102A40006B6F070E6D6F660E6F6F540E6E6F020127
:102A5000646B656B666B676B686B696B6A6B6B6BE2
:102A60006C6B6D6B6E6B6F6B706B716B726B736B92
:102A7000746B756B766B776B786B796B7A6B7B6B42
:102A80007C6B7D6B7E6B7F6B806B816B826B836BF2
:102A9000846B856B866B876B886B896B8A6B8B6BA2
:102AA0008C6B8D6B8E6B8F6B906B916B926B936B52
:102AB000946B956B966B976B986B996B9A6B9B6B02
:102AC0009C6B9D6B9E6B9F6BA06BA16BA26BA36BB2
:102AD000A46BA56BA66BA76BA86BA96BAA6BAB6B62
:102AE000AC6BAD6BAE6BAF6BB06BB16BB26BB36B12
:102AF000B46BB56BB66BB76BB86BB96BBA6BBB6BC2
:102B0000BC6BBD6BBE6BBF6BC06BC16BC26BC36B71
:102B1000C46BC56BC66BC76BC86BC96BCA6BCB6B21
:102B2000CC6BCD6BCE6BCF6BD06BD16BD26BD36BD1
:102B3000D46BD56BD66BD76BD86BD96BDA6BDB6B81
:102B4000DC6BDD6BDE6BDF6BE06BE16BE26BE36B31
:102B5000E46BE56BE66BE76BE86BE96BEA6BEB6BE1
:102B6000EC6BED6BEE6BEF6BF06BF16BF26BF36B91
:102B7000F46BF56BF66BF76BF86BF96BFA6BFB6B41
:102B8000FC6BFD6BFE6BFF6B0301006B016B026B5B
:102B9000036B046B056B066B076B086B096B0A6BA9
:102BA0000B6B0C6B0D6B0E6B0F6B106B116B126B59
:102BB000136B146B156B166B176B186B196B1A6B09
:102BC0001B6B1C6B1D6B1E6B1F6B206B216B226BB9
:102BD000236B246B256B266B276B286B296B2A6B69
:102BE0002B6B2C6B2D6B2E6B2F6B306B316B326B19
:102BF000336B346B356B366B376B386B396B3A6BC9
:102C00003B6B3C6B3D6B3E6B3F6B406B416B426B78
:102C1000436B446B456B466B476B486B496B4A6B28
:102C20004B6B4C6B4D6B4E6B4F6B506B516B526BD8
:102C3000536B546B556B566B576B586B596B5A6B88
:102C40005B6B5C6B5D6B5E6B5F6B606B616B626B38
:102C5000636B646B656B666B676B686B696B6A6BE8
:102C60006B6B6C6B6D6B6E6B6F6B706B716B726B98
:102C7000736B746B756B766B776B786B796B7A6B48
:102C80007B6B7C6B7D6B7E6B7F6B806B816B826BF8
:102C9000836B846B856B866B876B886B896B8A6BA8
:102CA0008B6B8C6B8D6B8E6B8F6B906B916B926B58
:102CB000936B946B956B966B976B986B996B9A6B08
:102CC0009B6B9C6B9D6B9E6B9F6BA06BA16BA26BB8
:102CD000A36BA46BA56BA66BA76BA86BA96BAA6B68
:102CE000AB6BAC6BAD6BAE6BAF6BB06BB16BB26B18
:102CF000B36BB46BB56BB66BB76BB86BB96BBA6BC8
:102D0000BB6BBC6BBD6BBE6BBF6BC06BC16BC26B77
:102D1000C36BC46BC56BC66BC76BC86BC96BCA6B27
:102D2000CB6BCC6BCD6BCE6BCF6B0001B8EF1BF0D8
:102D30003EEF1CF041EF1CF075EF1CF0C00EF212DC
:102D4000040E04014B6F4B51070DF3504D6B4C6F4C
:102D50004DC403F04C510001EBEC10F0006E090083
:102D6000F5CF01F00900F5CF02F00900F5CF03F02F
:102D700003C051F402C050F401C04FF4E8CF4EF448
:102D8000E8CF52F4010E0401536F0F0E556F890EF8
:102D9000546F00013BEC11F00000110E04014B6F69
:102DA0004B51070DF3504D6B4C6F4DC403F04C511C
:102DB0000001EBEC10F0006E0900F5CF01F0090006
:102DC000F5CF02F00900F5CF03F003C051F402C0C3
:102DD00050F401C04FF4E8CF4EF4E8CF52F4010EA6
:102DE0000401536F0F0E556F890E546F00013BECB9
:102DF00011F0000000EF28F00301D66B210ED56F13
:102E0000030ED86FD20ED76F0001BEEF29F0030179
:102E1000D49101B0D481D4A10BD0D66B210ED56F43
:102E2000D3C3D8F3D2C3D7F3000194EF33F0030137
:042E3000E4D7FFD70D
:0E2F02000401486B040E496F4B6B4A6B48513B
:102F1000400DF3CF4CF4400E4D6FD89049354C27FF
:102F2000000E4D23F86A4DC4F7FF4CC4F6FF040EA3
:102F3000EA6E4A0EE96E4F6B020E4E6F000142ECD4
:102F400012F004014A3D05D04B3D03D0036A000E48
:102F500003D04BC403F04A51016E03C002F002C01B
:102F600047F401C046F4010E0101516F080E04013F
:102F70004A6F4A51070DF3504D6B4C6F4DC403F02F
:102F80004C510001EBEC10F0006E0900F5CF01F0A0
:102F90000900F5CF02F00900F5CF03F001C04FF4AE
:102FA000E8CF4EF404010034006E0134016E0234A7
:102FB000016E0334016E0036013601360136FC0E17
:102FC0000016C250830B0010C26EC2824B91C2A287
:102FD0004B814BB104D04B91C2A24B81FAD7C2B204
:102FE000FED7C4CF03F0C3CF00F0C4CF01F0026A14
:102FF000036A005001013D5D0401486F0150010169
:103000003E590401496F000E02544A6F000E0354EA
:103010004B6F4B530CE14A530AE14951475D07E3BB
:1030200003E14651485D03E20101516B04010001D7
:10303000120004014A51D8B471D0006E4E51D8B478
:103040006DD0002604E3810E002668E204D07F0ED6
:10305000005E64E363E04BC452F44F51521B4B8F4C
:103060004F8F4D515103F4CF54F44C515003F4CFD2
:1030700003F0F3CF53F45103F3505427F450532388
:10308000000E03224D515003F3505427F4505323A4
:10309000000E026A032202224B515103F3505327C0
:1030A000F4500322000E02224B515003F35003262A
:1030B000F4500222000E016A01224D514F03F350D9
:1030C0005327F4500322000E022201224C514F03D9
:1030D000F3500326F4500222000E01224B514F03FD
:1030E000F3500226F4500122002A01BE05D05337C6
:1030F0000336023601360006000E53AF0AD0032A0B
:1031000002220122015005E1025003E1035001E1D6
:10311000002A52BF018E52AF019E04D0006A016A9C
:10312000026A036A00011200010119BFEBD01951B4
:103130001619100BD8B484D0000E19B9010E040171
:10314000466F46C447F40C0E496F47C44AF44A53CD
:103150002EE049C44BF44B51070DF3504D6B4C6FAF
:103160004DC403F04C510001EBEC10F0006E09006F
:10317000F5CF01F00900F5CF02F00900F5CF03F01B
:1031800003C051F402C050F401C04FF4E8CF4EF434
:10319000E8CF52F4010E0401536F0F0E556F890EE4
:1031A000546F00013BEC11F0000006D0040149C44B
:1031B0004BF400015CEC11F000000401475302E005
:1031C000000E01D0010E486F0D0E496F48C44AF43D
:1031D0004A532EE049C44BF44B51070DF3504D6B4D
:1031E0004C6F4DC403F04C510001EBEC10F0006E3D
:1031F0000900F5CF01F00900F5CF02F00900F5CF85
:1032000003F003C051F402C050F401C04FF4E8CF02
:103210004EF4E8CF52F4010E0401536F0F0E556FB8
:10322000890E546F00013BEC11F0000006D0040140
:1032300049C44BF400015CEC11F0000000000101F6
:103240000401419101011931070B0401466F01018D
:1032500016C100F01631070B0401465D06E10101BD
:1032600019511619200B03E00401418101010401E9
:1032700041A139D0030E4B6F00015CEC11F0040149
:10328000466B4651090802E3462BFBD7030E4B6FF2
:103290004B51070DF3504D6B4C6F4DC403F04C5127
:1032A0000001EBEC10F0006E0900F5CF01F0090011
:1032B000F5CF02F00900F5CF03F003C051F402C0CE
:1032C00050F401C04FF4E8CF4EF4E8CF52F4010EB1
:1032D0000401536F0F0E556F890E546F00013BECC4
:1032E00011F000000000010119511619010B0AE04C
:1032F000000E19B1010E0401466F476F000184EC06
:1033000011F00101000133EC12F00401406B405157
:103310000308D8A093D040C446F4486B100E496F00
:103320004B6B4A6B4851400DF3CF4CF4400E4D6F40
:10333000D89049354C27000E4D23F86A4DC4F7FF4D
:103340004CC4F6FF040EEA6E4A0EE96E4F6B020E95
:103350004E6F000142EC12F004014A3D05D04B3D96
:1033600003D0036A000E03D04BC403F04A51016E30
:1033700003C002F002C048F401C047F448C449F455
:10338000492B4907D8B406D04A69000151EC12F024
:103390000401F7D747C44AF4000151EC12F046C4C7
:1033A00047F463EC12F00401486B110E496F4B6B4C
:1033B0004A6B4851400DF3CF4CF4400E4D6FD890FE
:1033C00049354C27000E4D23F86A4DC4F7FF4CC415
:1033D000F6FF040EEA6E4A0EE96E4F6B020E4E6F58
:1033E000000142EC12F004014A3D05D04B3D03D0F0
:1033F000036A000E03D04BC403F04A51016E03C0B0
:1034000002F002C048F401C047F448C449F4492B13
:103410004907D8B406D04A69000151EC12F0040102
:10342000F7D747C44AF4000151EC12F046C447F400
:10343000BAEC12F000000401402B69D7000161DDF5
:103440000A0E04014A6F4A51070DF3504D6B4C6F41
:103450004DC403F04C510001EBEC10F0006E09007C
:10346000F5CF01F00900F5CF02F00900F5CF03F028
:1034700001C04FF4E8CF4EF404010034006E013473
:10348000016E0234016E0334016E003601360136DE
:103490000136FC0E0016C250830B0010C26EC282B1
:1034A0004B91C2A24B814BB104D04B91C2A24B8134
:1034B000FAD7C2B2FED7C4CF03F0C3CF00F0C4CF57
:1034C00001F0026A036A03C049F402C048F401C073
:1034D00047F400C046F4A70E465F000E475B485B0A
:1034E000495B49C44DF448C44CF447C44BF446C44A
:1034F0004AF4000111EC13F003C04DF402C04CF487
:1035000001C04BF400C04AF4C00E0401516F260EF6
:10351000506F1B0E4F6F7D0E4E6F00018ADD03C092
:1035200049F402C048F401C047F400C046F42DEC51
:1035300013F002C04EF101C04DF1050E04014A6FB7
:103540004A51070DF3504D6B4C6F4DC403F04C5175
:103550000001EBEC10F0006E0900F5CF01F009005E
:10356000F5CF02F00900F5CF03F001C04FF4E8CF2A
:103570004EF404010034006E0134016E0234016E19
:103580000334016E0036013601360136FC0E00169A
:10359000C250830B0010C26EC2824B91C2A24B81FB
:1035A0004BB104D04B91C2A24B81FAD7C2B2FED725
:1035B000C4CF03F0C3CF00F0C4CF01F0026A036AA6
:1035C00001C043F400C042F4060E4A6F4A51070D91
:1035D000F3504D6B4C6F4DC403F04C510001EBECBC
:1035E00010F0006E0900F5CF01F00900F5CF02F0F0
:1035F0000900F5CF03F001C04FF4E8CF4EF4040109
:103600000034006E0134016E0234016E0334016E29
:103610000036013601360136FC0E0016C250830B0F
:103620000010C26EC2824B91C2A24B814BB104D03A
:103630004B91C2A24B81FAD7C2B2FED7C4CF03F0DE
:10364000C3CF00F0C4CF01F0026A036A01C045F4A1
:1036500000C044F44451422501014F6F040145511B
:1036600043210101506F1BC13CF11AC13BF11BC149
:1036700018F11AC117F119C116F1F288132BD8B439
:10368000142BF29200013CEF10F023C429F422C461
:1036900028F425C42BF424C42AF40401275303E19D
:1036A0002651000830E228C4E9FF29C4EAFFEFCF21
:1036B0002CF42BC403F02AC4E9FF2BC4EAFFEF501B
:1036C0002C5D16E029C403F028C4E9FF29C4EAFFF1
:1036D000EFCF2CF42BC403F02AC4E9FF2BC4EAFF7C
:1036E000EF502C5D02E2FF0E01D0010E016E0DD0F5
:1036F000282BD8B4292B2A2BD8B42B2B2651D8B45D
:1037000027072607CBD7000E016E00011200F250EA
:10371000036EF29EA68EA6840F01550EA76EAA0E0A
:10372000A76EA68200000350F21200011200D08C96
:10373000A69CF6503F0B006EC00EF6160A0022C47F
:1037400001F0006607D0EECFF5FF015204E00F0054
:10375000010603D000060B000C003F0EF6143F0AD2
:10376000F0E1A688D4DFD3DF0166EBD7F86A120058
:103770000301D591196AF2BE198EF29EF86AF76AB2
:10378000F66A030EEA6ED60EE96E04014F6B400E28
:103790004E6F000142EC12F019BEF28E0401166960
:1037A000176918691969800E1A6FEF0E1B6F130ED7
:1037B0001C6FF00E1D6F030E236FD60E226F040ECA
:1037C000256F160E246F276B040E266F00015DDF38
:1037D000015210E10301D581030EEA6ED60EE96EA7
:1037E000040EE26E1A0EE16E040E016EE6CFEEFFDD
:1037F000012EFCD7040E04011E6FEF0E1F6F100E7A
:10380000206FF00E216F030E236FDE0E226F040E69
:10381000256F1E0E246F276B040E266F000135DF07
:10382000015210E00301D581030EEA6EDE0EE96E4F
:10383000040EE26E1E0EE16E040E016EE6CFEEFF88
:10384000012EFCD70301D5A10DD0F86AF76AF66AFC
:10385000030EEA6ED60EE96E400E0401226F0001DF
:1038600066DF0301000198EF16F00301186B196B76
:10387000CE6BCF6B9D8A00013FEF1CF0F6D79AEF1D
:1038800016F0200E926E0F0E936EA00E946E000E28
:10389000956E9680968296849696896A8A6A8C6AD4
:1038A0008D6AC150F00BC16E200E0F01386F070EEC
:1038B0003C6F0C0E396F200E3A6F000E3B6FC050FC
:1038C000C00B2509C06EC08EC28000019CEF16F0AF
:1038D000016603D0026602D007D0022A00C0EEFFC4
:1038E000012EFCD7022EFAD712000101146B136BC4
:1038F000156B010EEA6E370EE96E006A026A1B0E46
:10390000016E0001E5DF010EEA6E1C0EE96E006A31
:10391000026A1B0E016EDCDF010EEA6E190EE96E03
:10392000006A026A030E016ED3DF1BC118F11AC1CF
:1039300017F119C116F1F10E010116150609166FDE
:103940001689168119BFEBD019511619100BD8B46E
:1039500084D0000E19B9010E0401466F46C447F425
:103960000C0E496F47C44AF44A532EE049C44BF445
:103970004B51070DF3504D6B4C6F4DC403F04C5140
:103980000001EBEC10F0006E0900F5CF01F009002A
:10399000F5CF02F00900F5CF03F003C051F402C0E7
:1039A00050F401C04FF4E8CF4EF4E8CF52F4010ECA
:1039B0000401536F0F0E556F890E546F00013BECDD
:1039C00011F0000006D0040149C44BF400015CEC86
:1039D00011F000000401475302E0000E01D0010E77
:1039E000486F0D0E496F48C44AF44A532EE049C44B
:1039F0004BF44B51070DF3504D6B4C6F4DC403F01E
:103A00004C510001EBEC10F0006E0900F5CF01F015
:103A10000900F5CF02F00900F5CF03F003C051F41F
:103A200002C050F401C04FF4E8CF4EF4E8CF52F496
:103A3000010E0401536F0F0E556F890E546F000174
:103A40003BEC11F0000006D0040149C44BF4000126
:103A50005CEC11F000000000010104014191010142
:103A60001931070B0401466F010116C100F0163130
:103A7000070B0401465D06E1010119511619200BDF
:103A800003E0040141810101040141A139D0030E89
:103A90004B6F00015CEC11F00401466B46510908C4
:103AA00002E3462BFBD7030E4B6F4B51070DF35030
:103AB0004D6B4C6F4DC403F04C510001EBEC10F01A
:103AC000006E0900F5CF01F00900F5CF02F0090002
:103AD000F5CF03F003C051F402C050F401C04FF41D
:103AE000E8CF4EF4E8CF52F4010E0401536F0F0EED
:103AF000556F890E546F00013BEC11F0000000007F
:103B0000010119511619010B0AE0000E19B1010E3D
:103B10000401466F476F000184EC11F001010001C0
:103B200033EC12F00401406B40510308D8A093D04D
:103B300040C446F4486B100E496F4B6B4A6B4851BA
:103B4000400DF3CF4CF4400E4D6FD89049354C27C3
:103B5000000E4D23F86A4DC4F7FF4CC4F6FF040E67
:103B6000EA6E4A0EE96E4F6B020E4E6F000142EC98
:103B700012F004014A3D05D04B3D03D0036A000E0C
:103B800003D04BC403F04A51016E03C002F002C0DF
:103B900048F401C047F448C449F4492B4907D8B454
:103BA00006D04A69000151EC12F00401F7D747C46E
:103BB0004AF4000151EC12F046C447F463EC12F0F1
:103BC0000401486B110E496F4B6B4A6B4851400D15
:103BD000F3CF4CF4400E4D6FD89049354C27000E72
:103BE0004D23F86A4DC4F7FF4CC4F6FF040EEA6E8D
:103BF0004A0EE96E4F6B020E4E6F000142EC12F05E
:103C000004014A3D05D04B3D03D0036A000E03D0AA
:103C10004BC403F04A51016E03C002F002C048F4E5
:103C200001C047F448C449F4492B4907D8B406D029
:103C30004A69000151EC12F00401F7D747C44AF475
:103C4000000151EC12F046C447F4BAEC12F0000047
:103C50000401402B69D7000181EC17F00A0E040122
:103C60004A6F4A51070DF3504D6B4C6F4DC403F032
:103C70004C510001EBEC10F0006E0900F5CF01F0A3
:103C80000900F5CF02F00900F5CF03F001C04FF4B1
:103C9000E8CF4EF404010034006E0134016E0234AA
:103CA000016E0334016E0036013601360136FC0E1A
:103CB0000016C250830B0010C26EC2824B91C2A28A
:103CC0004B814BB104D04B91C2A24B81FAD7C2B207
:103CD000FED7C4CF03F0C3CF00F0C4CF01F0026A17
:103CE000036A03C049F402C048F401C047F400C0AD
:103CF00046F4A70E465F000E475B485B495B49C42C
:103D00004DF448C44CF447C44BF446C44AF4000193
:103D100011EC13F003C04DF402C04CF401C04BF49D
:103D200000C04AF4C00E0401516F260E506F1B0EE6
:103D30004F6F7D0E4E6F000119EC18F003C049F46F
:103D400002C048F401C047F400C046F42DEC13F063
:103D500002C04EF101C04DF1050E04014A6F4A51F7
:103D6000070DF3504D6B4C6F4DC403F04C510001E7
:103D7000EBEC10F0006E0900F5CF01F00900F5CF73
:103D800002F00900F5CF03F001C04FF4E8CF4EF484
:103D900004010034006E0134016E0234016E0334FC
:103DA000016E0036013601360136FC0E0016C25097
:103DB000830B0010C26EC2824B91C2A24B814BB1E9
:103DC00004D04B91C2A24B81FAD7C2B2FED7C4CF66
:103DD00003F0C3CF00F0C4CF01F0026A036A01C050
:103DE00043F400C042F4060E4A6F4A51070DF350E7
:103DF0004D6B4C6F4DC403F04C510001EBEC10F0D7
:103E0000006E0900F5CF01F00900F5CF02F00900BE
:103E1000F5CF03F001C04FF4E8CF4EF404010034B5
:103E2000006E0134016E0234016E0334016E0036FF
:103E3000013601360136FC0E0016C250830B00100D
:103E4000C26EC2824B91C2A24B814BB104D04B9146
:103E5000C2A24B81FAD7C2B2FED7C4CF03F0C3CF00
:103E600000F0C4CF01F0026A036A01C045F400C04B
:103E700044F44451422501014F6F0401455143214F
:103E80000101506F1BC13CF11AC13BF11BC118F17C
:103E90001AC117F119C116F1F288F18CF2880001EC
:103EA0009EEF16F08E0E006E0CC401F00BC402F0F3
:103EB000036A015209E102C001F0026A080E005EC5
:103EC000015202E1006A08D0D89001BE04D0023647
:103ED00001360006F9D7019E1200040112511008A4
:103EE00005E0136F10371137132FFCD79298929675
:103EF00089969294899412C413F48986050E146FDE
:103F0000142FFED711AF899811BF89881037113748
:103F1000160E146F142FFED78996060E146F142FE9
:103F2000FED7132FEAD789840001C0EF1FF00401E8
:103F3000116B026A036A0BB1038E02500301D02594
:103F40000401106F03500301D1210401116F0D51C1
:103F5000030B136F0C35026E1335036E02360336F6
:103F6000FC0E0216025010250E6F035011210F6F28
:103F70000FC411F40EC410F4100E126F0001ADD76F
:103F8000120003011951192B036A640FE96E020E26
:103F90000320EA6EEFCFE1F31951B30801E2196B88
:103FA000E1C301F00001E4EF1FF003011951185DB6
:103FB00003E1000E016E11D0DEC303F0DDC3DFF3B9
:103FC000DEC3E0F30001DDD7E0C3EAFFDFC3E9FFB2
:103FD00001C0EFFF010E016E03010001C8EF29F0DF
:103FE0002DC430F42CC42FF40401326B2EC431F4F0
:0C3FF0000001CFEF2AF09D885BEF2BF062
:105000000301D16BD06B030E04014B6F4B51070DA5
:10501000F3504D6B4C6F4DC403F04C510001EBEC61
:1050200010F0006E0900F5CF01F00900F5CF02F095
:105030000900F5CF03F003C051F402C050F401C0E1
:105040004FF4E8CF4EF4E8CF52F4010E0401536F51
:105050000F0E556F890E546F00013BEC11F00000EC
:105060000401066B086B076B08C40CF407C40BF44F
:10507000000152EC1FF0196AF2BE198EF29E03C0B5
:105080004DF402C04CF401C04BF400C04AF4170EBA
:105090000401516FB70E506F510E4F6F7C0E4E6F63
:1050A000000119EC18F019BEF28E196AF2BE198EC1
:1050B000F29E03C049F402C048F401C047F400C0A6
:1050C00046F42DEC13F019BEF28E02C00AF401C0B2
:1050D00009F404010A51030803E2030E0A6F096987
:1050E00006C40BF40AC40DF409C40CF4000197ECD7
:1050F0001FF00000010E0401066F086B076B08C467
:105100000CF407C40BF4000152EC1FF0196AF2BE54
:10511000198EF29E03C04DF402C04CF401C04BF452
:1051200000C04AF4170E0401516FB70E506F510EB4
:105130004F6F7C0E4E6F000119EC18F019BEF28E05
:10514000196AF2BE198EF29E03C049F402C048F4F7
:1051500001C047F400C046F42DEC13F019BEF28EE6
:1051600002C00AF401C009F404010A51030803E271
:10517000030E0A6F096906C40BF40AC40DF409C4CE
:105180000CF4000197EC1FF00000030E04014B6FBC
:1051900000015CEC11F00401466B4651090802E382
:1051A000462BFBD7030E4B6F4B51070DF3504D6B46
:1051B0004C6F4DC403F04C510001EBEC10F0006E4D
:1051C0000900F5CF01F00900F5CF02F00900F5CF95
:1051D00003F003C051F402C050F401C04FF4E8CF13
:1051E0004EF4E8CF52F4010E0401536F0F0E556FC9
:1051F000890E546F00013BEC11F000000000FCEF41
:1052000016F00301EA6BEB6BEA6BE951EA5D4EE2E3
:10521000036AEA51E525E96EE6510320EA6EEF5094
:105220007D082BE1EA2B036AEA51E525E96EE65198
:105230000320EA6EEF505E080BE1EB51EB2B036AA3
:10524000E725E96EE8510320EA6E7E0EEF6E14D07A
:10525000036AEA51E525E96EE6510320EA6EEF5054
:105260005D080AE1EB51EB2B036AE725E96EE85193
:105270000320EA6E7D0EEF6E17D0EB51EB2B036A25
:10528000E725EC6FE8510320ED6F036AEA51E5254D
:10529000E96EE6510320EA6EEFCFEEF3EDC3EAFFCD
:1052A000ECC3E9FFEEC3EFFFEA2BAFD7EBC301F08E
:1052B000000191EF29F00401386B37C403F0365137
:1052C000D8B4370736073A6F03C03BF43A5302E1CC
:1052D0003B5315E035C403F03451342BD8B4352B8F
:1052E000E96E03C0EAFFEF503819396F036A39518C
:1052F000000163EC10F0E8CF38F40401DED738C4C5
:1053000001F0000112000301E26BDEC3E6F3DDC32E
:10531000E5F3E1C3E8F3E0C3E7F3DFC3E9F300013A
:1053200070D701C0E2F30301E25303E1FF0E016E07
:1053300022D0010EE25DE56FE1C335F4E0C334F441
:105340000401376B366F0001B6DF01C0E3F3010ED5
:105350000301E25D036AE025E96EE1510320EA6E94
:10536000EFCFE4F3E451E35D04E1010EE25D016E91
:1053700002D0FF0E016E0001FBEF29F00301D9916D
:10538000DA6B030EDE6FDB0EDD6F0001D5EF1FF071
:10539000015201E120D0036A0301DA51710FE96E75
:1053A000000E0320EA6EDBC3EFFF036ADA51710FD0
:1053B000E96E000E0320EA6EEF507E0806E0DA2B5D
:1053C000DA51A20801E1DA6B06D0DA51010802E2F3
:1053D000D98101D0DA6B0301D9A1D3D7D9A11FD0CC
:1053E000DE6B710EDD6FDAC3DFF3D6C3E1F3D5C335
:1053F000E0F3000188D701C0DCF30301DC51FF08B2
:1054000003E1000E016E0DD0D7C3E9FFD8C3EAFF58
:10541000EC6AED52DCC3EFFF010E016E02D0000E0C
:10542000016E000107EF17F004013B6B3C6B3B6B17
:105430003A513B5D58E2036A3B513625E96E3751DC
:105440000320EA6EEF507E0815E13C513C2B036AC5
:105450003825E96E39510320EA6E7D0EEF6E3C511E
:105460003C2B036A3825E96E39510320EA6E5E0E43
:10547000EF6E37D0036A3B513625E96E3751032072
:10548000EA6EEF507D0815E13C513C2B036A38254C
:10549000E96E39510320EA6E7D0EEF6E3C513C2BD4
:1054A000036A3825E96E39510320EA6E5D0EEF6E0E
:1054B00018D03C513C2B036A3825016E3951032228
:1054C00003C03EF4036A3B513625E96E3751032091
:1054D000EA6EEFCF3FF43EC4EAFF01C0E9FF3FC4EC
:1054E000EFFF3B2BA5D73CC401F0000112000401E3
:1054F000316B326B2DC435F42CC434F4376B2EC4AD
:1055000036F40001D8DE01C033F4010E04012F256A
:10551000016E000E3021036E01C034F4356F2DC4CE
:1055200037F42CC436F4396F01C038F42EC43AF481
:1055300000017ADF01C031F4010E04013125036A54
:105540002F25016E3051032201C034F403C035F41D
:10555000040E376F330E366F03C039F401C038F4D0
:10556000010E3A6F000160DF01C032F404012FC464
:10557000E9FF30C4EAFF7E0EEF6E32513125010F94
:10558000036A2F25E96E30510320EA6E7E0EEF6E1E
:1055900032513125020F016E00014FEF2BF0B40E96
:1055A000D8800301CE550401336F325303E13151EA
:1055B000335D3DE21A0E0301CE250401346F030E64
:1055C000356FD8B0352B35C4EAFF34C4E9FF30C499
:1055D000E2FF2FC4E1FF3351016E04E0E6CFEEFF9E
:1055E000012EFCD73351315F000E325B33512F2532
:1055F000346F000E3021356F030EEA6E1A0EE96E1D
:1056000035C4E2FF34C4E1FF32C402F031C401F01A
:10561000015202E0022A02D0025206E0E6CFEEFF7B
:10562000012EFCD7022EFAD731C4CEF324D01A0EA5
:105630000301CE250401346F030E356FD8B0352B2E
:1056400035C4EAFF34C4E9FF30C4E2FF2FC4E1FFF0
:1056500032C402F031C401F0015202E0022A02D049
:10566000025206E0E6CFEEFF012EFCD7022EFAD75B
:1056700031510301CE270301CE51B40801E1CE6BB5
:105680000001FBEF1FF027C42DF426C42CF428C41E
:105690002EF40401306B710E2F6F000128D7040126
:1056A0002B6B01C02AF42D6B710E2C6F2AC42EF4C3
:1056B0000001F0EF1FF012000401025302E0020E9D
:1056C00001D0010E066F06C448F403C449F44B6BC5
:1056D0004A6B4851400DF3CF4CF4400E4D6FD890BB
:1056E00049354C27000E4D23F86A4DC4F7FF4CC4D2
:1056F000F6FF040EEA6E4A0EE96E4F6B020E4E6F15
:10570000000142EC12F004014A3D05D04B3D03D0AC
:10571000036A000E03D04BC403F04A51016E03C06C
:1057200002F002C005F401C004F4043D04D0053DBC
:1057300002D0056B046B066B05C408F404C407F4BF
:1057400008C40CF407C40BF4000152EC1FF0196AF2
:10575000F2BE198EF29E03C04DF402C04CF401C09B
:105760004BF400C04AF4170E0401516FB70E506F8E
:10577000510E4F6F7C0E4E6F000119EC18F019BEE0
:10578000F28E196AF2BE198EF29E03C049F402C06D
:1057900048F401C047F400C046F42DEC13F019BEE4
:1057A000F28E02C00AF401C009F404010A51030890
:1057B00003E2030E0A6F096906C40BF40AC40DF470
:1057C00009C40CF4000197EC1FF00000040102531F
:1057D00002E0020E01D0010E066F100E0325076FC6
:1057E00006C448F407C449F44B6B4A6B4851400D5A
:1057F000F3CF4CF4400E4D6FD89049354C27000E36
:105800004D23F86A4DC4F7FF4CC4F6FF040EEA6E50
:105810004A0EE96E4F6B020E4E6F000142EC12F021
:1058200004014A3D05D04B3D03D0036A000E03D06E
:105830004BC403F04A51016E03C002F002C005F4EC
:1058400001C004F4043D04D0053D02D0056B046B97
:10585000010E066F05C408F404C407F408C40CF470
:1058600007C40BF4000152EC1FF0196AF2BE198E46
:10587000F29E03C04DF402C04CF401C04BF400C0D2
:105880004AF4170E0401516FB70E506F510E4F6F4F
:105890007C0E4E6F000119EC18F019BEF28E196AD9
:1058A000F2BE198EF29E03C049F402C048F401C052
:1058B00047F400C046F42DEC13F019BEF28E02C07E
:1058C0000AF401C009F404010A51030803E2030EBB
:1058D0000A6F096906C40BF40AC40DF409C40CF478
:1058E000000197EC1FF0000087EF30F00301E29118
:1058F000030EEA6EE30EE96E010EE26E1C0EE16E1F
:105900001B0E016EE6CFEEFF012EFCD7E0C3FFF3C6
:10591000DFC3FEF3FEC3E9FFFFC3EAFFEFBE0CD116
:10592000FEC3E9FFFFC3EAFFEFAC01D0FF00010EA9
:10593000EA6E190EE96EFFC3E2FFFEC3E1FF030E3C
:10594000016EE6CFEEFF012EFCD7010119511619A9
:10595000010B69E019A134D00401486B0B0E496FAB
:105960004B6B4A6B4851400DF3CF4CF4400E4D6FDA
:10597000D89049354C27000E4D23F86A4DC4F7FFE7
:105980004CC4F6FF040EEA6E4A0EE96E4F6B020E2F
:105990004E6F000142EC12F004014A3D05D04B3D30
:1059A00003D0036A000E03D04BC403F04A51016ECA
:1059B00003C002F002C057F101C056F133D001011B
:1059C0000401486B0C0E496F4B6B4A6B4851400DFC
:1059D000F3CF4CF4400E4D6FD89049354C27000E54
:1059E0004D23F86A4DC4F7FF4CC4F6FF040EEA6E6F
:1059F0004A0EE96E4F6B020E4E6F000142EC12F040
:105A000004014A3D05D04B3D03D0036A000E03D08C
:105A10004BC403F04A51016E03C002F002C057F1BB
:105A200001C056F101011931070B0401006F01019A
:105A300016C100F01631070B0401005D07E10101FA
:105A400019511619200BD8B477D004010301E28153
:105A5000E293010119C100F01931070B03E10301C1
:105A6000E28301010301E2A334D00401486B0E0E6E
:105A7000496F4B6B4A6B4851400DF3CF4CF4400ECD
:105A80004D6FD89049354C27000E4D23F86A4DC410
:105A9000F7FF4CC4F6FF040EEA6E4A0EE96E4F6B38
:105AA000020E4E6F000142EC12F004014A3D05D097
:105AB0004B3D03D0036A000E03D04BC403F04A51A0
:105AC000016E03C002F002C055F101C054F133D0A1
:105AD00003010401486B0D0E496F4B6B4A6B485133
:105AE000400DF3CF4CF4400E4D6FD89049354C2704
:105AF000000E4D23F86A4DC4F7FF4CC4F6FF040EA8
:105B0000EA6E4A0EE96E4F6B020E4E6F000142ECD8
:105B100012F004014A3D05D04B3D03D0036A000E4C
:105B200003D04BC403F04A51016E03C002F002C01F
:105B300055F101C054F101010101155301E1BDD23C
:105B4000152DBAD219BFEBD019511619100BD8B4B4
:105B500084D0000E19B9010E0401466F46C447F403
:105B60000C0E496F47C44AF44A532EE049C44BF423
:105B70004B51070DF3504D6B4C6F4DC403F04C511E
:105B80000001EBEC10F0006E0900F5CF01F0090008
:105B9000F5CF02F00900F5CF03F003C051F402C0C5
:105BA00050F401C04FF4E8CF4EF4E8CF52F4010EA8
:105BB0000401536F0F0E556F890E546F00013BECBB
:105BC00011F0000006D0040149C44BF400015CEC64
:105BD00011F000000401475302E0000E01D0010E55
:105BE000486F0D0E496F48C44AF44A532EE049C429
:105BF0004BF44B51070DF3504D6B4C6F4DC403F0FC
:105C00004C510001EBEC10F0006E0900F5CF01F0F3
:105C10000900F5CF02F00900F5CF03F003C051F4FD
:105C200002C050F401C04FF4E8CF4EF4E8CF52F474
:105C3000010E0401536F0F0E556F890E546F000152
:105C40003BEC11F0000006D0040149C44BF4000104
:105C50005CEC11F000000000010104014191010120
:105C60001931070B0401466F010116C100F016310E
:105C7000070B0401465D06E1010119511619200BBD
:105C800003E0040141810101040141A139D0030E67
:105C90004B6F00015CEC11F00401466B46510908A2
:105CA00002E3462BFBD7030E4B6F4B51070DF3500E
:105CB0004D6B4C6F4DC403F04C510001EBEC10F0F8
:105CC000006E0900F5CF01F00900F5CF02F00900E0
:105CD000F5CF03F003C051F402C050F401C04FF4FB
:105CE000E8CF4EF4E8CF52F4010E0401536F0F0ECB
:105CF000556F890E546F00013BEC11F0000000005D
:105D0000010119511619010B0AE0000E19B1010E1B
:105D10000401466F476F000184EC11F0010100019E
:105D200033EC12F00401406B40510308D8A093D02B
:105D300040C446F4486B100E496F4B6B4A6B485198
:105D4000400DF3CF4CF4400E4D6FD89049354C27A1
:105D5000000E4D23F86A4DC4F7FF4CC4F6FF040E45
:105D6000EA6E4A0EE96E4F6B020E4E6F000142EC76
:105D700012F004014A3D05D04B3D03D0036A000EEA
:105D800003D04BC403F04A51016E03C002F002C0BD
:105D900048F401C047F448C449F4492B4907D8B432
:105DA00006D04A69000151EC12F00401F7D747C44C
:105DB0004AF4000151EC12F046C447F463EC12F0CF
:105DC0000401486B110E496F4B6B4A6B4851400DF3
:105DD000F3CF4CF4400E4D6FD89049354C27000E50
:105DE0004D23F86A4DC4F7FF4CC4F6FF040EEA6E6B
:105DF0004A0EE96E4F6B020E4E6F000142EC12F03C
:105E000004014A3D05D04B3D03D0036A000E03D088
:105E10004BC403F04A51016E03C002F002C048F4C3
:105E200001C047F448C449F4492B4907D8B406D007
:105E30004A69000151EC12F00401F7D747C44AF453
:105E4000000151EC12F046C447F4BAEC12F0000025
:105E50000401402B69D7000181EC17F00A0E040100
:105E60004A6F4A51070DF3504D6B4C6F4DC403F010
:105E70004C510001EBEC10F0006E0900F5CF01F081
:105E80000900F5CF02F00900F5CF03F001C04FF48F
:105E9000E8CF4EF404010034006E0134016E023488
:105EA000016E0334016E0036013601360136FC0EF8
:105EB0000016C250830B0010C26EC2824B91C2A268
:105EC0004B814BB104D04B91C2A24B81FAD7C2B2E5
:105ED000FED7C4CF03F0C3CF00F0C4CF01F0026AF5
:105EE000036A03C049F402C048F401C047F400C08B
:105EF00046F4A70E465F000E475B485B495B49C40A
:105F00004DF448C44CF447C44BF446C44AF4000171
:105F100011EC13F003C04DF402C04CF401C04BF47B
:105F200000C04AF4C00E0401516F260E506F1B0EC4
:105F30004F6F7D0E4E6F000119EC18F003C049F44D
:105F400002C048F401C047F400C046F42DEC13F041
:105F500002C04EF101C04DF1050E04014A6F4A51D5
:105F6000070DF3504D6B4C6F4DC403F04C510001C5
:105F7000EBEC10F0006E0900F5CF01F00900F5CF51
:105F800002F00900F5CF03F001C04FF4E8CF4EF462
:105F900004010034006E0134016E0234016E0334DA
:105FA000016E0036013601360136FC0E0016C25075
:105FB000830B0010C26EC2824B91C2A24B814BB1C7
:105FC00004D04B91C2A24B81FAD7C2B2FED7C4CF44
:105FD00003F0C3CF00F0C4CF01F0026A036A01C02E
:105FE00043F400C042F4060E4A6F4A51070DF350C5
:105FF0004D6B4C6F4DC403F04C510001EBEC10F0B5
:10600000006E0900F5CF01F00900F5CF02F009009C
:10601000F5CF03F001C04FF4E8CF4EF40401003493
:10602000006E0134016E0234016E0334016E0036DD
:10603000013601360136FC0E0016C250830B0010EB
:10604000C26EC2824B91C2A24B814BB104D04B9124
:10605000C2A24B81FAD7C2B2FED7C4CF03F0C3CFDE
:1060600000F0C4CF01F0026A036A01C045F400C029
:1060700044F44451422501014F6F0401455143212D
:106080000101506F1BC13CF11AC13BF11BC118F15A
:106090001AC117F119C116F1F288030EEA6EE30E68
:1060A000E96E010EE26E1C0EE16E1B0E016EE6CF74
:1060B000EEFF012EFCD701D068D0810E0301E36F03
:1060C00014C1E6F313C1E5F316C1E4F3030E0401B2
:1060D000276FE30E266F296B1B0E286F000143EC20
:1060E0002BF00301E2A152D0000E010119BB010EF9
:1060F0000401006F010119C100F01931070B0401FF
:10610000016F00C402F4036F00015CEF2BF001018A
:10611000152D3BD0030E04014B6F00015CEC11F018
:106120000401466B4651090802E3462BFBD7030ED8
:106130004B6F4B51070DF3504D6B4C6F4DC403F03B
:106140004C510001EBEC10F0006E0900F5CF01F0AE
:106150000900F5CF02F00900F5CF03F003C051F4B8
:1061600002C050F401C04FF4E8CF4EF4E8CF52F42F
:10617000010E0401536F0F0E556F890E546F00010D
:106180003BEC11F0000000000101030100011200CE
:106190000301E26BE36BE46BE56BE66BE76BE86BCB
:1061A000E96BEA6BEB6BEC6BED6BEE6BEF6BF06B33
:1061B000F16BF26BF36BF46BF56BF66B890EE26FC0
:1061C00014C1E5F313C1E4F316C1E3F315C1E6F31B
:1061D000E16BE1510308D8A0B0D0D890E135036A53
:1061E000E70F016E030E03220150F76F03C0F8F3AF
:1061F0000B0E04014A6F4A51070DF3504D6B4C6F63
:106200004DC403F04C510001EBEC10F0006E09009E
:10621000F5CF01F00900F5CF02F00900F5CF03F04A
:1062200001C04FF4E8CF4EF404010034006E013495
:10623000016E0234016E0334016E00360136013600
:106240000136FC0E0016C250830B0010C26EC282D3
:106250004B91C2A24B814BB104D04B91C2A24B8156
:10626000FAD7C2B2FED7C4CF03F0C3CF00F0C4CF79
:1062700001F0026A036AF8C3EAFFF7C3E9FF00C04E
:10628000EFFF01C0ECFFD8900301E135036AEF0F87
:10629000016E030E03220150F76F03C0F8F3080EDE
:1062A00004014A6F4A51070DF3504D6B4C6F4DC4BA
:1062B00003F04C510001EBEC10F0006E0900F5CF3B
:1062C00001F00900F5CF02F00900F5CF03F001C09D
:1062D0004FF4E8CF4EF404010034006E0134016E37
:1062E0000234016E0334016E003601360136013688
:1062F000FC0E0016C250830B0010C26EC2824B917E
:10630000C2A24B814BB104D04B91C2A24B81FAD7B0
:10631000C2B2FED7C4CF03F0C3CF00F0C4CF01F0A8
:10632000026A036AF8C3EAFFF7C3E9FF00C0EFFFA0
:1063300001C0ECFF0301E12B4CD7030E0401276FD2
:10634000E20E266F296B150E286F000143EC2BF02F
:1063500012000301E16BE26BE36BE46BE56BE66B50
:10636000E76BE86BE96B820EE16F130EE26F060ECE
:10637000E36F070EE56FE20EE46F010EE66F0F0E9E
:10638000E76F0401486B010E496F4B6B4A6B485134
:10639000400DF3CF4CF4400E4D6FD89049354C274B
:1063A000000E4D23F86A4DC4F7FF4CC4F6FF040EEF
:1063B000EA6E4A0EE96E4F6B020E4E6F000142EC20
:1063C00012F004014A3D05D04B3D03D0036A000E94
:1063D00003D04BC403F04A51016E03C002F002C067
:1063E000E9F301C0E8F3030E276FE10E266F296B76
:1063F000090E286F000143EC2BF012000301E36B40
:10640000800EE36F030E0401276FE30E266F296BE6
:10641000010E286F000143EC2BF01200E0C3E2F301
:10642000DFC3E1F30301E151E96EE251EA6EEF509F
:10643000010A000105E0010A04E0020A03E00BD0B2
:10644000F298F288E1C3E9FFE2C3EAFFEFCF15F16A
:10645000010102D0000102D00001D0DF1200030EC2
:10646000EA6EE90EE96EEF500EE0140E016E006A5E
:10647000002EFED7012EFBD7BF0E006E002EFED7DA
:1064800000D0EF2EF2D765EF32F0F29CF29EF2BE12
:10649000FDD70301E651400DF350E96F400EEA6F5E
:1064A000F86AEAC3F7FFE9C3F6FFE8C3EAFFE7C308
:1064B000E9FF0401226F000197EC1BF0C00EF212FD
:1064C000010E0301E96F0001CAD791EF32F0E0C37A
:1064D000E2F3DFC3E1F301011551020801E023D02B
:1064E0000301E1C3E9FFE2C3EAFFEF50020803E260
:1064F000010119D00301E1C3E9FFE2C3EAFFEFCFD5
:10650000E3F3010EE125016E000EE221036E01C0EE
:10651000E4F3E56FE3C3E6F3E86F01C0E7F30001DE
:10652000B4D76CDF01010001120004012651400DB7
:10653000F3CF29F4400E2A6F196AF2BE198EF29E2B
:10654000F86AF76E29C4F6FF28C4EAFF27C4E9FFFA
:106550004F6B400E4E6F000142EC12F019BEF28EEE
:106560001AEF33F0E0C3E2F3DFC3E1F30301E1C369
:10657000E9FFE2C3EAFFEF50020801E267D0E36BF4
:10658000E46BE56BE66BE76BE86BE96BEA6BEB6B77
:10659000EC6BED6BEE6BEF6BF06BF16BF26BF36B27
:1065A000F46BF56BF66BF76BF86BF96BFA6BFB6BD7
:1065B000FC6BFD6BFE6BFF6B0401006B016B026BF0
:1065C000036B046B056B066B076B086B096B0A6B3F
:1065D0000B6B0C6B0D6B0E6B0F6B106B116B126BEF
:1065E000136B146B156B166B176B186B196B1A6B9F
:1065F0001B6B1C6B1D6B1E6B1F6B206B216B226B4F
:10660000236B246B850E0301E36FE1C3E9FFE2C353
:10661000EAFFEFCFE4F3E1C3E9FFE2C3EAFFEFCF24
:1066200025F425C426F4030E0401286FE50E276F18
:1066300000017BD7030E0401276FE30E266F296B41
:10664000420E286F000143EC2BF003010001120001
:10665000D5DE12000301E16BE26BE36BE46BE56BEB
:10666000E66BE76BE86BE96BEA6BEB6BEC6BED6B86
:10667000EE6BEF6BF06BF16BF26BF36BF46BF56B36
:10668000F66BF76BF86BF96BFA6BFB6BFC6BFD6BE6
:10669000FE6BFF6B0401006B016B026B036B046B01
:1066A000056B066B076B086B096B0A6B0B6B0C6B4E
:1066B0000D6B0E6B0F6B106B116B126B136B146BFE
:1066C000156B166B176B186B196B1A6B1B6B1C6BAE
:1066D0001D6B1E6B1F6B206B216B226B236B246B5E
:1066E000256B070E0301E16FDFC3E9FFE0C3EAFF9B
:1066F000EFCF00F0ECCF01F0ECCF02F0ECCF03F0E5
:1067000003C0E5F302C0E4F301C0E3F300C0E2F329
:10671000030E0401276FE10E266F296B450E286FCB
:10672000000143EC2BF01200D6C3DAF3D5C3D9F342
:106730000301DB6BDB5107083EE3DB51030DF35034
:10674000DD6BDC6F580EDC25E96E010EDD21EA6E93
:10675000EFCFDEF3D9C3E9FFDAC3EAFFEF50DE5D26
:1067600028E1DB51030DF350DD6BDC6F010EDC25FE
:10677000016E000EDD21036E0150580F016E010EF7
:10678000032201C0DCF303C0DDF3010ED925016E45
:10679000000EDA21036E01C0DEF3DDC3EAFFDCC3C5
:1067A000E9FFE06B01C0DFF3000134EC11F003D02E
:0C67B0000301DB2BBFD7000117EF17F02F
:107F40000000000000000000000000000000000031
:107F50000000000000000000000000000000000021
:107F60000000000000000000000000000000000011
:107F70000000000000000000000000000000000001
:107F800000000000000000000000000000000000F1
:107F900000000000000000000000000000000000E1
:107FA00000000000000000000000000000000000D1
:107FB00000000000000000000000000000000000C1
:107FC00000000000000000000000000000000000B1
:107FD00000000000000000000000000000000000A1
:107FE0000000000000000000000000000000000091
:107FF0000000000000000000000000000000000081
:020000040030CA
:0E00000000F8191C00BF00000FC00FE00F40F9
:00000001FF
;PIC18F45K22
;CRC=FCCA  CREATED="20-Jun-18 08:46"
